:020000040800F2
:10000000C8EF0020AD750108B1750108B37501088E
:10001000B5750108B7750108B97501080000000041
:10002000000000000000000000000000BB75010897
:10003000BD75010800000000BF750108C175010809
:10004000C3750108C3750108C3750108DD0D0008FB
:10005000C3750108C3750108C3750108C37501089C
:10006000C3750108C3750108C3750108C37501088C
:10007000C3750108C3750108C3750108C37501087C
:10008000C3750108C3750108C3750108C37501086C
:10009000C3750108C3750108C3750108C37501085C
:1000A000C3750108C3750108C3750108C37501084C
:1000B000C375010877770108DD020008C3750108E0
:1000C000C3750108C3750108C3750108C37501082C
:1000D000C375010835070008C3750108C375010819
:1000E000E9860008C3750108C3750108C3750108D6
:1000F000C3750108C3750108C3750108C3750108FC
:10010000C3750108BDB20008C3750108C3750108B5
:10011000C3750108C3750108D18E0108C3750108B4
:10012000C3750108C3750108C3750108C3750108CB
:1001300000F002F800F07CF80AA090E8000C82447D
:100140008344AAF10107DA4501D100F071F8AFF25A
:10015000090EBAE80F0013F0010F18BFFB1A43F0A5
:1001600001031847F4530200145402000A444FF0EC
:10017000000C10F8013B13F0070408BF10F8014B06
:100180001D1108BF10F8015B641E05D010F8016B4B
:10019000641E01F8016BF9D113F0080F1EBF10F8AF
:1001A000014BAD1C0C1B09D16D1E58BF01F801CBD2
:1001B000FAD505E014F8016B01F8016B6D1EF9D555
:1001C0009142D6D37047000000230024002500266A
:1001D000103A28BF78C1FBD8520728BF30C148BFAA
:1001E0000B607047662922F00E8769291DF0CE86C4
:1001F00064291DF0CB8678291DF0028763291EF043
:10020000348473291EF03984002070471FB51EF016
:1002100021FD04000020002121F0D4FC401C60607E
:100220000020002121F0E4FCE0601FBD10B510BDEE
:100230001EF040FE1146FFF7E9FF17F02BF91FF003
:10024000B1F803B4FFF7F2FF03BC00F0A1F900001E
:1002500010B56FF0040000F04EFF4C4800684C49A8
:10026000B0FBF1F04B4908700846007800EB400104
:10027000C1EBC0104FF6FF7101EAC000464908808B
:1002800010BD7FB505460C460121042001F07BFA24
:10029000ADF80850ADF804400020ADF80A00ADF804
:1002A000060001A93D4802F031F9012211463B4800
:1002B00002F0A3FC1E208DF8000000208DF8010044
:1002C00002208DF8020001208DF80300684600F03E
:1002D000C8FE0121314802F075FC7FBD10B5012137
:1002E0002E4802F038FF40B101212C4802F044FFB3
:1002F0002B480068401C2A49086010BD0146254A69
:1003000012784A434FF0E0235A6100229A611A465C
:10031000126942F001021A6100BF4FF0E022106939
:1003200000F001021AB100F48032002AF5D04FF03B
:10033000E022126922F001024FF0E0231A6100224C
:100340009A6170470146144A12884A434FF0E023ED
:100350005A6100229A611A46126942F001021A613A
:1003600000BF4FF0E022106900F001021AB100F462
:100370008032002AF5D04FF0E022126922F001020B
:100380004FF0E0231A6100229A61704708000020B4
:1003900000127A000400002006000020000800403F
:1003A000000000200CB50020019000906C4800680F
:1003B00040F480306A49086000BF6948006800F472
:1003C000003000900198401C0190009818B90198E5
:1003D000B0F5A06FF1D16248006800F4003010B1B0
:1003E0000120009001E0002000900098012843D1F6
:1003F0005C48006840F010005A49086008460068F0
:1004000020F0030008600846006840F00200086021
:10041000534840685249486008464068486008466A
:10042000406840F4806048600846406820F47C10D2
:1004300048600846406840F4E81048600846006894
:1004400040F08070086000BF4548006800F0007010
:100450000028F9D04248406820F003004049486035
:100460000846406840F00200486000BF3C484068D1
:1004700000F00C000828F9D10CBD10B5FFF792FF71
:1004800010BD10B53648006840F0010034490860DE
:1004900008464068344908403149486008460068C9
:1004A000324908402E4908600846006820F4802040
:1004B00008600846406820F4FE0048604FF41F00C2
:1004C0008860FFF7DAFF4FF000602949086010BD2F
:1004D00010B5002100200022214B5B6803F00C01C5
:1004E00021B1042906D0082928D107E0214B224C4C
:1004F000236027E01F4B204C236023E0184B5B68F0
:1005000003F47010164B5B6803F48032022303EB94
:10051000904022B9194B4343174C23600DE0104B18
:100520005B6803F4003323B1144B4343124C236044
:1005300003E0104B4343104C236003E00D4B0E4C83
:10054000236000BF00BF064B5B68C3F303130C4C72
:10055000E15C094B1B68CB40074C236010BD0000D9
:1005600000100240002002400000FFF8FFFFF6FEEE
:1005700008ED00E000127A000800002000093D00AC
:100580000C00002010B54FF4A06000F065FD10BD18
:10059000014600BF704770B504460D4600BF4021BC
:1005A0006C4801F0F1FA0028F9D0E1B2694801F095
:1005B0007DFA204670BD684A92F88020521C02F0F5
:1005C0007F01654AD2F884208A4207D0624AD2F875
:1005D0008020614B98541A46C2F88010704770B55D
:1005E00040F225515B4801F0E5FAB0B1594801F0FD
:1005F00061FAC5B2584890F88000401C00F07F04B2
:100600005548D0F88400A04207D05348D0F8800065
:1006100051490D540846C0F8804070BD4E4890F8CE
:1006200080004D4991F88410401A00F07F00704717
:100630004948D0F88000484AD2F88420904201D13D
:10064000002070474448D0F88400434A115C1046AB
:1006500090F88400401C00F07F00C2F88400084637
:10066000EFE73D48D0F884003B49C1F8800070476F
:1006700010B53A4800683A4908700846007820B931
:100680003848007808B11BF0C3FA3548007835497E
:10069000087010BD10B586B00446012144F2050073
:1006A00001F064F82B4801F0C5F84FF40070ADF884
:1006B000140003208DF8160018208DF8170005A9E6
:1006C000294800F097FD4FF48060ADF814004820F1
:1006D0008DF8170005A9244800F08CFD0194002036
:1006E000ADF80800ADF80A00ADF80C00ADF8100048
:1006F0000C20ADF80E0001A9164801F0DEF8252007
:100700008DF8000002208DF8010000208DF8020015
:1007100001208DF80300684600F0A3FC012240F29E
:1007200025510C4801F061F901210A4801F051F905
:1007300006B010BD10B540F22551064801F03AFA56
:1007400030B1044801F0B6F9C4B22046FFF733FFD8
:1007500010BD000000380140F004002020012142BB
:1007600020000020210000200008014000B585B0D5
:10077000012148F2040000F0F9FF4FF4004000F0BE
:1007800059FF2D4802F068FE002000908DF804000B
:100790008DF805004FF460200290002003900120A6
:1007A0008DF810006946244802F07DFE01212248A0
:1007B00002F0A5FE204802F0C4FE00BF1E4802F071
:1007C000C5FE0028FAD11C4802F0CAFE00BF1A4834
:1007D00002F0CBFE0028FAD105B000BD10B50446EA
:1007E000072301222146144802F0F5FE0121124898
:1007F00002F0C5FE00BF02210F4803F031F80028C7
:10080000F9D00D4802F04EFF10BD2DE9F04107462A
:100810000C460025002608E03846FFF7DFFF0544B8
:100820000520FFF78FFD701CC6B2A642F4DBB5FBB6
:10083000F4F080B2BDE8F081003C014008B5012130
:10084000082000F093FFC020ADF8000010208DF8C4
:10085000030003208DF802006946904800F0CAFCAE
:10086000C0218E4800F073FD08BD10B58B480068AC
:1008700020F07040894908600846006840F0405008
:1008800008600120864908608649C1F89801042063
:10089000FFF734FD0020824908600420FFF72EFD99
:1008A00000208049C1F8980110BD10B57B48006850
:1008B00020F07040794908600846006840F04050D8
:1008C000086000207649091F08607649C1F89C013C
:1008D0000420FFF713FD01207149091F08607149C9
:1008E000C1F89C010420FFF709FD10BD10B50024DC
:1008F0006A48006820F0704068490860084600684F
:1009000040F000400860012065490860FFF7F6FCF0
:1009100001206449C1F89801FFF7F0FC07E0601C72
:10092000C4B2FA2C03DDFFF7C0FF012010BD5C4804
:10093000803800680028F2D15949091F086000BFBB
:10094000F4E710B500205649091F086053480068B5
:1009500020F07040514908600846006840F040505F
:10096000086000204F49C1F89C010220FFF7C6FC37
:1009700001204B49091F08600220FFF7BFFC00203F
:100980004849C1F8980110BD10B500204449091F1D
:1009900008604248006820F07040404908600846FE
:1009A000006840F04050086001203E49C1F89C01B9
:1009B0000220FFF7A3FC01203949091F086002202B
:1009C000FFF79CFC00203749C1F8980110BD70B5B5
:1009D00004463248006820F07040304908600846FC
:1009E000006840F04050086000202D49091F086051
:1009F00000251DE0E00918B101202949086002E046
:100A00000020274908606006040E0220FFF776FCEC
:100A100001202349091F08600220FFF76FFC002016
:100A20002049C1F898010220FFF768FC681CC5B294
:100A3000082DDFDB70BD70B505460024174800683F
:100A400020F07040154908600846006840F00040FA
:100A50000860002617E000201149091F08600220E5
:100A6000FFF74CFC01200F49C1F898016006040E05
:100A70000B488038006808B1601CC4B20120FFF741
:100A80003DFC701CC6B2082EE5DB15B9FFF77CFFF4
:100A900001E0FFF756FF204670BD0000000C01404A
:100AA0009C8121420080214208B503208DF800007E
:100AB0008DF8010000208DF8020001208DF8030060
:100AC000684600F0CEFA08BDF0B503460C46154660
:100AD000642093FBF0F0C6B2642093FBF0F700FBB8
:100AE0001730C1B2132E02DD01F16400C1B2084615
:100AF000CF1701EB977701EBA707BAB2072092FB5C
:100B0000F0F700FB172082B25719601EDFF8F4C21D
:100B10001CF80000384482B2CF1701EB9777BF1062
:100B2000A1EB87071FB9032C01DA501E82B2072000
:100B300092FBF0F700FB1720C0B2F0BD0146CA17C8
:100B400001EB92729210A1EB820292B9642091FBA8
:100B5000F0F200FB121050B94FF4C87091FBF0F2A4
:100B600000FB121008B9012070470020FCE70120AB
:100B7000FAE70020F8E770B500260024002502F00F
:100B80001FFB0646A048B6FBF0F4A0480088A04230
:100B90003CD09E490C8040F2B27510E02846FFF729
:100BA000CDFF40B1B4F5B77F02D3A4F5B77404E02C
:100BB000681C85B206E0A4F26D14681C85B2B4F519
:100BC000B67FEBD800BF92488580002516E090499B
:100BD0008888FFF7B3FF30B1012D04D11D2C01D35C
:100BE0001D3C09E00CE08B48405DA04203D88948D9
:100BF000405D241A00E003E0681C85B21C2CE6D29C
:100C000000BF681C82498871601CC8717E48B6FBB1
:100C1000F0F100FB11644FF46160B4FBF0F07C492B
:100C200008704FF46160B4FBF0F100FB11403C210F
:100C3000B0FBF1F0764948704FF46160B4FBF0F11D
:100C400000FB11403C21B0FBF1F201FB12007049A6
:100C500088700B46DA7999799888FFF735FF6C49E7
:100C60000872002070BD2DE9F05F06460F469046E1
:100C70009946DDE90AAB002440F2B270864203DBFC
:100C800040F63300864202DD0120BDE8F09F40F2CD
:100C9000B2750AE02846FFF751FF10B15E480444E0
:100CA00001E05E480444681C85B2B542F2DB781E60
:100CB000C7B2002510E05748405D40F2A3214843E9
:100CC00004EBC0143046FFF739FF18B1012D01D1F4
:100CD0004D480444681C85B2BD42ECDBA8F101001C
:100CE00040F2A321484304EBC014C9EB4910C0EB08
:100CF000092004EB0014CAEB0A1004EB80045C44E6
:100D000001214FF0C05000F03EFD012002F049FBF0
:100D1000204602F05EFA02F08FFA0020B5E71CB51B
:100D20000024042002F005FB45F25001884247D020
:100D300001214FF0C05000F026FD012002F031FBF0
:100D400002F0C2FA012000F07EFC04E0601CC4B294
:100D50000A20FFF7F7FA412000F0DDFB0028F5D06C
:100D6000FA2C01DB01201CBD4FF4807000F087FCE1
:100D7000012000F08AFC02F05FFA02F066FA01211D
:100D8000084602F0FDF902F057FA02F006FA47F6BB
:100D9000FF7002F02BFA02F04FFA372000210A23ED
:100DA0000222CDE900100C2140F2D970FFF75BFF61
:100DB00002F0FCF945F25001042002F0AEFA07E01F
:100DC00002F043FA0121084602F0DAF902F034FA9F
:100DD000FFF76AFEFFF7CFFE0020C4E710B5012041
:100DE00002F058FA08B1FFF7C6FE022002F052FAEC
:100DF00010B1022002F05EFA052002F05BFA02F068
:100E00001BFA10BD063102088051010022000020AB
:100E100078050020123102080085E2018033E101EB
:100E200010B50446884800884FF6C77108408649C7
:100E3000088008460088204308800121824802F08B
:100E4000FEFD10BD00B587B00121282000F08EFC0A
:100E50000121880300F097FC4FF46040ADF81800C2
:100E600018208DF81B0003208DF81A0006A977487A
:100E700000F0C0F94FF48050ADF8180010208DF844
:100E80001B0003208DF81A0006A9704800F0B2F983
:100E90004FF480516D4800F05AFA4FF460416B48AE
:100EA00000F055FA0020ADF804004FF48270ADF860
:100EB00006000020ADF808000220ADF80A0001206D
:100EC000ADF80C004002ADF80E003820ADF810006F
:100ED0000020ADF812000720ADF8140001A95A480F
:100EE00002F008FD0121584802F0A9FD0020FFF79B
:100EF00097FF07B000BD70B50546002405E0601CF3
:100F0000C4B2C82C01DD002070BD02214E4802F0A1
:100F10001AFE0028F3D029464B4802F0C1FD0024F8
:100F200005E0601CC4B2C82C01DD0020ECE7012103
:100F3000454802F008FE0028F3D0434802F0B2FD15
:100F4000C0B2E1E700B587B00121042000F00EFC3B
:100F50000121080300F00AFCE020ADF81800182079
:100F60008DF81B0003208DF81A0006A9384800F000
:100F700041F91020ADF818008DF81B0006A934487F
:100F800000F038F91021324800F0E1F90020ADF806
:100F900004004FF48270ADF806000020ADF80800A0
:100FA000ADF80A00ADF80C004FF40070ADF80E007B
:100FB0001820ADF810000020ADF812000720ADF8A1
:100FC000140001A9234802F095FC0121214802F0F8
:100FD00036FD07B000BD10B504461E4800884FF628
:100FE000C77108401B4908800846008820430880D4
:100FF0000121184802F023FD10BD70B505460024FC
:1010000005E0601CC4B2C82C01DD002070BD0221C7
:10101000104802F098FD0028F3D029460D4802F050
:101020003FFD002405E0601CC4B2C82C01DD002097
:10103000ECE70121074802F086FD0028F3D00548BF
:1010400002F030FDC0B2E1E700380040000C014082
:10105000000801400030014031490143314A11602C
:10106000704770B5002100230F22C47804B32D4CC3
:10107000246804F4E064C4F5E064210AC1F10403C7
:10108000CA40447804FA03F18478144021430901EA
:10109000254C0678A155047804F01F050124AC40C6
:1010A00005786D11AD0005F1E025C5F8004109E0B6
:1010B000047804F01F050124AC401C4D067876111D
:1010C00045F8264070BD1A4A0A400243154B1B1FC3
:1010D0001A60704739B1134A121D12680243114B4E
:1010E0001B1D1A6006E00F4A121D126882430D4B49
:1010F0001B1D1A607047042808D14FF0E0210969D0
:1011000041F004014FF0E022116107E04FF0E021CF
:10111000096921F004014FF0E022116170470000DD
:101120000000FA050CED00E000E400E080E100E0E2
:1011300080FFFF1F10B50446CC48844208D101212E
:10114000042000F02DFB0021042000F029FB46E0E4
:10115000C748844208D10121082000F021FB00216A
:10116000082000F01DFB3AE0C248844208D101216A
:10117000102000F015FB0021102000F011FB2EE0E4
:10118000BD48844208D10121202000F009FB002144
:10119000202000F005FB22E0B848844208D101215C
:1011A000402000F0FDFA0021402000F0F9FA16E09E
:1011B000B348844208D10121802000F0F1FA0021D7
:1011C000802000F0EDFA0AE0AE48844207D1012108
:1011D000801500F0E5FA0021A01500F0E1FA10BD3D
:1011E00010B50121084600F0DBFA0021012000F0D3
:1011F000D7FA10BD2DE9F041024600250026002057
:1012000000230024002791F803C00CF00F0591F88B
:1012100003C00CF0100CBCF1000F03D091F802C019
:101220004CEA050591F800C0BCF1000F31D01468FC
:1012300000202BE04FF0010C0CFA00F3B1F800C0D5
:101240000CEA03069E4220D183004FF00F0C0CFAEB
:1012500003F7BC4305FA03FC4CEA040491F803C00D
:10126000BCF1280F06D14FF0010C0CFA00FCC2F8BB
:1012700014C00AE091F803C0BCF1480F05D14FF04B
:10128000010C0CFA00FCC2F810C0401C0828D1D395
:101290001460B1F800C0BCF1FF0F34DD54680020C9
:1012A0002EE000F1080C4FF0010808FA0CF3B1F839
:1012B00000C00CEA03069E4221D183004FF00F0CC0
:1012C0000CFA03F7BC4305FA03FC4CEA040491F85A
:1012D00003C0BCF1280F05D100F1080C08FA0CF886
:1012E000C2F8148091F803C0BCF1480F07D100F197
:1012F000080C4FF0010808FA0CF8C2F81080401CE6
:101300000828CED35460BDE8F0814FF6FF7101800C
:10131000022181700421C170704702460020936849
:101320000B400BB1012000E00020704701468868A7
:1013300080B2704702460020D3680B400BB10120F9
:1013400000E0002070470146C86880B27047016124
:101350007047416170470AB1016100E04161704727
:10136000C16070474FF480320A43826181618261BB
:1013700082698269704702460020434B18684FF625
:101380008073184040EA021008433F4B18607047D2
:101390003E49C8617047F0B50A4600230024002189
:1013A000002500F00046B6F1004F02D1364EF1693B
:1013B00001E0354E7168C0F3034583B200F4401676
:1013C000B6F5401F08D121F070612F4E766826F0E7
:1013D00070662D4F7E6012E000F48016B6F5801F17
:1013E00006D1032606FA05F4A14341F0706106E038
:1013F000460D360103FA06F6B14341F0706122B1A1
:10140000460D360103FA06F6314300F00046B6F108
:10141000004F02D11C4EF16101E01B4E7160F0BD26
:1014200030B500228B071C0F0F2303FA04F2164B72
:1014300008338C1053F824309343134C08348D1028
:1014400044F8253023468C1053F824308C07240FA1
:1014500000FA04F423430C4C08348D1044F8253072
:1014600030BD0A49DC3108607047000000080140C7
:10147000000C014000100140001401400018014020
:10148000001C0140002001400000014000002042FB
:10149000DF48006840F00100DD4908600846406808
:1014A000DC490840DA49486008460068DA490840E3
:1014B000D74908600846006820F480200860084684
:1014C000406820F4FE0048604FF41F0088607047B9
:1014D000CF49096821F48031CD4A1160114609686D
:1014E00021F480211160B0F5803F03D0B0F5802F4A
:1014F0000ED106E0C649096841F48031C44A116042
:1015000007E0C349096841F4A021C14A116000E025
:1015100000BF00BF704710B5014600220023002025
:101520004A11012A02D1BA4C236806E0022A02D1EC
:10153000B74C236A01E0B64C636A01F01F02012434
:1015400094401C400CB1012000E0002010BD38B5D3
:10155000002000900024002500BF3120FFF7DBFFB2
:1015600005460098401C00900098B0F5A06F01D08F
:10157000002DF2D03120FFF7CEFF08B1012400E0AA
:101580000024204638BD01460020A14A106820F002
:10159000F80040EAC10010607047A0490860704739
:1015A000024600209A4B586820F47C1042EA01035E
:1015B0001843974B58607047984908667047014632
:1015C0000020934A506820F00300084350607047A1
:1015D0008F48406800F00C007047014600208C4A9C
:1015E000506820F0F000084350607047014600202A
:1015F000874A506820F4E060084350607047014615
:101600000020834A506820F4605040EAC1005060D6
:10161000704729B17E4A527A02437D4B5A7204E0E8
:101620007B4A527A82437A4B5A7270477B49D8314F
:101630000860704701460020754A506820F4404019
:101640000843506070470021714A20321170704A7F
:1016500082F82010012802D004280AD104E00121D8
:101660006B4A2032117005E00521694A2032117061
:1016700000E000BF00BF70476949086070476449D7
:10168000096A0143624A116270476549443908603A
:10169000704730B500210022002400235C4D6D68A6
:1016A00005F00C0121B1042905D0082923D105E05A
:1016B0005C4D056022E05B4D05601FE0544D6D6898
:1016C00005F47012524D6D6805F48034022505EB67
:1016D00092421CB9544D554305600BE04C4D6D686A
:1016E00005F400351DB1504D5543056002E04D4DE8
:1016F0005543056002E04B4D056000BF00BF444DFF
:101700006D6805F0F0010909484D6B5C0568DD4026
:1017100045603F4D6D6805F4E061090A434D6B5C1F
:101720004568DD4085603A4D6D6805F46051C90A31
:101730003E4D6B5C4568DD40C560354D6D6805F418
:101740004041890B3A4D6B5CC568B5FBF3F505610B
:1017500030BD29B12E4A526902432D4B5A6104E033
:101760002B4A526982432A4B5A61704729B1284A51
:1017700092690243264B9A6104E0254A92698243AA
:10178000234B9A61704729B1214AD2690243204B09
:10179000DA6104E01E4AD26982431D4BDA61704768
:1017A00029B11B4AD2680243194BDA6004E0184A97
:1017B000D2688243164BDA60704729B1144A126925
:1017C0000243134B1A6104E0114A12698243104B21
:1017D0001A61704712494039086070470F49C86460
:1017E00070470B49C87170470948406A40F08070E3
:1017F00007494862704701460020054A92680A403E
:101800000AB1012000E0002070470149887270474A
:10181000001002400000FFF8FFFFF6FE0000424209
:101820008004424200127A0000093D00240000209A
:101830003400002010B50446FB48844209D1012140
:101840008803FFF7ADFF00214FF48040FFF7A8FFAA
:1018500032E0F648844209D101214804FFF7ADFF88
:1018600000214FF40030FFF7A8FF25E0F048844244
:1018700009D101218804FFF7A0FF00214FF4802047
:10188000FFF79BFF18E0EB48844209D10121C8040F
:10189000FFF793FF00214FF40020FFF78EFF0BE0CE
:1018A000E548844208D101210805FFF786FF0021A1
:1018B0004FF48010FFF781FF10BD2DE9F04786B08F
:1018C00005460E460024A24600BFA1460027B08967
:1018D00000B100BF2F462C8A4CF6FF700440F08800
:1018E00004432C82AC894EF6F3100440B088318951
:1018F0000843718908430443AC81AC8A4FF6FF402A
:101900000440B0890443AC8201A8FFF7C2FEC64878
:10191000874202D1DDF810A001E0DDF80CA0A88913
:1019200000F4004040B10AEBCA0000EB0A10316835
:101930004900B0FBF1F807E00AEBCA0000EB0A101F
:1019400031688900B0FBF1F86420B8FBF0F00401C5
:101950002009642101FB1089A88900F4004040B1EE
:10196000322000EBC900B0FBF1F000F007000443A7
:1019700008E0322000EB09106421B0FBF1F000F028
:101980000F0004432C8106B0BDE8F0874FF41651D8
:10199000016000218180C18001810C2141810021F1
:1019A0008181704710B502460020108A4FF2FF0374
:1019B00018400B884C8823438C882343CC882343CE
:1019C0001843108210BD0021018041808180C180B8
:1019D000704721B1828942F40052828104E08289F9
:1019E0004DF6FF731A4082817047F0B5034600241C
:1019F00000260025002040F66A17B94200D100BF3A
:101A00001846C1F3421401F01F06012707FA06F534
:101A1000012C01D10C3004E0022C01D1103000E087
:101A200014301AB107682F43076002E00768AF431C
:101A30000760F0BD1AB1838A0B43838202E0838A78
:101A40008B4383827047028A4FF6F0731A400282FA
:101A5000028A0A430282704782894FF2FF731A405A
:101A6000828182890A438281704721B1828942F052
:101A70000202828104E082894FF6FD731A4082815E
:101A80007047028A4FF6DF731A400282028A0A43C5
:101A90000282704721B1028A42F48042028204E04D
:101AA000028A4BF6FF731A4002827047C1F30802A4
:101AB0008280704701468888C0F30800704781899A
:101AC00041F0010181817047028BD2B20283028B07
:101AD00042EA012202837047028B02F47F420283B2
:101AE000028B0A430283704721B1828A42F02002AE
:101AF000828204E0828A4FF6DF731A408282704746
:101B000021B1828A42F01002828204E0828A4FF67A
:101B1000EF731A408282704721B1828A42F0080234
:101B2000828204E0828A4FF6F7731A4082827047FD
:101B300021B1828942F40042828103E08289C2F3AA
:101B40000E028281704721B1828A42F40062828251
:101B500004E0828A4FF2FF731A4082827047828AC1
:101B60004FF6FB731A408282828A0A438282704750
:101B700021B1828A42F00202828204E0828A4FF618
:101B8000FD731A408282704702460020B1F5007F43
:101B900000D100BF13880B400BB1012000E00020F2
:101BA000704701F40072B2F5007F00D100BFCA4354
:101BB0000280704770B502460024002300250020F3
:101BC00040F66A16B14200D100BFC1F3421501F0E0
:101BD0001F03012606FA03F3012D02D19689334033
:101BE00006E0022D02D1168A334001E0968A334086
:101BF0000C12012606FA04F41688344013B10CB115
:101C0000012000E0002070BD10B50022002340F646
:101C10006A14A14200D100BF0A1201249440A3B269
:101C2000DC43048010BD0000003801400044004047
:101C300000480040004C00400050004030B943F2E2
:101C4000DB028100A1F1C0410A6005E043F2D2024B
:101C50008100A1F1C0410A606FF07042411C89000F
:101C6000A1F1C0410A608100A1F1C041C1F8042185
:101C7000704710280AD118214FF0204211664021E8
:101C800051664FF0FC319166D16610E01821F74A99
:101C9000116040214FF02042C2F884104FF0FC3117
:101CA000F24A083211604FF02042C2F88C1070479F
:101CB0001820EE492031086000200906C1F8A40070
:101CC0004FF0FC30E94928310860091D0860091D02
:101CD00008607047D0E901121143C26811430269DC
:101CE00011434269114382691143C2691143026A77
:101CF0001143426A1143826A1143C26A1143026B63
:101D0000114302689200A2F1C04211608168082963
:101D10000BD101688900A1F1C041096841F040027E
:101D200001688900A1F1C0410A60416B0968426BFA
:101D3000526841EA0211426B926841EA0221426B09
:101D4000928941EA0241426B128A41EA0251426B96
:101D5000127D41EA0261426B926911430268521C92
:101D60009200A2F1C0421160C16AB1F5804F1BD14F
:101D7000816B0968826B526841EA0211826B92683A
:101D800041EA0221826B128A41EA0251826B127D82
:101D900041EA0261826B9269114302689200A2F1EA
:101DA000C042C2F8041107E06FF070420168890078
:101DB000A1F1C041C1F80421704730B500210022D3
:101DC0000023446844F0080485682C43C5682C430C
:101DD00005692C43456944EA4524856944EA45314F
:101DE000C4692468C5696D6844EA0524C5692D89FC
:101DF00044EA0544C5692D7B44EA0562046A246807
:101E0000056A6D6844EA0524056A2D8944EA05449B
:101E1000056A2D7B44EA05630468102C05D14FF058
:101E200020442166A266E36608E0904C21604FF0F2
:101E30002044C4F888208D4C0C34236030BD0168E8
:101E400041F01001426841EA4221826841EA423190
:101E5000864A20321160C1680968C268526841EA46
:101E60000221C268128941EA0241C268127B41EA3A
:101E700002617E4A2832116001690968026952686C
:101E800041EA02210269128941EA02410269127B98
:101E900041EA0261754A2C32116041690968426960
:101EA000526841EA02214269128941EA02414269CB
:101EB000127B41EA02614FF02042C2F8B010704735
:101EC000002101600221416000218160C160016147
:101ED00041618161C16101624FF4805141624900F9
:101EE00081620021C16201630F21426B1160426B6C
:101EF0005160FF21426B91600F21426BD160426BB8
:101F00001161426B51610021426B91610F21826B23
:101F10001160826B5160FF21826B91600F21826B97
:101F2000D160826B1161826B51610021826B916182
:101F3000704710210160002141608160C160016132
:101F400041618161FC21C2691160C2695160C2694D
:101F50009160C269D160026A1160026A5160026ACE
:101F60009160026AD1607047002101604160816028
:101F7000FC21C2681160C2685160C2689160C26889
:101F8000D160026911600269516002699160026961
:101F9000D160426911604269516042699160426951
:101FA000D160704751B18200A2F1C042126842F084
:101FB00001038200A2F1C042136009E08200A2F195
:101FC000C04212682A4B1A408300A3F1C0431A6032
:101FD000704799B1102808D14FF02042126E42F09C
:101FE00004024FF020431A661DE0204A126842F0B6
:101FF00004024FF02043C3F8802014E0102809D1D8
:102000004FF02042126E1A4BDB1E1A404FF0204355
:102010001A6608E0154A1268154BDB1E1A404FF08D
:102020002043C3F88020704748B110492031096827
:1020300041F004014FF02042C2F8A01009E00B4922
:10204000203109680A4AD21E11404FF02042C2F8DE
:10205000A0107047B9B110280CD14FF02042126E79
:1020600042F040024FF020431A661FE0800000A0BB
:10207000FEFF0F00724A126842F040024FF0204308
:10208000C3F8802012E0102808D14FF02042126ED1
:102090006C4B1A404FF020431A6607E0684A1268FA
:1020A000684B1A404FF02043C3F880207047014628
:1020B0000020102903D14FF02042506F02E0604A07
:1020C00014321068704710B5F2B1102807D14FF0E4
:1020D00020435B6E0B434FF02044636632E0B0F563
:1020E000807F08D1564B1B1D1B680B434FF02044CB
:1020F000C4F8843026E0524B24331B680B434FF066
:102100002044C4F8A4301DE0102807D14FF020432C
:102110005B6E8B434FF02044636613E0B0F5807F25
:1021200008D1474B1B1D1B688B434FF02044C4F85C
:10213000843007E0424B24331B688B434FF020442C
:10214000C4F8A43010BD10B5024600200023102AA8
:1021500003D14FF02044636E09E0B2F5807F03D1D4
:10216000374C241D236802E0354C2434236803EAED
:1021700001040CB1012000E0002010BD102807D19F
:102180004FF02042526E8A434FF020435A6613E0CC
:10219000B0F5807F08D12A4A121D12688A434FF099
:1021A0002043C3F8842007E0254A243212688A437A
:1021B0004FF02043C3F8A420704770B502460020BA
:1021C000002300240025102A03D14FF02046736E0F
:1021D00009E0B2F5807F03D1194E361D336802E065
:1021E000174E2436336803EA010403EAD10514B11B
:1021F0000DB1012000E0002070BD102808D14FF083
:102200002042526E22EAD1024FF020435A6615E076
:10221000B0F5807F09D10A4A121D126822EAD10264
:102220004FF02043C3F8842008E0054A24321268A6
:1022300022EAD1024FF02043C3F8A42070470000E7
:10224000800000A0BFFF0F00002044490860091D66
:102250000860091D0860091D086041483F491431A4
:102260000860704700213D498279002A3AD00A4629
:10227000126803689A430B461A600A1D12680368C5
:102280009A430B1D1A60027911440A6803681A43C5
:102290000A60324A0832126803689A432F4B0833A7
:1022A0001A601A1D126803689A432C4B0C331A608B
:1022B0004279102A0ED11A1F126803681A43274B5D
:1022C00008331A601A1D126803681A43234B0C3333
:1022D0001A600DE02149427911440A6803681A43E3
:1022E0000A6005E0027911440A6803689A430A60AB
:1022F00070470021016001710C2141710021817141
:1023000070471649103109680143144A10321160B0
:10231000704701460020114A143212680A400AB17F
:10232000012000E0002070470C491431086070471C
:10233000014600200022094B1B6803EA0102074BFB
:1023400014331B680B4013B10AB1012000E00020D8
:1023500070470249143108607047000000040140D2
:10236000FFFF0F0010B50446FE48844208D101214A
:10237000C014FFF715FA0021E014FFF711FAC4E0CA
:10238000B4F1804F08D101210846FFF716FA002169
:102390000120FFF712FAB8E0F348844208D1012186
:1023A0000220FFF70AFA00210220FFF706FAACE04C
:1023B000EE48844208D101210420FFF7FEF90021F4
:1023C0000420FFF7FAF9A0E0E948844208D101218E
:1023D0000820FFF7F2F900210820FFF7EEF994E05A
:1023E000E448844208D101211020FFF7E6F90021DA
:1023F0001020FFF7E2F988E0DF48844208D101218C
:102400002020FFF7DAF900212020FFF7D6F97CE041
:10241000DA48844208D101214014FFF7C1F90021B4
:102420006014FFF7BDF970E0D548844209D101215D
:10243000C804FFF7B5F900214FF40020FFF7B0F909
:1024400063E0D048844209D101210805FFF7A8F9CB
:1024500000214FF48010FFF7A3F956E0CA488442E8
:1024600009D101214805FFF79BF900214FF4001025
:10247000FFF796F949E0C548844208D10121402080
:10248000FFF79BF900214020FFF797F93DE0C04896
:10249000844208D101218020FFF78FF9002180209C
:1024A000FFF78BF931E0BB48844208D10121801548
:1024B000FFF783F90021A015FFF77FF925E0B64863
:1024C000844209D101210804FFF76AF900214FF481
:1024D0008030FFF765F918E0B048844209D1012146
:1024E0004804FFF75DF900214FF40030FFF758F979
:1024F0000BE0AB48844208D101218804FFF750F972
:1025000000214FF48020FFF74BF910BD0022028814
:10251000944B98420ED0994B98420BD0B0F1804F1B
:1025200008D0914B984205D0904B984202D0904BE6
:10253000984204D14FF68F731A404B881A438D4B43
:10254000984207D08C4B984204D04FF6FF431A4074
:10255000CB881A4302808B8883850B880385814B47
:1025600098420BD0854B984208D08B4B984205D0AF
:102570008A4B984202D08A4B984201D10B7A03864B
:1025800001238382704770B5002400220023058C4C
:102590004FF6FE7635400584028C8388048B4FF617
:1025A0008F752C40B51E2C400D882C43751E2A407B
:1025B0000D892A434D882A436A4DA8420BD06F4D9E
:1025C000A84208D0744DA84205D0744DA84202D04C
:1025D000734DA84213D14FF6F7752A404D892A430F
:1025E0004FF6FB752A408D882A434FF6FF652B4036
:1025F0004FF6FF552B408D892B43CD892B4383808C
:102600000483CD888586028470BD70B500240022C5
:102610000023058C4FF6EF7635400584028C8388C5
:10262000048B48F6FF752C404FF6FF452C400D8873
:102630004FF6FF7606EA05252C434FF6DF752A4054
:102640000D8906EA05152A434D8806EA05152A4331
:10265000444DA84202D0494DA8421DD14FF67F7586
:102660002A404D894FF6FF7606EA05152A434FF6B4
:10267000BF752A408D8806EA05152A434FF6FF35B7
:102680002B404FF2FF752B408D8906EA85052B43C1
:10269000CD8906EA85052B4383800483CD88058791
:1026A000028470BD70B5002400220023058C4FF613
:1026B000FF6635400584028C8388848B4FF68F75C6
:1026C0002C404FF6FC752C400D882C434FF6FF55DF
:1026D0002A400D894FF6FF7606EA05252A434D88E4
:1026E00006EA05252A431F4DA84202D0234DA842E1
:1026F0001DD14FF2FF752A404D894FF6FF7606EA4D
:1027000005252A434FF6FF352A408D8806EA052520
:102710002A434EF6FF752B404DF6FF752B408D89F1
:1027200006EA05152B43CD8906EA05152B43838060
:102730008483CD888587028470BD70B50022002314
:102740000024058C4EF6FF7635400584038C848882
:10275000828B48F6FF752A404FF6FF452A400D88C8
:1027600020E00000002C0140000400400008004070
:10277000000C0040001000400014004000340140F4
:10278000004C01400050014000540140001800403E
:10279000001C004000200040004001400044014077
:1027A000004801404FF6FF7606EA05252A434DF61C
:1027B000FF752B400D8906EA05352B434D8806EA47
:1027C00005352B43FA4DA84202D0FA4DA84208D154
:1027D0004BF6FF752C408D894FF6FF7606EA85157E
:1027E0002C4384808283CD88A0F84050038470BD40
:1027F000828B4FF2FF331A408283828B4FF6FF7336
:1028000003EA01231A4382837047F0B50C4615464C
:10281000002200210026078C4EF6FF7C07EA0C07F9
:102820000784828B018C4FF6FF7707EA043640F667
:10283000FF473A404FF6FF7707EA05273A434FF63E
:10284000FF7707EA03373A43D94FB8420ED0D94F42
:10285000B8420BD0B0F1804F08D0D74FB84205D066
:10286000D64FB84202D0D64FB84206D14DF6FF77C8
:10287000394046F48057394305E047F6FF57394061
:1028800044F48057394382830184F0BD828B4FF634
:10289000F3731A408283828B0A4382837047F0B5B8
:1028A0000C461546002200210026078C4FF6FF6CCF
:1028B00007EA0C070784828B018C4FF6FF7707EA43
:1028C00004264FF60C773A404FF6FF7707EA0317D6
:1028D0002F433A43B64FB8420ED0B64FB8420BD052
:1028E000B0F1804F08D0B44FB84205D0B34FB842D2
:1028F00002D0B34FB84206D14FF6FF57394046F4E5
:102900008077394305E04FF2FF57394044F4807730
:10291000394382830184F0BD028B4FF2FF331A40AA
:102920000283028B4FF6FF7303EA01231A430283EB
:102930007047F0B50C461546002200210026078C92
:102940004FF6EF7C07EA0C070784028B018C4FF6E9
:10295000FF7707EA041640F6FF473A404FF6FF7745
:1029600007EA03373A434FF6FF7707EA05273A436A
:102970008F4FB8420ED08F4FB8420BD0B0F1804F7E
:1029800008D08D4FB84205D08C4FB84202D08C4F42
:10299000B84206D14FF6DF77394046F01007394389
:1029A00005E04FF65F77394044F010073943028362
:1029B0000184F0BD028B4FF6F3731A400283028B41
:1029C0000A4302837047F0B50C46154600220021E9
:1029D000068C4FF6FE773E400684028B018C4FF644
:1029E0000C7632407E1C06EA03162E433243704EAC
:1029F000B0420ED06F4EB0420BD0B0F1804F08D035
:102A00006D4EB04205D06D4EB04202D06C4EB04219
:102A100006D14FF6FD76314044F00106314305E022
:102A20004FF6F576314044F00106314302830184CC
:102A3000F0BD70B505460C465D4885420ED05D4838
:102A400085420BD0B5F1804F08D05B48854205D058
:102A50005A48854202D05A48854200D100E000BF62
:102A6000208850B92389A28861882846FFF7ABFFE8
:102A7000E1882846FFF79EFF25E0208804280AD138
:102A80002389A28861882846FFF753FFE1882846FA
:102A9000FFF742FF17E0208808280AD12389A2887F
:102AA00061882846FFF7FBFEE1882846FFF7EEFE27
:102AB00009E02389A28861882846FFF7A6FEE188FD
:102AC0002846FFF795FE70BD2DE9F04105460C46FE
:102AD00000260127608808B9022600E00026A088A9
:102AE000012801D1022700E001272088A0B923890D
:102AF000A28861882846FFF766FFE1882846FFF72D
:102B000059FF23893A4631462846FFF712FFE188EC
:102B10002846FFF701FF13E02389A2886188284631
:102B2000FFF707FFE1882846FFF7F6FE23893A46BC
:102B300031462846FFF747FFE1882846FFF73AFF6E
:102B4000BDE8F0810A884B881A438B881A43CB88EA
:102B50001A430B891A434B891A438B891A43A0F8ED
:102B6000442070474FF6FF71818000210180C180B1
:102B70004180017270470021018041808180C180C5
:102B8000018141818181C1817047002101804180A3
:102B9000012181800021C1800181704700210180D5
:102BA00041808180C1800181418181817047000025
:102BB000002C0140003401400004004000080040A7
:102BC000000C004021B1028842F00102028004E0C2
:102BD00002884FF6FE731A400280704731B1B0F898
:102BE000442042F40042A0F8442005E0B0F844201C
:102BF000C2F30E02A0F8442070471AB183890B4338
:102C0000838102E083898B4383817047818270478F
:102C100041EA0203A0F8483070471AB183890B4398
:102C2000838102E083898B438381704701894FF65A
:102C3000F8721140018170470A46002101894FF660
:102C40008F73194011430181704730B504460D461A
:102C500029462046FFF7F0FF208940F00700208139
:102C600030BD2DE9F04104460D4616461F46602D45
:102C700006D13B46012231462046FFF75AFE05E0C9
:102C80003B46012231462046FFF79DFE294620465D
:102C9000FFF7D2FF208940F007002081BDE8F081D6
:102CA00030B50C4600210189C9B24FF6FF7505EA1F
:102CB0000325154325432943018130BD2DE9F0410A
:102CC00005460E4617469846002443463A46314686
:102CD0002846FFF7E5FF2C894FF6F870044044F0D2
:102CE00007044FF68F70044044F070042C81BDE857
:102CF000F081F0B504460D4616461F463B46324667
:102D000029462046FFF7CCFF208940F480402081EF
:102D1000F0BD0185828270470A46002101884FF686
:102D20008F731940114301807047F0B50C4615466A
:102D30001E460021002200230189028B038C4FF6DE
:102D4000F877394021434FF6FC473A4040F20117EB
:102D50003A434FF6DD773B404FF6FF7707EA061719
:102D60002F433B43018102830384F0BD0A460021C7
:102D7000018B4FF68F7319401143018370470A4648
:102D80000021018B48F6FF7319404FF6FF7303EAE9
:102D900002231943018370470A460021818B4FF6B5
:102DA0008F7319401143818370470A460021818B3C
:102DB00048F6FF7319404FF6FF7303EA02231943E5
:102DC0008183704721B1028842F08002028004E0D2
:102DD00002884FF67F731A400280704721B18288C3
:102DE00042F00402828004E082884FF6FB731A40AE
:102DF0008280704721B1828842F00802828004E01C
:102E000082884FF6F7731A408280704721B182881A
:102E100042F00102828004E082884FF6FE731A407D
:102E2000828070470A460021018B4FF6F7731940E4
:102E30001143018370470A460021018B4FF2FF7353
:102E400019404FF6FF7303EA0223194301837047C9
:102E50000A460021818B4FF6F77319401143818395
:102E600070470A460021818B4FF2FF7319404FF6DD
:102E7000FF7303EA02231943818370470A46002146
:102E8000018B4FF6FB7319401143018370470A46CB
:102E90000021018B4FF6FF3319404FF6FF7303EA11
:102EA00002231943018370470A460021818B4FF6A4
:102EB000FB7319401143818370470A460021818BBF
:102EC0004FF6FF3319404FF6FF7303EA022319430D
:102ED000818370470A460021018B4FF67F731940AA
:102EE0001143018370470A460021018BC1F30E0193
:102EF0004FF6FF7303EA02231943018370470A4622
:102F00000021818B4FF67F731940114381837047F5
:102F10000A460021818BC1F30E014FF6FF7303EACD
:102F200002231943818370470A460021018C4FF622
:102F3000FD7319401143018470470A460021018C3A
:102F40004FF6F77319401143018470470A46002178
:102F5000018C4FF6DF7319404FF6FF7303EA02133B
:102F60001943018470470A460021018C4FF67F7394
:102F700019404FF6FF7303EA0213194301847047A7
:102F80000A460021018C4FF6FF5319404FF6FF739C
:102F900003EA02231943018470470A460021018C89
:102FA0004FF2FF7319404FF6FF7303EA02231943F0
:102FB000018470470A460021018C4DF6FF731940C9
:102FC0004FF6FF7303EA023319430184704730B5AB
:102FD000002301248C40A3B2048C9C430484048C01
:102FE00002FA01F5ADB22C43048430BD30B50023A4
:102FF00004248C40A3B2048C9C430484048C02FA05
:1030000001F5ADB22C43048430BD70B503460020F9
:1030100000241846183001258D40ACB21D8CA54304
:103020001D8409B1082909D100EB6100056825F06C
:10303000700505600568154305600EE00D1FC5F3BA
:103040004E052844056825F4E045056005684FF6FF
:10305000FF7606EA02263543056070BD21B102887D
:1030600042F00202028004E002884FF6FD731A402B
:103070000280704721B1028842F00402028004E01D
:1030800002884FF6FB731A400280704721B1828894
:1030900042F08002828004E082884FF67F731A40FB
:1030A0008280704702884FF6F7731A4002800288C8
:1030B0000A430280704782884FF68F731A408280DD
:1030C00082880A438280704702894FF6F8731A405B
:1030D000028102890A430281704702894FF67F7399
:1030E0001A40028102890A43028170478184704735
:1030F0008185704781867047018770478187704757
:10310000A0F84010704702884FF6FF431A40028033
:1031100002880A43028070470146888E7047014644
:10312000088F70470146888F70470146B1F840000C
:1031300070470146888C70470146088D70470246EB
:103140000020138A0B400BB1012000E000207047E3
:10315000CA430282704730B5024600200023002493
:10316000158A05EA0103958905EA010413B10CB13A
:10317000012000E0002030BDCA43028270470000F9
:1031800029B1504A128802434E4B1A8004E04D4A3E
:10319000128882434B4B1A8070474A48001D0088B2
:1031A00040F010004749091D088070474548001D40
:1031B00000884FF6EF7108404249091D08807047AA
:1031C000002140481C300188001F008841EA00406F
:1031D000704700B50246FFF7E0FF100C394918317F
:1031E0000880091D0A80FFF7E1FF00BD00B5024617
:1031F000FFF7D3FFC2F30340324908310880091DAD
:103200000A80FFF7D3FF00BD00B50246FFF7C5FFF8
:10321000100C2C4920310880091D0A80FFF7C6FFD9
:1032200000BD00202749103109880907080B2549EE
:10323000143109880843704700BF2248001D0088E8
:1032400000F020000028F8D070471E48001D0088BC
:103250004FF6F77108401B49091D088000BF194847
:10326000001D008800F008000028F8D070470146D3
:103270000020144A121D12880A400AB1012000E001
:10328000002070470F49091D098881430D4A121D0E
:1032900011807047014600200A4A121D12880A4018
:1032A000D0B2084A12880A4012B108B1012000E0E9
:1032B000002070470349091D09888143014A121DF6
:1032C000118070470028004010B50120FEF782FAF7
:1032D0000020FEF77FFA10BD2A490860704729498F
:1032E000091F08607047274984310860704701460C
:1032F0000020254A10884FF67F4210400843224A9A
:1033000010807047014600201F4A10884FF68072D7
:10331000104008431C4A1080704708B500220092F4
:10332000194A2C3A0092009A02440092009A1160C5
:1033300008BD08B501460020009013482C380090C5
:103340000098084400900098008808BD0D489C3003
:103350000068C0B270470C480830008840F0010097
:1033600009490831088070470648A0300068C0B29B
:10337000704705480830008840F0020002490831D3
:103380000880704704860D422C6C004010B5012166
:103390000807FEF712FA00214FF08050FEF70DFAF1
:1033A00010BD2A49086270472849086170470146E4
:1033B0000020274A106820F0E000084310607047A2
:1033C0002249A0310860704710B502460020204B0A
:1033D000186820F00300104318601E4B1B6843F070
:1033E00004031C4C2360012901D130BF00E020BF41
:1033F000184B1B6823F00403164C236010BD1448BF
:10340000006840F00400124908600846006840F077
:10341000020008600F48006840F004000D49086091
:1034200000BF00BF30BF704701460020084A526805
:103430000A400AB1012000E00020704704490968F1
:1034400041EA8001024A11607047000000000E420C
:103450000070004010ED00E010B50446FA488442C8
:1034600008D101214015FEF79BF900216015FEF7F8
:1034700097F917E0F548844208D101210015FEF7BD
:103480008FF900212015FEF78BF90BE0F0488442FC
:1034900008D10121C803FEF783F900214FF4004051
:1034A000FEF77EF910BD30B50246002000235068BB
:1034B000E84C20400D790C6844EA05242043506014
:1034C0009068E54C2040D1E902542C434D7944EA00
:1034D000450420439060D06A20F470000C7C641E88
:1034E000E4B2234340EA0350D06230BD00210160C2
:1034F000017141718160C16001210174704721B186
:10350000826842F00102826003E0826822F00102D8
:103510008260704721B1826842F48072826003E069
:10352000826822F480728260704710B50023CBB2AB
:103530001AB144681C43446002E044689C43446000
:1035400010BD816841F0080181607047014600208C
:103550008A6802F008020AB1012000E000207047EA
:10356000816841F0040181607047014600208A684B
:1035700002F004020AB1012000E00020704721B1EE
:10358000826842F4A002826003E0826822F4A00212
:1035900082607047014600208A6802F480020AB106
:1035A000012000E00020704710B50A4600210023EA
:1035B000416821F46041531E41EA4331416010BD2E
:1035C00021B1426842F40062426003E0426822F4A2
:1035D000006242607047F0B504460D4600200021AD
:1035E000092D11DDE068A5F10A0606EB460707265E
:1035F00006FA07F18843A5F10A0606EB460603FA28
:1036000006F10843E0600CE0206905EB450707265A
:1036100006FA07F1884305EB450603FA06F108436D
:103620002061072A0FDA606B561E06EB86071F26FD
:1036300006FA07F18843561E06EB860605FA06F1E0
:103640000843606322E00D2A0FDA206BD61F06EBD9
:1036500086071F2606FA07F18843D61F06EB860663
:1036600005FA06F10843206310E0E06AA2F10D06B6
:1036700006EB86071F2606FA07F18843A2F10D061E
:1036800006EB860605FA06F10843E062F0BD21B1BB
:10369000826842F48012826003E0826822F4801221
:1036A000826070470146C86C80B2704766484C30F3
:1036B0000068704721B1426842F48062426003E0D2
:1036C000426822F480624260704721B1426842F44D
:1036D0008052426003E0426822F4805242607047A8
:1036E0000A460021816821F4E0411143816070475E
:1036F00021B1826842F40042826003E0826822F4D1
:1037000000428260704721B1826842F402128260F6
:1037100003E0826822F402128260704701460020B2
:103720008A6802F400120AB1012000E0002070470C
:10373000F0B504461546002000220026092911DDB7
:10374000E068A1F10A0707EB470C072707FA0CF21C
:103750009043A1F10A0707EB470703FA07F210436A
:10376000E0600CE0206901EB410C072707FA0CF23E
:10377000904301EB410703FA07F210432061A06B6D
:10378000C0F30156EF1C06F1010CA7EB0C0707EB89
:10379000870C1F2707FA0CF29043EF1C06F1010C6F
:1037A000A7EB0C0707EB870701FA07F21043A063AA
:1037B000F0BD10B50A4600210023816B21F44011B1
:1037C000531E41EA0351816310BD08B500230093E5
:1037D0000090009B0B440093009B1A6008BD08B545
:1037E000024600200090009201F12800009B18443E
:1037F00000900098006880B208BD0A460021416828
:10380000164B194011434160704741628262704714
:103810000A460021416821F01F01114341607047B1
:1038200040B109490831096841F40001064A0832EB
:10383000116007E004490831096821F40001024AD7
:103840000832116070470000002401400028014048
:10385000003C0140FFFEF0FFFDF7F1FFFFFD3FFFE1
:103860000246002013680B400BB1012000E000204D
:103870007047CA430260704770B5024600200023BB
:1038800000240B125568CEB205EA060415681D40E7
:1038900015B10CB1012000E0002070BD00220A1219
:1038A000D34303607047000010B50446BE4884420D
:1038B00008D101218014FDF773FF0021A014FDF74A
:1038C0006FFF16E0B948844208D101210014FDF7CA
:1038D00074FF00212014FDF770FF0AE0B448844211
:1038E00007D10121C013FDF768FF0021E013FDF7A8
:1038F00064FF10BD10B50022028802F441520B880B
:103900004C8823438C882343CC8823430C8923434E
:103910004C8923438C892343CC8923431A43028057
:10392000838B4FF2FF74234083830B8A038210BD85
:103930002DE9F04F85B005460C464FF000090227EF
:103940004FF000084FF0010B0026B246A88B4FF253
:1039500040010840A88302202884B5F81C90A06884
:10396000022801D100BF38E0A08810B94FF0010B48
:1039700001E04FF0020B8D48854200D100E000BF0E
:103980006846FDF786FEDDF800A0E088B0F5007F10
:103990000AD14FEA1A2000EB80004000A168B0FB7A
:1039A000F1F0401D86B20BE04FEA4B10BAFBF0F08D
:1039B00000EB80004000A168B0FBF1F0401D86B232
:1039C0000A20B6FBF0F606F00108A6EB0800C0F3EB
:1039D0004F074FF6FF7000EA0828022F01DBFF2F88
:1039E00002DD02274FF00008E08840EA0800384373
:1039F0002884A088A1890843618808432188084356
:103A000040F4006040EA0909A5F81C9005B0BDE843
:103A1000F08F0021018041808180C180018141813E
:103A20008181C1810721018270470021018041808D
:103A30008180C1800221816000218181704721B194
:103A4000028842F04002028004E002884FF6BF7311
:103A50001A400280704721B1828B42F480628283D7
:103A600004E0828B4FF6FF331A408283704730B5F3
:103A7000002400230C110125A540ABB21AB18588A2
:103A80001D43858002E085889D43858030BD1AB145
:103A900083880B43838002E083888B438380704755
:103AA000818170470146888970474FF6FF629142D5
:103AB00004D0028842F48072028004E002884FF64B
:103AC000FF631A400280704721B1828842F00402ED
:103AD000828004E082884FF6FB731A408280704730
:103AE00002884FF2FF731A40028002880A43028064
:103AF0007047018841F480510180704721B10288EC
:103B000042F40052028004E002884DF6FF731A402E
:103B10000280704702460020012901D0108B00E08E
:103B2000908A70470146088A7047B1F5804F04D1EA
:103B3000028842F48042028004E002884BF6FF7360
:103B40001A40028070470246002013890B400BB1D7
:103B5000012000E000207047CA4302817047F0B5A1
:103B60000246002000240023002501F00F07012653
:103B7000BE40B4B20B1101269E40B3B2968806EA4D
:103B800003051689264016B10DB1012000E0002082
:103B9000F0BD10B5002201F00F040123A3409AB23A
:103BA000D343038110BD00000030014000380040C5
:103BB000003C004000206F49086048608860C86091
:103BC00048628862C8626C4888630020C863704796
:103BD0000021684A516847F6FF629143027D83687D
:103BE0001A4343681A43C3681A4303681A430369B4
:103BF0001A4311435F4A516070470021017501600B
:103C000041608160C160016170475C490860704734
:103C10005849096821F00301564A116011460968A4
:103C20000143116070475348006800F0030070477B
:103C300029B1504AD26B02434E4BDA6304E04D4A3D
:103C4000D26B82434B4BDA6370474D490860704733
:103C50000021484B02689A601A46D1686FF30A0146
:103C6000D0E901231A43C3681A4303691A43114375
:103C7000404AD16070470021016041608160C160AD
:103C8000016170473B480069C0B2704708B5014602
:103C900000200090374814300844009000980068D5
:103CA00008BD0021334B02685A6242689A621A4684
:103CB000D16A21F0F701D0E902231A4303691A43BC
:103CC00043691A4311432B4AD16270474FF0FF31C9
:103CD0000160002141608160C16001614161704704
:103CE0002448006B704723488030006870472149A2
:103CF0008031086070471F48806C7047204914313C
:103D0000086070471E491831086070471C491C3113
:103D1000086070471A4920310860704719490860E7
:103D200070471849091D0860704701218143154AF1
:103D300008321160704713490C3108607047014622
:103D400000200C4A526B0A400AB1012000E000201A
:103D5000704708498863704701460020054A526B46
:103D60000A400AB1012000E0002070470149886341
:103D70007047000000800140FF07C000A0003042F3
:103D80008C053042AC013042FE4908807047FD4945
:103D9000891C08807047FB48801C00887047F94ADE
:103DA0001080921C1180704710B504462046FFF722
:103DB000EBFF0520FCF7A2FAFFF7EDFF10BDF2487C
:103DC0000089F04908807047EE49891C08807047D7
:103DD00030B5014601F01F04C1F34513CA0AE502DC
:103DE00005EB43151544A8B230BD00BF0100A0F19A
:103DF0000102D0B2FAD1704710B503460C46E24832
:103E0000808849F24131884205D0DF48808845F2F8
:103E10001031884214D1DC494889FFF7B5FF1812E8
:103E2000FFF7B5FFD8B2FFF7B2FFD7498889FFF790
:103E3000ABFF2012FFF7ABFFE0B2FFF7A8FF5DE09A
:103E4000D148808846F6040188421DD1CE48807949
:103E5000012804D1CC480088401EC01A83B2CA4948
:103E60004889FFF791FF1812FFF791FFD8B2FFF7CB
:103E70008EFFC5498889FFF787FF2012FFF787FF6C
:103E8000E0B2FFF784FF39E0BF48808845F2105167
:103E9000884220D1BC494889FFF776FF1812FFF706
:103EA00076FFB9494989491C88B2FFF76DFFD8B23E
:103EB000FFF76DFFB4498889FFF766FF2012FFF70F
:103EC00066FFB1498989491C88B2FFF75DFFE0B2FE
:103ED000FFF75DFF12E0AC488079012804D1AA48C1
:103EE0000088401EC01A83B2A74948891946FFF7C7
:103EF00056FFA54988892146FFF751FF10BD2DE9DE
:103F0000F04105460E4600240027A0469E48008842
:103F1000A84203DD9C484088B04202DC0020BDE896
:103F2000F08131462846FFF767FF9748808849F2BD
:103F3000413188420BD09448808846F6040188427B
:103F400005D09148808845F21031884203D12E2057
:103F5000FFF71AFF0DE08C48808845F21051884227
:103F600004D14FF43850FFF70FFF02E02220FFF793
:103F70000BFF8548808849F22031884202D1022017
:103F8000FFF733FF7F48801C008800B10024022027
:103F9000FFF72BFF7B48801C04887B48808849F210
:103FA000413188420BD07848808845F210318842F0
:103FB00005D07548808845F2105188420CD1022006
:103FC000FFF713FF6F48801CB0F80080E7B24FF690
:103FD000FF7000EA072708E06B48808846F6040176
:103FE000884202D16748801C04886748808849F26B
:103FF0002531884216D06448808844F23551884281
:1040000010D061488088091F88420BD05E488088A4
:1040100048F68911884205D05B4880884BF20551EB
:10402000884201D120467AE75748808849F24131D9
:1040300088420BD05448808845F21031884205D020
:104040005148808845F21051884207D1E012C002E1
:10405000B91240EA411040EAE82060E72046FFF745
:10406000B7FE5CE700B54848808849F24131884294
:104070000BD04548808846F60401884205D0424866
:10408000808845F21031884203D12920FFF77CFE59
:104090000FE03D48808845F21051884204D14FF42A
:1040A0002450FFF771FE04E040F273110720FFF780
:1040B00076FE00BD00B53448808849F2413188421F
:1040C0000BD03148808846F60401884205D02E483E
:1040D000808845F21031884203D12820FFF754FE32
:1040E0000EE02948808845F21051884204D14FF4EF
:1040F0002050FFF749FE03E000210720FFF74FFEA5
:1041000000BD70B50446002300261F4880790128B1
:104110001ED11D48808846F60401884218D0082C1C
:1041200015D2DFE804F00406080A0C0E101206246B
:104130000DE007240BE0042409E0052407E0012436
:1041400005E0002403E0032401E0022400BF00BFD7
:104150000D48808849F24131884211D00A48808850
:1041600046F6040188420BD00748808845F210319A
:10417000884205D00448808845F2105188427CD19D
:10418000082C03E0FE070060820500201CD2DFE857
:1041900004F00406090C0F12151800BF14E043F0D8
:1041A000800311E043F040030EE043F0C0030BE056
:1041B00043F0200308E043F0600305E043F0A00370
:1041C00002E043F0E00300BF00BFFC48808845F2F6
:1041D0001051884202D14FF4585600E03626F74875
:1041E000808845F21031884207D0F448808845F233
:1041F0001051884201D043F00803F048808846F609
:104200000401884201D143F0020319463046FFF70A
:10421000C6FD03F0200018B9E848807901280DD1C7
:10422000E6480088E5494988884214DAE348058869
:104230004088E2490880084645800CE0DF48008855
:10424000DE494988884206DDDC4805884088DB492C
:10425000088008464580D948808845F21051884238
:1042600054D1D6494889FFF78FFD0020FFF78FFD15
:10427000D2494989491C88B200E076E0FFF784FD05
:104280000020FFF784FDCD494989891C88B2FFF7DA
:104290007BFDCA490988491EC1F30F20FFF777FD4E
:1042A000C6494989C91C88B2FFF76EFDC349097820
:1042B000491EC8B2FFF76BFDC0498889FFF764FD4E
:1042C0000020FFF764FDBD498989491C88B2FFF7CA
:1042D0005BFD0020FFF75BFDB8498989891C88B226
:1042E000FFF752FDB5494988491EC1F30F20FFF77A
:1042F0004EFDB2498989C91C88B2FFF745FDAF4917
:104300008978491EC8B2FFF742FD60E0AB49488991
:10431000FFF73AFD0020FFF73AFD0020FFF737FDD9
:10432000A6490988491EC1F30F20FFF730FDA349B4
:104330000978491EC8B2FFF72AFDA0498889FFF70E
:1043400023FD0020FFF723FD0020FFF720FD9B4900
:104350004988491EC1F30F20FFF719FD9749897855
:10436000491EC8B2FFF713FD31E0082C1CD2DFE86C
:1043700004F004070A0D0F12151843F0300313E080
:1043800043F0100310E043F020030DE000BF0BE00A
:1043900043F0380308E043F0280305E043F0180336
:1043A00002E043F0080300BF00BF8448808848F65D
:1043B0008911884204D1112646F24000034302E0ED
:1043C000032643F4805319463046FFF7E8FC70BDDE
:1043D00030B504460D4629462046FFF70DFDFFF790
:1043E000EEFC774800887749088030BD30B5034639
:1043F0000C4615467148808849F24131884205D003
:104400006E48808845F21031884214D16B49488942
:10441000FFF7BAFC1812FFF7BAFCD8B2FFF7B7FCE7
:1044200066498889FFF7B0FC2012FFF7B0FCE0B2C4
:10443000FFF7ADFC5DE06148808845F2105188428D
:1044400020D15E494889FFF79FFC1812FFF79FFCB7
:104450005A494989491C88B2FFF796FCD8B2FFF740
:1044600096FC56498889FFF78FFC2012FFF78FFCD6
:1044700052498989491C88B2FFF786FCE0B2FFF7F0
:1044800086FC36E04D48808846F6040188421DD1FE
:104490004A488079012804D148480088401EC01A43
:1044A00083B246494889FFF76FFC1812FFF76FFC8B
:1044B000D8B2FFF76CFC41498889FFF765FC2012F0
:1044C000FFF765FCE0B2FFF762FC12E03B48807941
:1044D000012804D139480088401EC01A83B23749E8
:1044E00048891946FFF75BFC344988892146FFF764
:1044F00056FC324800893349891E0880881C058093
:1045000030BD10B50446002C66D12C498871F020CE
:1045100008804FF4A07048800846808849F24131F5
:1045200088420BD02548808846F60401884205D091
:104530002248808845F2103188421AD12C201F4928
:1045400008812A2048812B2088810846808846F6E9
:104550000401884205D01948808845F2103188420C
:1045600006D14FF4A070154908804FF4F0704880D0
:104570009BE01248808848F68911884207D12220A2
:104580000E4908814E2048814F2088818DE00B48DC
:10459000808845F21051884216D14FF430500749B7
:1045A00008814FF4285048814FF42C5088814FF4F3
:1045B000F07008804FF44870488076E08205002053
:1045C00038000020000800602220FE4908812020D9
:1045D00048812120888168E00120FA4988714FF4E0
:1045E000A0700880F02048800846808849F2413158
:1045F000884205D0F348808845F21031884207D1BF
:104600002C20F04908812A2048812B20888139E01C
:10461000EC48808846F60401884207D12C20E949FD
:1046200008812B2048812A2088812BE0E54880885A
:1046300048F68911884207D12220E24908814F209B
:1046400048814E2088811DE0DE48808845F2105167
:10465000884210D14FF43050DA4908814FF4285085
:1046600048814FF42C5088814FF4487008804FF4F3
:10467000F070488006E02220D2490881212048813C
:1046800020208881CF48808846F60401884205D0E2
:10469000CC48808845F21031884206D14FF4F07042
:1046A000C84908804FF4A07048800020FFF729FD1A
:1046B00010BD2DE9FF4F04460D4616461F46A019B2
:1046C000401E86B2E819401E87B2BE48808849F273
:1046D000413188420BD0BB48808845F21031884276
:1046E00005D0B848808846F60401884220D1B549F3
:1046F0004889FFF749FB2012FFF749FBE0B2FFF7BB
:1047000046FB3012FFF743FBF0B2FFF740FBAD4929
:104710008889FFF739FB2812FFF739FBE8B2FFF76A
:1047200036FB3812FFF733FBF8B2FFF730FB91E0AE
:10473000A448808845F21051884244D1A149488953
:10474000FFF722FB2012FFF722FB9E494989491CF3
:1047500088B2FFF719FBE0B2FFF719FB99494989C5
:10476000891C88B2FFF710FB3012FFF710FB954948
:104770004989C91C88B2FFF707FBF0B2FFF707FBB6
:1047800090498889FFF700FB2812FFF700FB8D494D
:104790008989491C88B2FFF7F7FAE8B2FFF7F7FA00
:1047A00088498989891C88B2FFF7EEFA3812FFF729
:1047B000EEFA84498989C91C88B2FFF7E5FAF8B294
:1047C000FFF7E5FA46E07F48807901280ED1A84638
:1047D000B9467C480088801B401E80B20190794811
:1047E0000088001B401E80B2009003E0A046B14646
:1047F000019500977348808848F6891188420DD149
:104800004FF0440A4FF0440B48EA09201FFA80F8A1
:10481000C146452003904620029007E04FF0500A21
:104820004FF0510B522003905320029041465046C6
:10483000FFF7B5FA49465846FFF7B1FA01990398D0
:10484000FFF7ADFA00990298FFF7A9FA294620462A
:10485000FFF7D2FABDE8FF8F70B50446002659482D
:104860000588408845435748808846F604018842B9
:1048700016D154488079012812D1002051498871FD
:104880002A2048812B20888100210846FFF7B4FAAE
:1048900001204C4988712B2048812A20888103E01F
:1048A00000210846FFF7A8FAFFF789FA002602E080
:1048B00045480480761CAE42FAD370BD00B59FB067
:1048C00001210802FCF745FF012140F2E910FCF745
:1048D0004DFF4FF40060ADF8780010208DF87B009C
:1048E00003208DF87A001EA93848FCF783FC4CF2AF
:1048F000B370ADF8780018208DF87B0003208DF898
:104900007A001EA93248FCF775FC4FF68070ADF8AE
:10491000780018208DF87B0003208DF87A001EA9FE
:104920002C48FCF767FC0120ADF8780018208DF8C2
:104930007B0003208DF87A001EA92748FCF75AFC5B
:104940004FF40040ADF8780010208DF87B00032074
:104950008DF87A001EA91D48FCF74CFC00201F4969
:1049600008600A20FBF7EEFC01201D49C1F8BC01DC
:104970000890002009900F200A9000200B900C90C6
:104980000D900E900190029003200390002004905F
:104990000590069007900F901090119010201290A3
:1049A0000020139015901490169017904FF480509B
:1049B0001890002019904FF480401A9000201B900E
:1049C00008A80FE08205002000080060001C0140DC
:1049D000001401400018014000200140BC81234226
:1049E000008023421C9001A81D900FA8FDF772F9CA
:1049F00001210020FDF7D6FA3220FBF7A3FC0121AC
:104A00000020FFF7CCF93220FBF79CFC0020FFF7D9
:104A1000CBF9FE49888008468088FF280ADB0846D3
:104A200080884FF6FF71884204D0F8488088B0F53E
:104A3000134F7CD1D320FFF7A7F9FFF7ACF9FFF7AD
:104A4000AAF9FFF7A8F9F1498880084680884FF64F
:104A5000FF7101EA0020ED498880FFF79CF9EB49DE
:104A600089880843E94988800846808849F24131AD
:104A700088426CD0BF20FFF787F9FFF78CF9FFF76A
:104A80008AF9FFF788F9FFF786F9E0498880084638
:104A900080884FF6FF7101EA0020DC498880FFF72B
:104AA0007AF9DA4989880843D84988800846808895
:104AB00046F6040188424AD0D420FFF765F9FFF793
:104AC0006AF9FFF768F9FFF766F9D0498880084668
:104AD00080884FF6FF7101EA0020CC498880FFF7FB
:104AE0005AF9CA4989880843C84988800846808895
:104AF00045F2103188422AD04FF45A40FFF744F96A
:104B0000FFF749F94FF45B40FFF73EF9FFF743F930
:104B1000BE498880084680884FF6FF7101EA002070
:104B2000BA4988804FF45C40FFF72EF900E00EE0B0
:104B3000FFF731F9B54989880843B44988800846A8
:104B40008088B0F5004F02D145F210508880AF4800
:104B50008188AFA019F0AAF9AC48808849F24131A8
:104B600088427CD1CF20FFF70FF90020FFF70FF923
:104B7000C120FFF70CF93020FFF709F9ED20FFF70E
:104B800003F96420FFF703F90320FFF700F912206F
:104B9000FFF7FDF88120FFF7FAF8E820FFF7F4F8B7
:104BA0008520FFF7F4F81020FFF7F1F87A20FFF7DF
:104BB000EEF8CB20FFF7E8F83920FFF7E8F82C20D3
:104BC000FFF7E5F80020FFF7E2F83420FFF7DFF801
:104BD0000220FFF7DCF8F720FFF7D6F82020FFF7D8
:104BE000D6F8EA20FFF7D0F80020FFF7D0F8002031
:104BF000FFF7CDF8C020FFF7C7F81B20FFF7C7F875
:104C0000C120FFF7C1F80120FFF7C1F8C520FFF769
:104C1000BBF83020FFF7BBF83020FFF7B8F8C7200B
:104C2000FFF7B2F8B720FFF7B2F83620FFF7ACF87D
:104C30004820FFF7ACF83A20FFF7A6F85520FFF719
:104C4000A6F8B120FFF7A0F80020FFF7A0F81A207F
:104C5000FFF79DF8B620FFF797F80A2000E099E0EB
:104C6000FFF795F8A220FFF792F8F220FFF78CF8F3
:104C70000020FFF78CF82620FFF786F80120FFF7C9
:104C800086F8E020FFF780F80F20FFF780F82A2051
:104C9000FFF77DF82820FFF77AF80820FFF777F86C
:104CA0000E20FFF774F80820FFF771F85420FFF783
:104CB0006EF8A920FFF76BF84320FFF768F80A2089
:104CC000FFF765F80F20FFF762F80020FFF75FF8A5
:104CD0000020FFF75CF80020FFF759F80020FFF7ED
:104CE00056F8E120FFF750F80020FFF750F81520A4
:104CF000FFF74DF81720FFF74AF80720FFF747F8AE
:104D00001120FFF744F80620FFF741F82B20FFF7AA
:104D10003EF85620FFF73BF83C20FFF738F8052017
:104D2000FFF735F81020FFF732F80F20FFF72FF8C4
:104D30003F20FFF72CF83F20FFF729F80F20FFF75F
:104D400026F82B20FFF720F80020FFF720F800209E
:104D5000FFF71DF80120FFF71AF83F20FFF717F8BB
:104D60002A20FFF711F80020FFF711F80020FFF7C5
:104D70000EF80020FFF70BF8EF20FFF708F81120DE
:104D8000FFF702F87820FBF7DDFA2920FEF7FCFF99
:104D900003F02BB91D48808846F6040188427CD177
:104DA0001120FEF7F1FF1420FBF7CCFAD020FEF71C
:104DB000EBFF0720FEF7EBFF4220FEF7E8FF1D2088
:104DC000FEF7E5FFD120FEF7DFFF0020FEF7DFFF53
:104DD0001A20FEF7DCFF0920FEF7D9FFD220FEF7EC
:104DE000D3FF0120FEF7D3FF2220FEF7D0FFC02023
:104DF000FEF7CAFF1020FEF7CAFF3B20FEF7C7FFF1
:104E00000020FEF7C4FF02200AE000008205002017
:104E1000204C43442049443A25780D0A0000000004
:104E2000FEF7B5FF1120FEF7B2FFC520FEF7ACFF7D
:104E30000320FEF7ACFFC820FEF7A6FF0020FEF718
:104E4000A6FF2520FEF7A3FF2120FEF7A0FF0520E7
:104E5000FEF79DFF0020FEF79AFF0A20FEF797FF5E
:104E60006520FEF794FF2520FEF791FF7720FEF7DF
:104E70008EFF5020FEF78BFF0F20FEF788FF0020EB
:104E8000FEF785FFF820FEF77FFF0120FEF77FFF8A
:104E9000FE20FEF779FF002000E038E0FEF777FF04
:104EA0000220FEF774FF2020FEF76EFF3620FEF78B
:104EB0006BFF0820FEF76BFF3A20FEF765FF5520D9
:104EC000FEF765FF2B20FEF75FFF0020FEF75FFF78
:104ED0000020FEF75CFF0120FEF759FF3F20FEF7A0
:104EE00056FF2A20FEF750FF0020FEF750FF00205B
:104EF000FEF74DFF0120FEF74AFFDF20FEF747FFD8
:104F00007820FBF71FFA2920FEF73EFF40E7FE4816
:104F1000808845F21031884240F07C87ED20FEF712
:104F200033FF0120FEF733FFFE20FEF730FFEE20B7
:104F3000FEF72AFFDE20FEF72AFF2120FEF727FFDB
:104F4000F120FEF721FF0120FEF721FFDF20FEF711
:104F50001BFF1020FEF71BFFC420FEF715FF8F205C
:104F6000FEF715FFC620FEF70FFF0020FEF70FFF2C
:104F7000E220FEF70CFFE220FEF709FFE220FEF739
:104F800006FFBF20FEF700FFAA20FEF700FFB020BB
:104F9000FEF7FAFE0D20FEF7FAFE0020FEF7F7FE00
:104FA0000D20FEF7F4FE0020FEF7F1FE1120FEF7C3
:104FB000EEFE0020FEF7EBFE1920FEF7E8FE0020D3
:104FC000FEF7E5FE2120FEF7E2FE0020FEF7DFFE01
:104FD0002D20FEF7DCFE0020FEF7D9FE3D20FEF777
:104FE000D6FE0020FEF7D3FE5D20FEF7D0FE0020A7
:104FF000FEF7CDFE5D20FEF7CAFE0020FEF7C7FEDD
:10500000B120FEF7C1FE8020FEF7C1FE0020FEF7B2
:10501000BEFE8B20FEF7BBFE0020FEF7B8FE9620FA
:10502000FEF7B5FE0020FEF7B2FEB220FEF7ACFEA2
:105030000020FEF7ACFE0020FEF7A9FE0220FEF7DE
:10504000A6FE0020FEF7A3FE0320FEF7A0FE002030
:10505000FEF79DFEB320FEF797FE0020FEF797FEB9
:105060000020FEF794FE0020FEF791FE0020FEF7E0
:105070008EFE0020FEF78BFE0020FEF788FE00204B
:10508000FEF785FE0020FEF782FE0020FEF77FFE81
:105090000020FEF77CFE0020FEF779FE0020FEF7E0
:1050A00076FE0020FEF773FE0020FEF770FE002063
:1050B000FEF76DFE0020FEF76AFE0020FEF767FE99
:1050C0000020FEF764FE0020FEF761FE0020FEF7E0
:1050D0005EFE0020FEF75BFE0020FEF758FE00207B
:1050E000FEF755FE0020FEF752FEB420FEF74CFE00
:1050F0008B20FEF74CFE0020FEF749FE9620FEF7BF
:1051000046FE0020FEF743FEA120FEF740FE0020F1
:10511000FEF73DFEB520FEF737FE0220FEF737FE14
:105120000020FEF734FE0320FEF731FE0020FEF7DC
:105130002EFE0420FEF72BFE0020FEF728FEB620F0
:10514000FEF722FE0020FEF722FE0020FEF71FFEE3
:10515000B720FEF719FE0020FEF719FE0020FEF72B
:1051600016FE3F20FEF713FE0020FEF710FE5E2025
:10517000FEF70DFE0020FEF70AFE6420FEF707FE94
:105180000020FEF704FE8C20FEF701FE0020FEF753
:10519000FEFDAC20FEF7FBFD0020FEF7F8FDDC2055
:1051A000FEF7F5FD0020FEF7F2FD7020FEF7EFFDA3
:1051B0000020FEF7ECFD9020FEF7E9FD0020FEF751
:1051C000E6FDEB20FEF7E3FD0020FEF7E0FDDC202E
:1051D000FEF7DDFD0020FEF7DAFDB820FEF7D4FD76
:1051E0000020FEF7D4FD0020FEF7D1FD0020FEF7E1
:1051F000CEFD0020FEF7CBFD0020FEF7C8FD00200D
:10520000FEF7C5FD0020FEF7C2FD0020FEF7BFFD42
:10521000BA20FEF7B9FD2420FEF7B9FD0020FEF705
:10522000B6FD0020FEF7B3FD0020FEF7B0FDC12063
:10523000FEF7AAFD2020FEF7AAFD0020FEF7A7FD3D
:105240005420FEF7A4FD0020FEF7A1FDFF20FEF78D
:105250009EFD0020FEF79BFDC220FEF795FD0A2073
:10526000FEF795FD0020FEF792FD0420FEF78FFD6E
:105270000020FEF78CFDC320FEF786FD3C20FEF7E4
:1052800086FD0020FEF783FD3A20FEF780FD00201A
:10529000FEF77DFD3920FEF77AFD0020FEF777FD51
:1052A0003720FEF774FD0020FEF771FD3C20FEF76D
:1052B0006EFD0020FEF76BFD3620FEF768FD002036
:1052C000FEF765FD3220FEF762FD0020FEF75FFD70
:1052D0002F20FEF75CFD0020FEF759FD2C20FEF785
:1052E00056FD0020FEF753FD2920FEF750FD00205B
:1052F000FEF74DFD2620FEF74AFD0020FEF747FD94
:105300002420FEF744FD01E0820500200020FEF786
:105310003EFD2420FEF73BFD0020FEF738FD232054
:10532000FEF735FD0020FEF732FD3C20FEF72FFD95
:105330000020FEF72CFD3620FEF729FD0020FEF7A9
:1053400026FD3220FEF723FD0020FEF720FD2F2052
:10535000FEF71DFD0020FEF71AFD2C20FEF717FDBD
:105360000020FEF714FD2920FEF711FD0020FEF7B6
:105370000EFD2620FEF70BFD0020FEF708FD242081
:10538000FEF705FD0020FEF702FD2420FEF7FFFCDE
:105390000020FEF7FCFC2320FEF7F9FC0020FEF7BE
:1053A000F6FCC420FEF7F0FC6220FEF7F0FC0020C3
:1053B000FEF7EDFC0520FEF7EAFC0020FEF7E7FC17
:1053C0008420FEF7E4FC0020FEF7E1FCF020FEF76D
:1053D000DEFC0020FEF7DBFC1820FEF7D8FC0020E6
:1053E000FEF7D5FCA420FEF7D2FC0020FEF7CFFC90
:1053F0001820FEF7CCFC0020FEF7C9FC5020FEF779
:10540000C6FC0020FEF7C3FC0C20FEF7C0FC002009
:10541000FEF7BDFC1720FEF7BAFC0020FEF7B7FC34
:105420009520FEF7B4FC0020FEF7B1FCF320FEF758
:10543000AEFC0020FEF7ABFCE620FEF7A8FC002047
:10544000FEF7A5FCC520FEF79FFC3220FEF79FFC6F
:105450000020FEF79CFC4420FEF799FC0020FEF79C
:1054600096FC6520FEF793FC0020FEF790FC76206A
:10547000FEF78DFC0020FEF78AFC8820FEF787FCF3
:105480000020FEF784FCC620FEF77EFC2020FEF7FD
:105490007EFC0020FEF77BFC1720FEF778FC002046
:1054A000FEF775FC0120FEF772FC0020FEF76FFC92
:1054B000C720FEF769FC0020FEF769FC0020FEF71C
:1054C00066FC0020FEF763FC0020FEF760FCC820AD
:1054D000FEF75AFC0020FEF75AFC0020FEF757FCAE
:1054E0000020FEF754FC0020FEF751FCC920FEF717
:1054F0004BFC0020FEF74BFC0020FEF748FC002090
:10550000FEF745FC0020FEF742FC0020FEF73FFCC2
:105510000020FEF73CFC0020FEF739FC0020FEF7DF
:1055200036FC0020FEF733FC0020FEF730FC0020A4
:10553000FEF72DFC0020FEF72AFC0020FEF727FCDA
:105540000020FEF724FC0020FEF721FC0020FEF7DF
:105550001EFCE020FEF718FC1620FEF718FC0020C9
:10556000FEF715FC1C20FEF712FC0020FEF70FFCD6
:105570002120FEF70CFC0020FEF709FC3620FEF788
:1055800006FC0020FEF703FC4620FEF700FC00208E
:10559000FEF7FDFB5220FEF7FAFB0020FEF7F7FBBB
:1055A0006420FEF7F4FB0020FEF7F1FB7A20FEF703
:1055B000EEFB0020FEF7EBFB8B20FEF7E8FB002064
:1055C000FEF7E5FB9920FEF7E2FB0020FEF7DFFB8C
:1055D000A820FEF7DCFB0020FEF7D9FBB920FEF780
:1055E000D6FB0020FEF7D3FBC420FEF7D0FB002043
:1055F000FEF7CDFBCA20FEF7CAFB0020FEF7C7FB73
:10560000D220FEF7C4FB0020FEF7C1FBD920FEF735
:10561000BEFB0020FEF7BBFBE020FEF7B8FB00203E
:10562000FEF7B5FBF320FEF7B2FB0020FEF7AFFB61
:10563000E120FEF7A9FB1620FEF7A9FB0020FEF7EC
:10564000A6FB1C20FEF7A3FB0020FEF7A0FB2220F8
:10565000FEF79DFB0020FEF79AFB3620FEF797FB36
:105660000020FEF794FB4520FEF791FB0020FEF79B
:105670008EFB5220FEF78BFB0020FEF788FB642098
:10568000FEF785FB0020FEF782FB7A20FEF77FFB0A
:105690000020FEF77CFB8B20FEF779FB0020FEF755
:1056A00076FB9920FEF773FB0020FEF770FBA82025
:1056B000FEF76DFB0020FEF76AFBB920FEF767FBE3
:1056C0000020FEF764FBC420FEF761FB0020FEF71C
:1056D0005EFBCA20FEF75BFB0020FEF758FBD220E2
:1056E000FEF755FB0020FEF752FBD820FEF74FFBDC
:1056F0000020FEF74CFBE020FEF749FB0020FEF700
:1057000046FBF320FEF743FB0020FEF740FBE220C0
:10571000FEF73AFB0520FEF73AFB0020FEF737FBC9
:105720000B20FEF734FB0020FEF731FB1B20FEF7B9
:105730002EFB0020FEF72BFB3420FEF728FB002079
:10574000FEF725FB4420FEF722FB0020FEF71FFB9F
:105750004F20FEF71CFB0020FEF719FB6120FEF72F
:1057600016FB0020FEF713FB7920FEF710FB00204C
:10577000FEF70DFB8820FEF70AFB0020FEF707FB73
:105780009720FEF704FB0020FEF701FBA620FEF7A2
:10579000FEFA0020FEF7FBFAB720FEF7F8FA002029
:1057A000FEF7F5FAC220FEF7F2FA0020FEF7EFFA54
:1057B000C720FEF7ECFA0020FEF7E9FAD120FEF749
:1057C000E6FA0020FEF7E3FAD620FEF7E0FA002022
:1057D000FEF7DDFADD20FEF7DAFA0020FEF7D7FA51
:1057E000F320FEF7D4FA0020FEF7D1FAE320FEF70B
:1057F000CBFA0520FEF7CBFA0020FEF7C8FA0A2004
:10580000FEF7C5FA0020FEF7C2FA1C20FEF7BFFA29
:105810000020FEF7BCFA3320FEF7B9FA0020FEF7AD
:10582000B6FA4420FEF7B3FA0020FEF7B0FA502093
:10583000FEF7ADFA0020FEF7AAFA6220FEF7A7FAFB
:105840000020FEF7A4FA7820FEF7A1FA0020FEF768
:105850009EFA8820FEF79BFA0020FEF798FA972020
:10586000FEF795FA0020FEF792FAA620FEF78FFACF
:105870000020FEF78CFAB720FEF789FA0020FEF729
:1058800086FAC220FEF783FA0020FEF780FAC720CE
:10589000FEF77DFA0020FEF77AFAD120FEF777FABC
:1058A0000020FEF774FAD520FEF771FA0020FEF70B
:1058B0006EFADD20FEF76BFA0020FEF768FAF3209F
:1058C000FEF765FA0020FEF762FAE420FEF75CFAC4
:1058D0000120FEF75CFA0020FEF759FA0120FEF7DE
:1058E00056FA0020FEF753FA0220FEF750FA002085
:1058F000FEF74DFA2A20FEF74AFA0020FEF747FA93
:105900003C20FEF744FA0020FEF741FA4B20FEF758
:105910003EFA0020FEF73BFA5D20FEF738FA002041
:10592000FEF735FA7420FEF732FA0020FEF72FFA60
:105930008420FEF72CFA0020FEF729FA9320FEF7C8
:1059400026FA0020FEF723FAA220FEF720FA002014
:10595000FEF71DFAB320FEF71AFA0020FEF717FA39
:10596000BE20FEF714FA0020FEF711FAC420FEF75D
:105970000EFA0020FEF70BFACD20FEF708FA002001
:10598000FEF705FAD320FEF702FA0020FEF7FFF932
:10599000DD20FEF7FCF90020FEF7F9F9F320FEF711
:1059A000F6F90020FEF7F3F9E520FEF7EDF9002007
:1059B000FEF7EDF90020FEF7EAF90020FEF7E7F91F
:1059C0000020FEF7E4F90220FEF7E1F90020FEF7DF
:1059D000DEF92920FEF7DBF90020FEF7D8F93C209C
:1059E000FEF7D5F90020FEF7D2F94B20FEF7CFF9EC
:1059F0000020FEF7CCF95D20FEF7C9F90020FEF784
:105A0000C6F97420FEF7C3F90020FEF7C0F9842020
:105A1000FEF7BDF90020FEF7BAF99320FEF7B7F9BB
:105A20000020FEF7B4F9A220FEF7B1F90020FEF73E
:105A3000AEF9B320FEF7ABF90020FEF7A8F9BE20BF
:105A4000FEF7A5F90020FEF7A2F9C420FEF79FF9A2
:105A50000020FEF79CF9CD20FEF799F90020FEF713
:105A600096F9D320FEF793F90020FEF790F9DC2099
:105A7000FEF78DF90020FEF78AF9F320FEF787F98B
:105A80000020FEF784F9E620FEF77EF91120FEF7EC
:105A90007EF90020FEF77BF93420FEF778F900202C
:105AA000FEF775F95620FEF772F90020FEF76FF940
:105AB0007620FEF76CF90020FEF769F97720FEF7F3
:105AC00066F90020FEF763F96620FEF760F9002012
:105AD000FEF75DF98820FEF75AF90020FEF757F926
