:020000040800F2
:1000000020B10020D1380008D9380008DB380008BA
:10001000DD380008DF380008E13800080000000083
:10002000000000000000000000000000E3380008AD
:10003000E538000800000000E7380008E93800084B
:10004000EB380008EB380008EB380008EB38000804
:10005000EB380008EB380008EB380008EB380008F4
:10006000EB380008EB380008EB380008EB380008E4
:10007000EB380008EB380008EB380008EB380008D4
:10008000EB380008EB380008EB380008EB380008C4
:10009000EB380008EB380008EB380008EB380008B4
:1000A000EB380008EB380008EB380008EB380008A4
:1000B000EB380008EB380008EB380008EB38000894
:1000C000EB380008EB380008EB380008EB38000884
:1000D000EB380008EB380008EB380008EB38000874
:1000E000EB380008EB380008EB380008EB38000864
:1000F000EB380008EB380008EB380008EB38000854
:10010000EB380008EB380008EB380008EB38000843
:10011000EB380008EB380008EB380008EB38000833
:10012000EB380008EB380008EB380008EB38000823
:1001300000F002F800F03AF80AA090E8000C8244BF
:100140008344AAF10107DA4501D100F02FF8AFF29C
:10015000090EBAE80F0013F0010F18BFFB1A43F0A5
:1001600001031847D4680000F4680000103A24BF67
:1001700078C878C1FAD8520724BF30C830C144BF0C
:1001800004680C607047000000230024002500264E
:10019000103A28BF78C1FBD8520728BF30C148BFEA
:1001A0000B6070471FB51FBD10B510BD04F060FC9B
:1001B0001146FFF7F7FF00F009F804F07EFC03B4E6
:1001C000FFF7F2FF03BC04F081FC000008B501F06A
:1001D00064FA4FF4A06003F09BFB01F085F901F095
:1001E0005BFC02F098FF01F0CFFE02F0F1FF00206F
:1001F00003F06FFA4FF6FF7001F08AFB07E0012071
:1002000017A310221E210090084600F06DFE03F097
:100210007EF80028F3D107E0012017A310223C212B
:1002200000901E2000F060FE01F032FF0028F3D1A4
:10023000012017A310221E210090084600F054FE52
:10024000012019A310223C2100901E2000F04CFE3A
:100250004FF47A7001F085F901E000F0A8F9FCE7AD
:100260004E524632344C303120436865636B204631
:1002700061696C6564210000415432344358582050
:10028000436865636B204661696C6564210000000A
:100290004E524632344C303120436865636B2053F4
:1002A0007563636573732100415432344358582099
:1002B000436865636B205375636365737321000046
:1002C0003EB504461F200090FE48028814230021FA
:1002D000084600F035FC1F200090FA484388028849
:1002E0004088143881B2002000F02AFC4FF6FF70DD
:1002F000F5490880012010211F234FF6FF72CDE938
:10030000004102900221002001F09CF80120102100
:10031000EEA2CDE900210290EA484088123881B26D
:100320001F234FF6FF72002001F08CF80020009090
:10033000E4484088143883B2E2480288142100203F
:1003400000F0FEFB3EBD2DE9F8430024E2A0FFF7DC
:10035000B7FF4FF6FF700090DA484088143883B238
:10036000D84802881421002000F0EAFB00BF48E0D2
:10037000DFF850C3BCF8025005EBD57C4FEA6C0C9B
:10038000ACF1500CC4EB0419CC440CF13C0C1FFA3A
:100390008CF3DFF830C3BCF8006006EBD67C4FEA84
:1003A0006C0CACF1500CC4EB0419CC440CF13C0CBB
:1003B0001FFA8CF2DFF80CC3BCF8027007EBD77C95
:1003C0004FEA6C0CACF1500CC4EB0419CC441FFA8E
:1003D0008CF1DFF8F0C2BCF8008008EBD87C4FEA63
:1003E0006C0CACF1500CC4EB0419CC441FFA8CF02B
:1003F00000F032FCBE4830F81400B3490880601C9D
:10040000C4B2052CB4DB40F2DC5001F0AAF84FF680
:10041000FF700090AB484088143883B2A948028826
:100420001421002000F08CFB002448E0DFF894C287
:10043000BCF8027007EBD77C4FEA6C0CACF1500CA7
:10044000C4EB0419CC440CF13C0C1FFA8CF3DFF81C
:1004500074C2BCF8005005EBD57C4FEA6C0CACF1D3
:10046000500CC4EB0419CC440CF13C0C1FFA8CF278
:10047000DFF850C2BCF8028008EBD87C4FEA6C0C65
:10048000ACF1500CC4EB0419CC441FFA8CF1DFF82A
:1004900034C2BCF8006006EBD67C4FEA6C0CACF1C1
:1004A000500CC4EB0419CC441FFA8CF000F0F4FBA0
:1004B0008F4830F8140084490880601CC4B2052CB1
:1004C000B4DB40F2DC5001F04CF8BDE8F883F8B53D
:1004D000002488A0FFF7F4FE4FF6FF7000907948E3
:1004E0004088143883B2774802881421002000F035
:1004F00027FB00BF1FE00020724B00905D8805EBDA
:10050000D5735B10323B04EBC40707EB0417D91912
:100510006C4B1E8806EBD6735B10503B04EBC40794
:1005200007EB0417D819724B33F814201E2300F080
:1005300004FC601CC4B2052CDDDB40F2DC5001F091
:1005400010F84FF6FF7000905E484088143883B270
:100550005C4802881421002000F0F2FA00241FE019
:100560000120584B00905D8805EBD5735B10323B42
:1005700004EBC40707EB0417D919524B1E8806EB8E
:10058000D6735B10503B04EBC40707EB0417D81974
:10059000574B33F814201E2300F0CFFB601CC4B26D
:1005A000052CDDDB40F2DC5000F0DBFFF8BD2DE96F
:1005B000F04F8BB001200A90002009900025002701
:1005C0008046814682464FF4784B03900290012486
:1005D00002F00FFD01F0E2F84CA0FFF771FE0120E0
:1005E000384900900988183988B24DA3102200219B
:1005F00000F07AFC58463349009009881E398AB2C7
:1006000030490988343988B21223022100F098FA5F
:1006100058462D490880012042A30C222D2100902C
:100620000A2000F061FC012040A30C221E21009052
:100630000A2000F059FC3EE201F0CAF806463D48A7
:10064000416800208847099868B96421002003F0B8
:1006500002F939490860802009680870374909683B
:100660000870012009903348007D00F080000028C8
:1006700066D03048008A1349098888427EDA2D48BE
:10068000408A104949888842F8DA2A48018A0D4888
:1006900000881838814272DD2648408A10286EDAB8
:1006A0001AA0FFF70DFE01200649009009881839AD
:1006B00088B21BA31022002100F016FC0248A0F80B
:1006C00000B03EE0940000202C000020424947206A
:1006D0004C494F4E00000000B2E2CAD4323A4755AE
:1006E00049BED8D0CECCEEB3E4B2E2CAD40000000A
:1006F00000000020B2E2CAD4333A475549BBADD41A
:10070000B2CCEEB3E4B2E2CAD4000000506C656132
:100710007365204472617720496E204865726500D8
:10072000525354006D656D6F72790000706F696E81
:1007300074000000340000200C0000201000002095
:100740000FE10088DE49009009881E398AB2DC4931
:100750000988343988B21223022100F0F1F9D9480E
:100760000168002003F067F8D7480168002003F013
:1007700062F801200A900025002001E0F0E016E078
:1007800009900027804601240120AFF268030C2263
:100790002D2100900A2000F0A7FB0120AFF2740386
:1007A0000C221E2100900A2000F09EFBF9E0C748B1
:1007B000018AC34800883C38814235DDC348018A3C
:1007C000BF4800881E3881422EDAC048408A14286B
:1007D0002ADA05209AFBF0F100FB11A0BC4931F8A0
:1007E00010000190B649009009881E398AB2B449B8
:1007F0000988343988B21223022100F0A1F9504649
:10080000411C1FFA81FA052190FBF1F201FB120055
:10081000AF4931F81000AF4908800846B0F800B081
:100820000A2000F09EFEBCE0A84A528AD21E91B275
:10083000A64A128A521F90B2A64A128801F0A5FD5C
:10084000A248008AC0F3470006A948559F48807C0B
:1008500004A94855681CC5B2052DA7D19DF81A00FA
:10086000BDF80C10401A012814DC9DF81200BDF8E8
:100870000810401A01280DDC9DF81A00BDF80C1074
:10088000081A012806DC9DF81200BDF80810081AA5
:1008900001288BDD9DF81A0003909DF8120002904C
:1008A000BDF80820D21E91B2BDF80C200523C3EB81
:1008B000420290B24FF6FF7201F067FD8548A0F842
:1008C00000B00025B8F1000F09D1FF207D4909686B
:1008D000085500207C4909680855641C0027BDF8AC
:1008E0000C00401F4006000E764909680855BDF807
:1008F0000800C01E744909680855641C6420B4FBD4
:10090000F0F09DF8281088424BD39DF82800401C39
:10091000642100FB01F26B480168002002F0ADFF8A
:10092000684908609DF82800401C642100FB01F222
:1009300065480168002002F0A0FF634908609DF847
:100940002800401CC0B20A90002002F0DDFE019099
:100950000C20032300903C215020019A00F00AFB58
:100960001FE00A2000F0FDFD781CC7B20C20052313
:1009700022461E210090502000F0FCFA1D2F10DDB1
:10098000B7F5967F0DDCB8F1010F0AD100204D4973
:1009900009680855FF204B4909680855641C4FF049
:1009A0000008042E16D14FF6FF7000F0B1FF01F0E1
:1009B000BEFE01F080FDAFF2AC20FFF781FC4148A4
:1009C0000168002002F037FF3F480168002002F074
:1009D00032FF70E0012E6ED14FF6FF7096234FF478
:1009E0008272642100903C2000F0AAF84FF4784015
:1009F00038490880012038A30C2278210090552026
:100A000000F072FA02F040FD0AA802F0CBFC1420BC
:100A100000F0A7FD02F012FD4FF000090BE008A85E
:100A200002F0EFFC00B909E0C82000F09AFD09F1DE
:100A3000010000F0FF09B9F11F0FF0DB00BF4FF616
:100A4000FF7096234FF48272642100903C2000F0E6
:100A500077F89DF82000562821D1012025A31022E7
:100A600078210090642000F03FFA164801680020C9
:100A700002F0E1FE14480168002002F0DCFE0120D3
:100A80000A900025002009900027804601244FF499
:100A9000FA6000F066FD002000F03AFF0CE0012053
:100AA00019A30C2278210090462000F01DFA4FF483
:100AB000FA7000F056FDBFE500BF0BB0BDE8F08F47
:100AC000940000200C0000201000002034000020C2
:100AD000000000202C00002053544152542057495C
:100AE00052454C455353205452414E534D49542185
:100AF000000000005452414E534D49542053554379
:100B000043455353210000004E4F206C6F776572B0
:100B10004D4355204543484F2120506C6561736516
:100B200020636865636B210070B505460E46144668
:100B30003146284600F0A0FE204600F08CFE70BD35
:100B40002DE9F84F06460F4614461D46DDF828905D
:100B5000A01B401C1FFA80FAE81B401C1FFA80FBF8
:100B60000BFB0AF00090681E83B2601E82B2394609
:100B7000304600F0A7FE4FF0000804E0F748A0F868
:100B8000009008F1010800988045F7D3F4484088A8
:100B9000401E83B2F2480088401E82B200210846FF
:100BA00000F090FEBDE8F88F2DE9FF4F85B081463B
:100BB0008A460020049003900798A0EB0905089846
:100BC000A0EB0A06CDF80890CDF804A0002D01DDB9
:100BD000012705E00DB9002702E04FF0FF376D4215
:100BE000002E02DD4FF0010806E016B94FF00008B4
:100BF00002E04FF0FF387642B54201DD2C4600E0BE
:100C000034464FF0000B21E0019A91B2029A90B263
:100C100000F04CFE0498284404900398304403905C
:100C20000498A04205DD0498001B04900298384403
:100C300002900398A04205DD0398001B03900198E1
:100C4000404401900BF101001FFA80FB601C8345BA
:100C5000DADD09B0BDE8F08F2DE9F04104460D461C
:100C600016461F462B46324629462046FFF79CFF74
:100C70003B46224629462046FFF796FF3B46324632
:100C800039462046FFF790FF3B463246294630461C
:100C9000FFF78AFFBDE8F081F8B504460D46164619
:100CA0001F46B04800883B46324629460090204601
:100CB000FFF746FFF8BD2DE9F04104460D46164604
:100CC0001F46DDF81880EA1991B2A21990B2424687
:100CD000FFF72AFFEA1991B2A21B90B24246FFF732
:100CE00023FFEA1B91B2A21990B24246FFF71CFF04
:100CF000EA1B91B2A21B90B24246FFF715FFAA1958
:100D000091B2E21990B24246FFF70EFFAA1991B2D2
:100D1000E21B90B24246FFF707FFAA1B91B2E2190D
:100D200090B24246FFF700FFAA1B91B2E21B90B2BD
:100D30004246FFF7F9FEBDE8F0812DE9FF4F81B093
:100D4000824617469846DDF838B0002445464FEAFB
:100D50004800C0F10306BBF1000F1FD01BE0A14605
:100D600008E04B462246009750460299FFF7A3FF42
:100D700009F10109A945F4DD002E04DA042000FB85
:100D80000460861D06E0601B042101FB006000F189
:100D90000A066D1E641CAC42E1DD18E015E02B462E
:100DA0002246009750460299FFF785FF002E04DA8D
:100DB000042000FB0460861D06E0601B042101FB8B
:100DC000006000F10A066D1E641CAC42E7DD05B050
:100DD000BDE8F08F2DE9FF4F83B081468A469346E8
:100DE000DDE910645F4800880290A6F12000C6B2D9
:100DF00004EBD47009EB6000401E82B20AEB0400E1
:100E0000401E83B251464846019400F05BFD1298A3
:100E100050BB002525E00C2C07D106EB46005249BB
:100E200001EB800010F8058004E0504800EB06104C
:100E300010F8058000270DE008F0010018B15846B1
:100E400000F009FD02E0069800F005FD4FEA680891
:100E5000781CC7B204EBD471B7EB610FECDB681CF4
:100E6000C5B2A542D7DB2DE0002529E00C2C07D127
:100E700006EB46003C4901EB800010F8058004E0D9
:100E80003A4800EB061010F80580002711E03548BD
:100E9000A0F800B008F0010038B10AEB050291B2E9
:100EA00009EB070290B200F001FD4FEA6808781CD8
:100EB000C7B204EBD471B7EB610FE8DB681CC5B2B5
:100EC000A542D3DB27490298088025484088401E68
:100ED00083B223480088401E82B20021084600F0F9
:100EE000F1FC07B0BDE8F08F2DE9FE4306460F4642
:100EF00015461C46DDF828801DE019480088401E74
:100F0000B04204DB16484088401EB84201DABDE812
:100F1000FE8320788DE82101154803881148028856
:100F200039463046FFF756FF284605EBD07106EBF1
:100F300061018EB2641C20787E2802DC2078202893
:100F4000DBDA00BFE3E710B50246012000E05043C2
:100F50000B1EA1F10104E1B2F9D110BD0008006C33
:100F6000940000202C0000200A5500087E5900083B
:100F70002E0000202DE9FF4F83B0074691461E4604
:100F8000109C4FF0000A002543E0701B401EC1B2C8
:100F90000A20FFF7D8FFB9FBF0F00A21B0FBF1F20D
:100FA00001FB1208BAF1000F1BD1701EA84218DD18
:100FB000B8F1000F13D100202021A346CDE9001481
:100FC000029004EBDB71491001FB057188B2FD4909
:100FD0000B88FD490A880499FFF7FCFE17E04FF0E3
:100FE000010A002108F13000C0B2A346CDE9014159
:100FF000009004EBDB71491001FB057188B2F149E7
:101000000B88F1490A880499FFF7E4FE00BF681CC9
:10101000C5B2B542B9DB07B0BDE8F08F2DE9FC5F82
:101020000546884691469A46DDF830B000952E2058
:10103000019000245FE004EB0410E44911F8100073
:101040009BF80010884253D104EB0410DF4901EBF8
:10105000400040789BF80110884249D108F10F0008
:1010600083B205F10F0082B24146284600F02AFC07
:1010700000263BE0002734E00D9890B904EB041003
:10108000D24901EB4000801C805D8021394108403D
:1010900018B1484600F0DFFB21E0504600F0DBFBD2
:1010A0001DE0C948A0F8009004EB0410C74901EB0B
:1010B0004000801C805D80213941084018B14146C4
:1010C000284600F0F3FB681C85B20098281A102807
:1010D00005D1009D08F101001FFA80F803E0781C9B
:1010E000C7B2082FC8DB00BF701CC6B2202EC1DB00
:1010F00000BF601C84B2019884429CDBB4484088E5
:10110000401E83B2B2480088401E82B200210846C9
:1011100000F0D8FBBDE8FC9F2DE9FC5F0546884642
:1011200091469A46DDF830B00095072001900024E2
:1011300067E004EB840000EB4410A64911F81000AE
:101140009BF80010884259D104EB840000EB441056
:10115000A04901EB400040789BF8011088424DD136
:1011600008F1170083B205F1170082B24146284604
:1011700000F0A8FB00263FE0002738E00D98A0B95A
:1011800004EB840000EB4410924901EB4000801C0A
:10119000805D80213941084018B1484600F05BFB72
:1011A00023E0504600F057FB1FE08748A0F800906E
:1011B00004EB840000EB4410864901EB4000801CE6
:1011C000805D80213941084018B14146284600F031
:1011D0006DFB681C85B20098281A182805D1009D5F
:1011E00008F101001FFA80F803E0781CC7B2082F4D
:1011F000C4DB00BF701CC6B2482EBDDB00BF601C44
:1012000084B20198844294DB71484088401E83B2C6
:101210006F480088401E82B20021084600F052FB51
:10122000BDE8FC9F2DE9FC5F0546884691469A463D
:10123000DDF830B000950420019000245FE004EB5D
:101240008410654911F810009BF80010884253D1B2
:1012500004EB8410604901EB400040789BF80110DA
:10126000884249D108F11F0083B205F11F0082B204
:101270004146284600F026FB00263BE0002734E0EC
:101280000D9890B904EB8410534901EB4000801C89
:10129000805D80213941084018B1484600F0DBFAF2
:1012A00021E0504600F0D7FA1DE04748A0F8009032
:1012B00004EB8410484901EB4000801C805D8021D4
:1012C0003941084018B14146284600F0EFFA681C41
:1012D00085B20098281A202805D1009D08F1010048
:1012E0001FFA80F803E0781CC7B2082FC8DB00BFE4
:1012F000701CC6B2802EC1DB00BF601C84B2019896
:1013000084429CDB32484088401E83B230480088CB
:10131000401E82B20021084600F0D4FABDE8FC9FCE
:101320002DE9FF4F83B0064688469146DDE9114717
:10133000109DB2464FF0000B7EE0BBF1000F4DD187
:1013400004EBD471224A1288A2EB6101B14204DBA2
:101350001F494988091B414502DA07B0BDE8F08FF3
:101360002878802802DD4FF0010B65E028780D28F1
:1013700006D108EB04001FFA80F856466D1C1EE0EB
:10138000102C0DDD102128788DE883004A46414657
:101390003046069BFFF71EFD06F1080086B20EE000
:1013A00028788DE891004A4641463046069BFFF773
:1013B00011FD204604EBD07106EB61018EB26D1C6D
:1013C0003AE000002E0000202C0000206E5F000894
:1013D000940000208A650008906700084148008852
:1013E000001BB04204DB3F484088001B404500DA48
:1013F000B3E74FF0000B202C08D1CDE900574A4647
:1014000041463046069BFFF70DFF12E0182C08D12D
:10141000CDE900574A4641463046069BFFF77CFE21
:1014200007E0CDE900574A4641463046069BFFF7A4
:10143000F5FDAD1C301986B2287800287FF47DAF09
:1014400000BF8AE72DE9FF4F83B004460F46904660
:10145000DDE9119A109D284603F0D4FA86B221499D
:101460000988A1EBC60000EBD071C1F34F0B04EB70
:101470000B0188B28DE8200642463946069BFFF7ED
:101480004FFF07B0BDE8F08F2DE9F04706460F4645
:10149000154607F1270083B206F1270082B23946CC
:1014A000304600F00FFA00240AE015F8149005EB1E
:1014B000440090F8018049EA082000F0C8F9641C53
:1014C000B4F5C86FF1DB07484088401E83B2054879
:1014D0000088401E82B20021084600F0F3F9BDE802
:1014E000F08700009400002010B56FF0040002F0B7
:1014F0005EFA2E4800682E49B0FBF1F02D490870C5
:101500000846007800EB4001C1EBC0104FF6FF71B8
:1015100001EAC0002849088010BD0146254A12781A
:101520004A434FF0E0235A6100229A611A46126939
:1015300042F001021A6100BF4FF0E022106900F092
:1015400001021AB100F48032002AF5D04FF0E022F7
:10155000126922F001024FF0E0231A6100229A6121
:1015600070470146144A12884A434FF0E0235A61FB
:1015700000229A611A46126942F001021A6100BF04
:101580004FF0E022106900F001021AB100F480323D
:10159000002AF5D04FF0E022126922F001024FF04C
:1015A000E0231A6100229A617047000018000020B1
:1015B00000127A0014000020160000200CB5002054
:1015C000019000906C48006840F480306A490860DF
:1015D00000BF6948006800F4003000900198401C8A
:1015E0000190009818B90198B0F5A06FF1D1624848
:1015F000006800F4003010B10120009001E00020EC
:1016000000900098012843D15C48006840F0100029
:101610005A4908600846006820F003000860084640
:10162000006840F002000860534840685249486032
:101630000846406848600846406840F4806048605A
:101640000846406820F47C1048600846406840F432
:10165000E81048600846006840F08070086000BFED
:101660004548006800F000700028F9D04248406802
:1016700020F00300404948600846406840F00200FE
:10168000486000BF3C48406800F00C000828F9D1D1
:101690000CBD10B5FFF792FF10BD10B536480068BD
:1016A00040F0010034490860084640683449084069
:1016B0003149486008460068324908402E490860B0
:1016C0000846006820F4802008600846406820F43E
:1016D000FE0048604FF41F008860FFF7DAFF4FF00C
:1016E00000602949086010BD10B5002100200022CB
:1016F000214B5B6803F00C0121B1042906D00829B5
:1017000028D107E0214B224C236027E01F4B204CBF
:10171000236023E0184B5B6803F47010164B5B6882
:1017200003F48032022303EB904022B9194B434368
:10173000174C23600DE0104B5B6803F4003323B1BA
:10174000144B4343124C236003E0104B4343104CB3
:10175000236003E00D4B0E4C236000BF00BF064B1F
:101760005B68C3F303130C4CE15C094B1B68CB4073
:10177000074C236010BD0000001002400020024012
:101780000000FFF8FFFFF6FE08ED00E000127A000F
:101790001800002000093D001C00002008B50121B0
:1017A000442002F03FFC1C20ADF8000048208DF8DA
:1017B00003006946224802F079F90120ADF80000E3
:1017C00028208DF8030069461E4802F06FF908BD15
:1017D00010B510211A4802F0FCF978B10821184818
:1017E00002F0F7F950B10421154802F0F2F928B1DE
:1017F0000121144802F0EDF901281FD10A20FFF75A
:10180000B0FE10210E4802F0E4F908B9012010BD25
:1018100008210B4802F0DDF908B90220F7E704219E
:10182000074802F0D6F908B90320F0E7012105487E
:1018300002F0CFF9012801D10420E8E70020E6E713
:101840000018014000080140FE4908807047FD492A
:10185000891C0880704700B502461046FFF7F7FF65
:1018600000BDF84A1080921C1180704700B5F649FF
:101870000889FFF7E9FF00BD00B502460B46F249B3
:101880004889FFF7E1FF1012FFF7E1FFD0B2FFF741
:10189000DEFFED498889FFF7D7FF1812FFF7D7FF62
:1018A000D8B2FFF7D4FFFFF7E1FF00BD30B5044623
:1018B0000D4629462046FFF7DFFFE4480088FFF782
:1018C000C6FF30BD30B504460D46DF494889FFF7F5
:1018D000BBFF2012FFF7BBFFE0B2FFF7B8FF10120B
:1018E000FFF7B5FFD0B2FFF7B2FFD7498889FFF7FE
:1018F000ABFF2812FFF7ABFFE8B2FFF7A8FF181203
:10190000FFF7A5FFD8B2FFF7A2FFFFF7AFFF30BD8B
:1019100030B504460025CC484088401E83B2CA48F2
:101920000088401E82B200210846FFF7CBFF00BFAF
:1019300003E0C448801C04806D1CB5F5163FF8D345
:1019400030BD00B59FB00121080202F05EFB01210D
:1019500040F2791002F066FB0120ADF8780010200B
:101960008DF87B0003208DF87A001EA9B84802F09C
:101970009DF82020ADF8780010208DF87B00032022
:101980008DF87A001EA9B34802F090F84CF233703B
:10199000ADF8780018208DF87B0003208DF87A00D0
:1019A0001EA9AD4802F082F84FF68070ADF87800BD
:1019B00018208DF87B0003208DF87A001EA9A74817
:1019C00002F074F841F20100ADF8780018208DF8AB
:1019D0007B0003208DF87A001EA9A14802F066F86A
:1019E00001200890002009900F200A9000200B9001
:1019F0000C900D900E900220019000200290052086
:101A000003900020049005900690079006200F9008
:101A1000002010901190102012900020139015902B
:101A20001490169017904FF4805018900020199041
:101A30004FF480401A9000201B9008A81C9001A829
:101A40001D900FA802F024FD0121062002F088FE5F
:101A50001FB000BD10B520207E4948616420FFF70B
:101A600080FD20207B4908613220FFF77AFD10BD00
:101A700000B52C2074490881012088714FF4A070B2
:101A80000880F02048802A2048812B2088816C2102
:101A90003620FFF7E6FE00BD10B5FFF752FFFFF757
:101AA000D9FFCF20FFF7D0FE0020FFF7D0FEC120E6
:101AB000FFF7CDFE3020FFF7CAFEED20FFF7C4FE92
:101AC0006420FFF7C4FE0320FFF7C1FE1220FFF7DA
:101AD000BEFE8120FFF7BBFEE820FFF7B5FE8520A4
:101AE000FFF7B5FE1020FFF7B2FE7A20FFF7AFFE3A
:101AF000CB20FFF7A9FE3920FFF7A9FE2C20FFF726
:101B0000A6FE0020FFF7A3FE3420FFF7A0FE022070
:101B1000FFF79DFEF720FFF797FE2020FFF797FEC7
:101B2000EA20FFF791FE0020FFF791FE0020FFF76B
:101B30008EFEC020FFF788FE1B20FFF788FEC12025
:101B4000FFF782FE0120FFF782FEC520FFF77CFE33
:101B50003020FFF77CFE3020FFF779FEC720FFF72B
:101B600073FEB720FFF773FE3620FFF76DFE4820A7
:101B7000FFF76DFE3A20FFF767FE5520FFF767FE7F
:101B8000B120FFF761FE0020FFF761FE1A20FFF78A
:101B90005EFEB620FFF758FE0A20FFF758FEA2208F
:101BA000FFF755FEF220FFF74FFE0020FFF74FFE34
:101BB0002620FFF749FE0120FFF749FEE020FFF74E
:101BC00043FE0F20FFF743FE2A20FFF740FE2820A8
:101BD000FFF73DFE0820FFF73AFE0E20FFF737FE25
:101BE0000820FFF734FE5420FFF731FEA920FFF74D
:101BF0002EFE4320FFF72BFE0A20FFF728FE0F20C2
:101C0000FFF725FE0020FFF722FE0020FFF71FFE52
:101C10000020FFF71CFE0020FFF719FEE120FFF770
:101C200013FE0020FFF713FE1520FFF710FE17200C
:101C3000FFF70DFE0720FFF70AFE1120FFF707FE52
:101C400006200FE0FE07006C940000202C0000200E
:101C5000000C014000100140001401400018014038
:101C600000200140FFF7F3FD2B20FFF7F0FD562089
:101C7000FFF7EDFD3C20FFF7EAFD0520FFF7E7FD4C
:101C80001020FFF7E4FD0F20FFF7E1FD3F20FFF7F5
:101C9000DEFD3F20FFF7DBFD0F20FFF7D8FD2B20F7
:101CA000FFF7D2FD0020FFF7D2FD0020FFF7CFFDA8
:101CB0000120FFF7CCFD3F20FFF7C9FD2A20FFF7E9
:101CC000C3FD0020FFF7C3FD0020FFF7C0FD00208B
:101CD000FFF7BDFDEF20FFF7BAFD1120FFF7B4FDC0
:101CE0007820FFF73EFC2920FFF7AEFDFFF7C0FE8E
:101CF00001200149086010BD8081214208B5012101
:101D0000082002F08FF94FF44060ADF80000102079
:101D10008DF8030003208DF802006946974801F012
:101D2000C5FE4FF44061954801F06DFF08BD10B548
:101D30009248001D006820F470409049091D086019
:101D40000846006840F44050086001208C49086053
:101D50008C49C1F8A8010420FFF7DFFB0020884967
:101D600008600420FFF7D9FB00208649C1F8A801CC
:101D700010BD10B58148001D006820F470407F49F7
:101D8000091D08600846006840F4405008600020C3
:101D90007B49091F08607B49C1F8AC010420FFF7AB
:101DA000BCFB01207649091F08607649C1F8AC01E7
:101DB0000420FFF7B2FB10BD10B500246F48001DD2
:101DC000006820F470406D49091D086008460068ED
:101DD00040F400400860012069490860FFF79DFB5E
:101DE00001206849C1F8A801FFF797FB07E0601CD4
:101DF000C4B2FA2C03DDFFF7BCFF012010BD604820
:101E0000803800680028F2D15D49091F086000BFD2
:101E1000F4E710B500205A49091F08605748001D13
:101E2000006820F470405549091D086008460068A4
:101E300040F44050086000205249C1F8AC01022033
:101E4000FFF76BFB01204E49091F08600220FFF7D6
:101E500064FB00204B49C1F8A80110BD10B500205B
:101E60004749091F08604548001D006820F470407C
:101E70004249091D08600846006840F44050086067
:101E800001204049C1F8AC010220FFF746FB0120C8
:101E90003B49091F08600220FFF73FFB002039493A
:101EA000C1F8A80110BD70B504463448001D006893
:101EB00020F470403149091D08600846006840F46C
:101EC0004050086000202E49091F086000251DE0D1
:101ED000E00918B101202A49086002E000202849E1
:101EE00008606006040E0220FFF717FB012024495A
:101EF000091F08600220FFF710FB00202149C1F8EC
:101F0000A8010220FFF709FB681CC5B2082DDFDB22
:101F100070BD70B5054600241848001D006820F407
:101F200070401649091D08600846006840F40040EA
:101F30000860002617E000201149091F08600220F0
:101F4000FFF7EBFA01200F49C1F8A8016006040E63
:101F50000B488038006808B1601CC4B20120FFF74C
:101F6000DCFA701CC6B2082EE5DB15B9FFF776FF68
:101F700001E0FFF74EFF204670BD0000000C01405D
:101F8000AC8121420080214210B5FFF7B7FE10BDA1
:101F900070B504460026FFF7CAFE2546E11704EB9C
:101FA00011610912A02202EB4101C8B2FFF77BFFC9
:101FB000FFF702FFE11704EB11610912A4EB012105
:101FC000C8B2FFF770FFFFF7F7FEFFF7B0FEA120E2
:101FD000FFF769FFFFF7F0FE0020FFF79AFF0646C4
:101FE000FFF7C7FE304670BD70B504460E46FFF7DA
:101FF0009EFE2546E11704EB11610912A02202EBB7
:102000004101C8B2FFF74FFFFFF7D6FEE11704EB1F
:1020100011610912A4EB0121C8B2FFF744FFFFF7D9
:10202000CBFE3046FFF73FFFFFF7C6FEFFF7A1FEEE
:1020300042F21070FFF771FA70BD2DE9F0410546CC
:102040000E461746002409E0E20026FA02F2D1B259
:102050002A1990B2FFF7C8FF601CC4B2BC42F3DB80
:10206000BDE8F0812DE9F04107460C460026002529
:1020700009E036023919491B491E88B2FFF788FF6B
:102080000644681CC5B2A542F3DB3046BDE8F081CA
:1020900010B5FF20FFF77CFF0446552C01D100202E
:1020A00010BD5521FF20FFF79FFFFF20FFF770FFB6
:1020B0000446552C01D10020F2E70120F0E770B56D
:1020C00006460C46154608E03046721C96B2FFF7ED
:1020D0005FFF04F8010B681E85B2002DF4D170BDBE
:1020E00070B505460C46164606E021782846FFF7EF
:1020F0007BFF681C85B2641C301EA6F101018EB204
:10210000F3D170BD002100BF14E000F080021AB1CD
:102110000122FE4B1A6002E00022FC4B1A604206CC
:10212000100E0022FA4B1A600122FA4BC3F88421E8
:102130004A1CD1B20829E8DB704770B50646002575
:1021400000240020F2490860F349C1F8A401F049D5
:10215000091D08603046FFF7D5FF0620FFF7DDF9BF
:102160000020EC49C1F884010120FFF7D6F90120D5
:10217000E74908600020E749C1F8840100BF12E088
:102180004FF6FF7000EA44040020E1490860012096
:10219000E049C1F88401DD488438006808B1601C5A
:1021A00084B2681CC5B2102DEADB24110120D84985
:1021B000091D0860204670BD2DE9FE4380460027BA
:1021C000002406E04046FFF7B8FF2DF81400601C1D
:1021D00084B2052CF6DB002416E0601C85B20FE00B
:1021E0003DF814003DF81510884207DD3DF81460F5
:1021F0003DF815002DF814002DF81560681C85B207
:10220000052DEDDB601C84B2042CE6DB00270124E5
:1022100005E03DF81400384487B2601C84B2042CF9
:10222000F7DB032097FBF0F086B23046BDE8FE8373
:102230002DE9F04104460D46B8480078FFF7BCFF91
:102240000646B7480078FFF7B7FF074626802F807D
:102250000120BDE8F0817FB504460D4602A903A820
:10226000FFF7E6FF064616B9002004B070BD6946C8
:1022700001A8FFF7DDFF06460EB90020F5E7BDF81F
:102280000400BDF80C10884206DCBDF80C10BDF847
:102290000400323081420CDBBDF80C00BDF80410A4
:1022A000884236DCBDF80410BDF80C0032308142A3
:1022B0002FDABDF80000BDF80810884206DCBDF832
:1022C0000810BDF80000323081420CDBBDF8080078
:1022D000BDF8001088421CDCBDF80010BDF80800F5
:1022E0003230814215DABDF80C10BDF80420881890
:1022F00000EBD071C1F34F012180BDF80810BDF88B
:102300000020881800EBD071C1F34F012980012013
:10231000ABE70020A9E7F8B504460D46164681480C
:10232000068004F10D018AB2193988B22B4629467C
:10233000FEF73AFC05F10D0083B2193881B222464E
:102340002046FEF731FC6A1C91B2621C90B2FFF786
:10235000ADFA6A1C91B2621E90B2FFF7A7FA6A1E2C
:1023600091B2621C90B2FFF7A1FA6A1E91B2621E8E
:1023700090B2FFF79BFA002006230090694802887C
:1023800029462046FEF7D9FCF8BD70B504460D4637
:1023900016466448068029462046FFF787FA611CE6
:1023A00088B22946FFF782FA681C81B22046FFF7FF
:1023B0007DFA6A1C91B2621C90B2FFF777FA70BD89
:1023C0002DE9F041044651487C380068002853D17B
:1023D00024B15549881EFFF73EFF3CE05249881E54
:1023E000FFF739FFB8B350491239B1F9200002F0B4
:1023F0001FFF07464C491239088A02F031FF804618
:10240000494812388169404602F03EFF0646394687
:1024100002F0AEFD054602F0EBFE43491239088298
:10242000B1F9220002F004FF07463F491239488AF9
:1024300002F016FF80463C481238C169404602F05F
:1024400023FF0646394602F093FD054602F0D0FE12
:1024500035491239488234481238007D00F0800036
:1024600010BBC0203049123908750846008A88819F
:102470000846408AC88117E02B481238007D00F0DA
:10248000800040B128481238007D20F080002649A5
:102490001239087508E00020234912398881C88163
:1024A0004FF6FF70088248821F481238007D00F006
:1024B0008000BDE8F08170B51B49123988691B495D
:1024C00002F0E2FE054602F077FE044604222146B1
:1024D0002820FFF7B2FD14491239C869134902F0E8
:1024E000D3FE054602F068FE0446042221462C2055
:1024F000FFF7A3FD0C481238B0F92010022230205B
:10250000FFF79BFD0848123812E00000A481234227
:102510008481214200802142008023425C0000200F
:102520005D0000202C0000204600002020BCBE4C96
:10253000B0F9221002223220FFF77FFDFA4890F80E
:1025400024103420FFF750FD0A2421463520FFF7E0
:102550004BFD70BD70B53520FFF71AFD04460A2CFF
:1025600042D104212820FFF77DFD0446204602F0D9
:102570005FFE0546ED4902F05DFDEB4988610421EF
:102580002C20FFF76FFD0446204602F051FE054661
:10259000E64902F04FFDE449C86102213020FFF70F
:1025A00061FD00B2E049088402213220FFF75AFDA4
:1025B00000B2DD4948843420FFF7EAFCDA4981F8AB
:1025C0002400084690F8240030B19020D8490870C3
:1025D000D020D849087005E0D020D5490870902057
:1025E000D4490870012070BD0020FCE72DE9F84FA8
:1025F00004460D4617461E46DDE90CABDDE90A89A7
:102600004FF47840CC4908800120CCA31022A021AF
:1026100000902820FEF768FC0120C9A31022A02109
:1026200000907820FEF760FC0120C6A31022B421A0
:1026300000902820FEF758FC0120C3A31022B421EB
:1026400000907820FEF750FC0120C0A31022C82182
:1026500000902820FEF748FC0120BDA31022C821CD
:1026600000907820FEF740FC0120BAA31022DC2164
:1026700000902820FEF738FC0120B7A31022DC21AF
:1026800000907820FEF730FC0120B4A31022F02146
:1026900000902820FEF728FC102004232246A021C9
:1026A00000904020FEF766FC102004232A46A0215B
:1026B00000909020FEF75EFC102004233A46B421DF
:1026C00000904020FEF756FC102004233246B4212F
:1026D00000909020FEF74EFC102004234246C821B3
:1026E00000904020FEF746FC102004234A46C821F3
:1026F00000909020FEF73EFC102004235246DC217F
:1027000000904020FEF736FC102004235A46DC21BE
:1027100000909020FEF72EFC102000909148018838
:10272000032360200E9AFEF725FCBDE8F88F00B564
:1027300095B0002010900A9010901F207E490880CC
:102740004FF6FF7088490880FFF7E2F84FF47840B1
:10275000794908804FF6FF70FFF7DAF800207649D4
:102760000880012081A31022282100900A20FEF772
:10277000BBFB012085A31022382100900A20FEF720
:10278000B3FB01208AA31022482100900A20FEF703
:10279000ABFB01208EA31022582100900A20FEF7E7
:1027A000A3FB4FF4784214210846FFF7B4FD002044
:1027B0005D490875886154E25B48406809900120D2
:1027C000099988475848007D00F0C00040287AD118
:1027D00000200A905448007D20F0400052490875BE
:1027E0000846018A11AA109822F820104E48418A02
:1027F000109802EB800041801098401CC0B21090ED
:102800001098012806D0022815D0032829D00428C2
:1028100010D141E04FF6FF7214210846FFF77BFD0F
:1028200050480088143880B24FF47842142109903F
:10283000FFF771FDC8E34B480088143880B24FF6AB
:10284000FF7214210990FFF766FD4648408814384E
:1028500080B24FF47842014609901420FFF75BFDE7
:10286000B2E340484088143880B24FF6FF72014608
:1028700009901420FFF74FFD3A484088143880B281
:10288000099038480088143880B24FF47842089094
:102890000999FFF740FD97E3BDF84400BDF84810E3
:1028A000401A0990002801DB099801E0099840428C
:1028B0000D90BDF8461011A8C088081A099000288C
:1028C00002DB099802E080E3099840420C900D98E1
:1028D00040430D900C9840430C90DDE90C100844E7
:1028E000059002F05AF9CDE9060102F0F6F8CDE9BB
:1028F000080102F025F980B20F90BDF84C00BDF838
:102900005010401A0990002801DB099801E009984D
:1029100040420D9011A84189C089081A09900028E9
:1029200064DB099864E061E03400002020BCBE4C08
:102930005C0000205D0000202C00002078313A006F
:1029400079313A0078323A0079323A0078333A00F5
:1029500079333A0078343A0079343A00666163207A
:1029600069733A00940000202E000020506C6561CD
:1029700073652075736520746865207374796C7550
:102980007320636C69636B207468650063726F7396
:1029900073206F6E207468652073637265656E2E98
:1029A0005468652063726F73732077696C6C0000E4
:1029B000616C77617973206D6F766520756E7469CF
:1029C0006C207468652073637265656E200000007A
:1029D00061646A7573746D656E7420697320636FCA
:1029E0006D706C657465642E0000000009984042AB
:1029F0000C900D9840430D900C9840430C90DDE9ED
:102A00000C100844059002F0C8F8CDE9060102F068
:102A100064F8CDE9080102F093F880B20E900E98A8
:102A200002F01EFC09900F9802F01AFC0890099918
:102A300002F000FB0B900B9802F06EFA4FF066323A
:102A4000FE4BCDE9080102F0BBF80DD30B9802F064
:102A500063FAFB4AFB4BCDE9080102F041F903D3CD
:102A60000F9808B10E98E8BB00201090F6484088F7
:102A7000143880B20990F4480088143880B24FF6B8
:102A8000FF7208900999FFF746FC4FF47842142131
:102A90000846FFF740FCED490B9802F0F5FB089063
:102AA00002F0A6FB80B211A90990C989BDF8502097
:102AB00011AB5B89CDE90132CDE90310BDF84C00C3
:102AC000009011A8C0880890BDF848000790BDF894
:102AD00046000690BDF84400059006A90EC9FFF710
:102AE00085FD81E2FFE7BDF84400BDF84C10401AB7
:102AF0000990002801DB099801E0099840420D90F7
:102B0000BDF8461011A84089081A0990002801DB79
:102B1000099801E0099840420C900D9840430D90AF
:102B20000C9840430C90DDE90C100844059002F02D
:102B300034F8CDE9060101F0D0FFCDE9080101F03C
:102B4000FFFF80B20F90BDF84800BDF85010401A4A
:102B50000990002801DB099801E0099840420D9096
:102B600011A8C188C089081A0990002801DB0998BA
:102B700001E0099840420C900D9840430D900C984C
:102B800040430C90DDE90C100844059002F005F874
:102B9000CDE9060101F0A1FFCDE9080101F0D0FF68
:102BA00080B20E900E9802F05BFB09900F9802F035
:102BB00057FB0890099902F03DFA0B900B9802F030
:102BC000ABF94FF066329D4BCDE9080101F0F8FFFB
:102BD00009D30B9802F0A0F9994A9A4BCDE9080164
:102BE00002F07EF83ED200201090974840881438BA
:102BF00080B2099094480088143880B24FF6FF7272
:102C000008900999FFF787FB4FF478421421084692
:102C1000FFF781FB8D490B9802F036FB089002F01C
:102C2000E7FA80B20146099011A8C289BDF85000A8
:102C300011AB5B89CDE90130CDE90321BDF84C0032
:102C4000009011A8C0880890BDF848000790BDF812
:102C500046000690BDF84400059006A90EC9FFF78E
:102C6000C5FCC1E1BDF84800BDF84C10401A099000
:102C7000002801DB099801E0099840420D9011A855
:102C8000C1884089081A0990002801DB099801E0F1
:102C9000099840420C900D9840430D900C98404389
:102CA0000C90DDE90C100844059001F076FFCDE9A9
:102CB000060101F012FFCDE9080101F041FF80B2E9
:102CC0000F90BDF84400BDF85010401A099000283C
:102CD00001DB099801E0099840420D90BDF84610CB
:102CE00011A8C089081A0990002801DB099801E0A1
:102CF000099840420C900D9840430D900C98404329
:102D00000C90DDE90C100844059001F046FFCDE978
:102D1000060101F0E2FECDE9080101F011FF80B2E9
:102D20000E900E9802F09CFA09900F9802F098FA13
:102D30000890099902F07EF90B900B9802F0ECF8DC
:102D40004FF066323D4BCDE9080101F039FF09D360
:102D50000B9802F0E1F83A4A3A4BCDE9080101F04C
:102D6000BFFF3ED20020109037484088143880B210
:102D7000099035480088143880B24FF6FF720890E9
:102D80000999FFF7C8FA4FF4784214210846FFF773
:102D9000C2FA2E490B9802F077FA089002F028FA4E
:102DA00080B20246099011A8C089BDF8501011AB3D
:102DB0005B89CDE90131CDE90302BDF84C000090FB
:102DC00011A8C0880890BDF848000790BDF84600DB
:102DD0000690BDF84400059006A90EC9FFF706FC51
:102DE00002E1BDF84800BDF84410401A079002F017
:102DF0001FFA0990144800882838079002F018FA42
:102E00000890099902F016F911498861BDF8480047
:102E1000BDF844100844049002F00AFA05900C48EA
:102E2000806901460490059802F02EFA0790064842
:102E30000088059002F014FA06900BE06666EE3FFB
:102E4000CDCCCCCCCCCCF03F940000200000C842CC
:102E500034000020079902F0E3FA4FF08041089017
:102E600002F0E8F8099002F0A7F900B2844908845A
:102E700011A84089BDF84610401A079002F0D8F911
:102E80000990804840882838079002F0D1F90890CE
:102E9000099902F0CFF87A49C86111A84089BDF8B4
:102EA00046100844049002F0C3F905907448C069C4
:102EB00001460490059802F0E7F9079071484088B0
:102EC000059002F0CDF90690079902F0A9FA4FF0AB
:102ED0008041089002F0AEF8099002F06DF900B25E
:102EE0006749488408468069079002F065F90890B0
:102EF000002801DB089801E00898404202280DDC18
:102F00005F48C069079002F057F90990002801DB7B
:102F1000099801E00998404202283ADD002010900B
:102F200058484088143880B20990564800881438B0
:102F300080B24FF6FF7208900999FFF7ECF94FF451
:102F4000784214210846FFF7E6F901204EA310222B
:102F50001A2100902820FDF7C7FF494890F8240067
:102F600008B9012000E00020454981F82400084606
:102F700090F8240030B1902048490870D02048498A
:102F8000087005E0D0204549087090204449087039
:102F90002AE01F20434908804FF6FF70FEF7B8FC77
:102FA000012041A310226E2100902320FDF79CFFF9
:102FB0004FF47A70FEF7D5FAFFF77DFA4FF6FF70FF
:102FC000FEF7A6FC15B000BD00BF0A20FEF7C9FA47
:102FD0000A98401C80B20A900A98B0F57A7F02DD08
:102FE000FFF7B8FA02E000BFFFF7E6BB00BF00BF83
:102FF000E8E708B50121882001F014F80620ADF8B3
:10300000000010208DF8030003208DF802006946AF
:103010002B4800F04BFD0621294800F0F4FD4FF449
:103020000070ADF800006946264800F03FFD4FF4FF
:103030000071244800F0E7FD4FF4A060ADF80000F7
:1030400048208DF8030069461E4800F02FFD0C490A
:103050001231881EFFF7ECF8FEF796FFFFF77AFAB9
:1030600008B1002008BD4FF6FF70FEF751FCFFF7D6
:103070005EFBFFF720FAFFF76DFA0120F2E7000090
:1030800034000020940000205450204E65656420D8
:10309000726561646A757374210000005C00002031
:1030A0005D0000202C000020546F7563682053637E
:1030B0007265656E2041646A757374204F4B210000
:1030C000000C0140001C014070B50546002405E0DD
:1030D000601CC4B2C82C01DD002070BD02213A483A
:1030E00001F053F90028F3D02946374801F0FAF8E7
:1030F000002405E0601CC4B2C82C01DD0020ECE710
:103100000121314801F041F90028F3D02E4801F0A7
:10311000EBF8C0B2E1E700B587B00121082000F06C
:1031200081FF0121880300F08AFF4FF46040ADF871
:10313000180018208DF81B0003208DF81A0006A92E
:10314000224800F0B3FC4FF46041204800F05BFDE2
:103150000020ADF804004FF48270ADF806000020A6
:10316000ADF808000220ADF80A000120ADF80C000F
:103170004002ADF80E003820ADF810000020ADF888
:1031800012000720ADF8140001A90F4800F0D4FF89
:1031900001210D4801F075F8FF20FFF795FF07B0FA
:1031A00000BD10B50446084800884FF6C7710840B6
:1031B000054908800846008820430880012102480C
:1031C00001F05FF810BD000000380040000C014025
:1031D00000B587B001214FF4847000F023FF4FF455
:1031E0008050ADF8180010208DF81B0003208DF8DA
:1031F0001A0006A9FD4800F059FC4FF48051FB4825
:1032000000F001FD4FF4C070ADF8180006A9F848B1
:1032100000F04CFC4020ADF8180028208DF81B0071
:1032200006A9F34800F042FC4FF4E071F04800F0CA
:10323000ECFCFFF770FF0021EE4801F022F80020BF
:10324000ADF804004FF48270ADF806000020ADF830
:103250000800ADF80A00ADF80C004FF40070ADF8AE
:103260000E001820ADF810000020ADF81200072065
:10327000ADF8140001A9DF4800F05EFF0121DD4830
:1032800000F0FFFF0020DC4908600120DB49C1F8A5
:103290009C0107B000BD2DE9F04107460D461646DA
:1032A0000020D549091F08603846FFF70DFF80460A
:1032B000002405E0FF20FFF707FF2855601CC4B27B
:1032C000B442F7DB0120CC49091F08604046BDE845
:1032D000F0812DE9F04107460C4615460020C6490D
:1032E000091F08603846FFF7EFFE8046002605E01C
:1032F00014F8010BFFF7E8FE701CC6B2AE42F7DB14
:103300000120BD49091F08604046BDE8F0811CB599
:10331000BBA103C9CDE900010820FFF742FF052248
:1033200069463020FFF7D5FF052269461020FFF7D8
:10333000B2FF002406E01DF80400A52800D003E039
:10334000601CC4B2052CF6DB00BF052C01D00120A7
:103350001CBD0020FCE770B505460C460020A649C0
:10336000091F08602846FFF7AFFE06462046FFF714
:10337000ABFE0120A149C1F89C01304670BD70B57B
:10338000044600209C49091F08602046FFF79CFE68
:10339000FF20FFF799FE054601209849C1F89C01DE
:1033A000284670BD70B505461020FFF7FAFE0020D4
:1033B0009149086020222946A020FFF78AFF0120BA
:1033C0008E49C1F8A00100BF8B48883800680028EA
:1033D000FAD10720FFF7D3FF044621462720FFF745
:1033E000BAFF04F0100028B1FF21E120FFF7B3FF7E
:1033F000102070BD04F0200008B12020F9E7FF2064
:10340000F7E770B504461020FFF7CBFE0720FFF763
:10341000B6FF054629462720FFF79DFF05F040002F
:1034200050B1202221466120FFF735FFFF21E22025
:10343000FFF791FF002070BD0120FCE710B50020D0
:103440006D490860052270492A20FFF742FF0121DB
:103450002120FFF780FF01212220FFF77CFF282198
:103460002520FFF778FF20213120FFF774FF0F217F
:103470002620FFF770FF0F212020FFF76CFF0120AF
:103480005E49C1F8A00110BD10B500205A4908607E
:1034900005225E493020FFF71CFF05225A492A20E9
:1034A000FFF717FF01212120FFF755FF01212220FF
:1034B000FFF751FF1A212420FFF74DFF2821252077
:1034C000FFF749FF0F212620FFF745FF0E2120209F
:1034D000FFF741FF01204949C1F8A00110BD1CB50B
:1034E000FFF7D2FF3220FEF73CF85520019001A8EB
:1034F000FFF758FF202807D1012045A310225A21A9
:1035000000901E20FDF7F0FC1420FEF72AF8FFF7CC
:1035100095FF24E03220FEF724F801A8FFF771FFA1
:10352000A8B99DF80400562808D101203FA3102215
:10353000782100901E20FDF7D7FC11E0012042A366
:103540001022782100901E20FDF7CEFC07E001201C
:1035500045A31022782100901E20FDF7C5FCD9E775
:1035600000BF1CBD2DE9F04107460C461546002062
:103570002149091F08603846FFF7A6FD804600264E
:1035800005E014F8020BFFF79FFD701CC6B2AE42B7
:10359000F7DB01201849091F08604046BDE8F081AB
:1035A00070B505461020FFF7FCFD002012490860A9
:1035B00020222946A020FFF7D5FF01200F49C1F89E
:1035C000A00100BF0C48883800680028FAD1072005
:1035D000FFF7D5FE044621462720FFF7BCFE04F086
:1035E000100010B1FF21E12050E053E0000C014039
:1035F0000020014000380040A00124420000244285
:10360000A5A5A5A5A50000009D690008986900086A
:103610004E524632344C30312068617665207365F5
:103620006E64206461746121000000004E524632D5
:10363000344C303120436F6E6E6563742053756374
:1036400065737321000000004E524632344C303115
:1036500020526563696576652057726F6E672044F6
:1036600061746121000000004E524632344C30310A
:103670002068617665206E6F742072656369657677
:103680006520616E7920646174612100FFF763FE3B
:10369000102070BD04F0200008B12020F9E7FF20C1
:1036A000F7E7000070B503460C4603E014F8015B31
:1036B00003F8015B151EA2F10102F7D170BD30B510
:1036C000034601E003F8011B141EA2F10102F9D127
:1036D00030BD10B504467A4951F824104A007949A2
:1036E00051F824000021FFF7EAFF774951F8242020
:1036F0007449083951F824000021FFF7E0FF012147
:1037000070480830015510BD10B501460023002255
:1037100007E06C4850F8210030F8120000B15B1C43
:10372000521C674850F821009042F2D86420584358
:10373000634C54F82140B0FBF4F0C0B210BD2DE949
:10374000F04704460F460025A9465E480830005D54
:1037500020B95C4810380168204688471FB94FF0EF
:10376000FF30BDE8F087594850F82400B7FBF0F669
:10377000564850F82400B7FBF0F100FB117000B17F
:10378000761C4F4850F82400451E20E04D4850F864
:10379000240030F8150010B909F1010901E04FF0DB
:1037A0000009B14512D14FF0000808E0454850F833
:1037B000240005EB080220F8126008F10108B0456A
:1037C000F4D3424850F824006843CAE76D1E002D28
:1037D000DCDA4FF0FF30C4E72DE9F04104460E4635
:1037E00038480830005D38B936481038016820463E
:1037F00088470120BDE8F081334850F82400B042EA
:1038000017D9324850F82400B6FBF0F12D4850F893
:10381000240030F81120002507E00023294850F843
:1038200024004F1920F817306D1C9542F5DB00205D
:10383000E0E70220DEE770B505460C4604B970BD2E
:103840002048083850F82500261A31462846FFF748
:10385000C3FF00BFF3E770B504460E46314620466D
:10386000FFF76DFF0546681C08B9002070BD1548BC
:10387000083850F824002844F8E72DE9F0410446C0
:103880000F46164631462046FFF759FF0546681C8D
:1038900010B90020BDE8F0810A49083951F8241018
:1038A000481932463946FFF7FDFE39462046FFF7F4
:1038B000C2FF0448083850F824002844EAE7000012
:1038C000A469000874000020B4690008AC6900080D
:1038D0000948804709480047FEE7FEE7FEE7FEE7A4
:1038E000FEE7FEE7FEE7FEE7FEE7FEE704480549E0
:1038F000054A064B704700009B160008310100087E
:1039000020AB002020B1002020AD002020AD002001
:1039100031490143314A1160704770B500210023DD
:103920000F22C47804B32D4C246804F4E064C4F579
:10393000E064210AC1F10403CA40447804FA03F1A7
:103940008478144021430901254C0678A155047858
:1039500004F01F050124AC4005786D11AD0005F1A0
:10396000E025C5F8004109E0047804F01F050124B2
:10397000AC401C4D0678761145F8264070BD1A4AB9
:103980000A400243154B1B1F1A60704739B1134A96
:10399000121D12680243114B1B1D1A6006E00F4AEC
:1039A000121D126882430D4B1B1D1A6070470428BC
:1039B00008D14FF0E021096941F004014FF0E02205
:1039C000116107E04FF0E021096921F004014FF097
:1039D000E0221161704700000000FA050CED00E0E4
:1039E00000E400E080E100E080FFFF1F10B5044626
:1039F000CC48844208D10121042000F02DFB002195
:103A0000042000F029FB46E0C748844208D1012188
:103A1000082000F021FB0021082000F01DFB3AE007
:103A2000C248844208D10121102000F015FB00217A
:103A3000102000F011FB2EE0BD48844208D1012186
:103A4000202000F009FB0021202000F005FB22E0EF
:103A5000B848844208D10121402000F0FDFA00213D
:103A6000402000F0F9FA16E0B348844208D1012161
:103A7000802000F0F1FA0021802000F0EDFA0AE049
:103A8000AE48844207D10121801500F0E5FA0021FB
:103A9000A01500F0E1FA10BD10B50121084600F0B4
:103AA000DBFA0021012000F0D7FA10BD2DE9F0412A
:103AB000024600250026002000230024002791F85C
:103AC00003C00CF00F0591F803C00CF0100CBCF112
:103AD000000F03D091F802C04CEA050591F800C030
:103AE000BCF1000F31D0146800202BE04FF0010C26
:103AF0000CFA00F3B1F800C00CEA03069E4220D194
:103B000083004FF00F0C0CFA03F7BC4305FA03FCDB
:103B10004CEA040491F803C0BCF1280F06D14FF021
:103B2000010C0CFA00FCC2F814C00AE091F803C0C2
:103B3000BCF1480F05D14FF0010C0CFA00FCC2F8A3
:103B400010C0401C0828D1D31460B1F800C0BCF1EB
:103B5000FF0F34DD546800202EE000F1080C4FF018
:103B6000010808FA0CF3B1F800C00CEA03069E4203
:103B700021D183004FF00F0C0CFA03F7BC4305FA78
:103B800003FC4CEA040491F803C0BCF1280F05D1F2
:103B900000F1080C08FA0CF8C2F8148091F803C080
:103BA000BCF1480F07D100F1080C4FF0010808FAEA
:103BB0000CF8C2F81080401C0828CED35460BDE831
:103BC000F0814FF6FF710180022181700421C170E4
:103BD00070470246002093680B400BB1012000E0C3
:103BE000002070470146886880B270470246002076
:103BF000D3680B400BB1012000E000207047014664
:103C0000C86880B2704701617047416170470AB16E
:103C1000016100E041617047C16070474FF480323C
:103C20000A438261816182618269826970470246CA
:103C30000020434B18684FF68073184040EA02108A
:103C400008433F4B186070473E49C8617047F0B564
:103C50000A46002300240021002500F00046B6F1AA
:103C6000004F02D1364EF16901E0354E7168C0F364
:103C7000034583B200F44016B6F5401F08D121F089
:103C800070612F4E766826F070662D4F7E6012E0D0
:103C900000F48016B6F5801F06D1032606FA05F457
:103CA000A14341F0706106E0460D360103FA06F6C5
:103CB000B14341F0706122B1460D360103FA06F6B8
:103CC000314300F00046B6F1004F02D11C4EF161C5
:103CD00001E01B4E7160F0BD30B500228B071C0F58
:103CE0000F2303FA04F2164B08338C1053F82430D8
:103CF0009343134C08348D1044F8253023468C1020
:103D000053F824308C07240F00FA04F423430C4C9E
:103D100008348D1044F8253030BD0A49DC31086084
:103D20007047000000080140000C014000100140F5
:103D30000014014000180140001C01400020014017
:103D40000000014000002042DF48006840F0010010
:103D5000DD49086008464068DC490840DA494860A7
:103D600008460068DA490840D749086008460068F4
:103D700020F4802008600846406820F4FE00486077
:103D80004FF41F0088607047CF49096821F48031E3
:103D9000CD4A11601146096821F480211160B0F507
:103DA000803F03D0B0F5802F0ED106E0C6490968E8
:103DB00041F48031C44A116007E0C349096841F405
:103DC000A021C14A116000E000BF00BF704710B5DC
:103DD00001460022002300204A11012A02D1BA4CD8
:103DE000236806E0022A02D1B74C236A01E0B64CF0
:103DF000636A01F01F02012494401C400CB10120B1
:103E000000E0002010BD38B50020009000240025FF
:103E100000BF3120FFF7DBFF05460098401C0090F3
:103E20000098B0F5A06F01D0002DF2D03120FFF73F
:103E3000CEFF08B1012400E00024204638BD014631
:103E40000020A14A106820F0F80040EAC10010608C
:103E50007047A04908607047024600209A4B586896
:103E600020F47C1042EA01031843974B58607047D6
:103E700098490866704701460020934A506820F030
:103E800003000843506070478F48406800F00C0002
:103E90007047014600208C4A506820F0F00008432B
:103EA0005060704701460020874A506820F4E06067
:103EB00008435060704701460020834A506820F450
:103EC000605040EAC1005060704729B17E4A527A82
:103ED00002437D4B5A7204E07B4A527A82437A4B0A
:103EE0005A7270477B49D8310860704701460020FC
:103EF000754A506820F440400843506070470021E4
:103F0000714A20321170704A82F82010012802D0C4
:103F100004280AD104E001216B4A2032117005E027
:103F20000521694A2032117000E000BF00BF7047D0
:103F30006949086070476449096A0143624A11622D
:103F40007047654944390860704730B50021002248
:103F5000002400235C4D6D6805F00C0121B104299B
:103F600005D0082923D105E05C4D056022E05B4DBA
:103F700005601FE0544D6D6805F47012524D6D6878
:103F800005F48034022505EB92421CB9544D55438B
:103F900005600BE04C4D6D6805F400351DB1504DCA
:103FA0005543056002E04D4D5543056002E04B4D21
:103FB000056000BF00BF444D6D6805F0F0010909C0
:103FC000484D6B5C0568DD4045603F4D6D6805F40C
:103FD000E061090A434D6B5C4568DD4085603A4D00
:103FE0006D6805F46051C90A3E4D6B5C4568DD4063
:103FF000C560354D6D6805F44041890B3A4D6B5CE9
:10400000C568B5FBF3F5056130BD29B12E4A52698B
:1040100002432D4B5A6104E02B4A526982432A4BDA
:104020005A61704729B1284A92690243264B9A6126
:1040300004E0254A92698243234B9A61704729B173
:10404000214AD2690243204BDA6104E01E4AD26958
:1040500082431D4BDA61704729B11B4AD268024383
:10406000194BDA6004E0184AD2688243164BDA60D2
:10407000704729B1144A12690243134B1A6104E0D4
:10408000114A12698243104B1A6170471249403934
:10409000086070470F49C86470470B49C871704782
:1040A0000948406A40F080700749486270470146FD
:1040B0000020054A92680A400AB1012000E0002071
:1040C0007047014988727047001002400000FFF8F5
:1040D000FFFFF6FE000042428004424200127A00D6
:1040E00000093D00800000209000002010B504462B
:1040F000BE48844208D101218014FFF7ADFF0021A2
:10410000A014FFF7A9FF16E0B948844208D10121A5
:104110000014FFF7AEFF00212014FFF7AAFF0AE00A
:10412000B448844207D10121C013FFF7A2FF002148
:10413000E013FFF79EFF10BD10B50022028802F4C5
:1041400041520B884C8823438C882343CC882343DB
:104150000C8923434C8923438C892343CC892343F3
:104160001A430280838B4FF2FF74234083830B8AB0
:10417000038210BD2DE9F04F85B005460C464FF087
:10418000000902274FF000084FF0010B0026B2464D
:10419000A88B4FF240010840A88302202884B5F87C
:1041A0001C90A068022801D100BF38E0A08810B997
:1041B0004FF0010B01E04FF0020B8D48854200D11A
:1041C00000E000BF6846FFF7C0FEDDF800A0E08811
:1041D000B0F5007F0AD14FEA1A2000EB80004000C2
:1041E000A168B0FBF1F0401D86B20BE04FEA4B1026
:1041F000BAFBF0F000EB80004000A168B0FBF1F0EA
:10420000401D86B20A20B6FBF0F606F00108A6EBC8
:104210000800C0F34F074FF6FF7000EA0828022F8E
:1042200001DBFF2F02DD02274FF00008E08840EAA3
:10423000080038432884A088A1890843618808437E
:104240002188084340F4006040EA0909A5F81C9061
:1042500005B0BDE8F08F0021018041808180C180E0
:10426000018141818181C181072101827047002143
:10427000018041808180C180022181600021818193
:10428000704721B1028842F04002028004E00288B7
:104290004FF6BF731A400280704721B1828B42F4FF
:1042A0008062828304E0828B4FF6FF331A40828360
:1042B000704730B5002400230C110125A540ABB296
:1042C0001AB185881D43858002E085889D438580DD
:1042D00030BD1AB183880B43838002E083888B430F
:1042E00083807047818170470146888970474FF607
:1042F000FF62914204D0028842F48072028004E09E
:1043000002884FF6FF631A400280704721B182880D
:1043100042F00402828004E082884FF6FB731A4068
:104320008280704702884FF2FF731A400280028831
:104330000A4302807047018841F480510180704730
:1043400021B1028842F40052028004E002884DF656
:10435000FF731A400280704702460020012901D0F5
:10436000108B00E0908A70470146088A7047B1F5CB
:10437000804F04D1028842F48042028004E0028827
:104380004BF6FF731A4002807047024600201389E3
:104390000B400BB1012000E000207047CA430281AE
:1043A0007047F0B50246002000240023002501F0EC
:1043B0000F070126BE40B4B20B1101269E40B3B2D6
:1043C000968806EA03051689264016B10DB101202C
:1043D00000E00020F0BD10B5002201F00F04012321
:1043E000A3409AB2D343038110BD000000300140C6
:1043F00000380040003C004030B943F2DB0281004D
:10440000A1F1C0410A6005E043F2D2028100A1F1AE
:10441000C0410A606FF07042411C8900A1F1C041A7
:104420000A608100A1F1C041C1F804217047102841
:104430000AD118214FF020421166402151664FF0F9
:10444000FC319166D16610E01821F74A11604021D5
:104450004FF02042C2F884104FF0FC31F24A08328B
:1044600011604FF02042C2F88C1070471820EE49BE
:104470002031086000200906C1F8A4004FF0FC308C
:10448000E94928310860091D0860091D0860704766
:10449000D0E901121143C268114302691143426914
:1044A000114382691143C2691143026A1143426A8E
:1044B0001143826A1143C26A1143026B11430268BD
:1044C0009200A2F1C0421160816808290BD10168F5
:1044D0008900A1F1C041096841F0400201688900EA
:1044E000A1F1C0410A60416B0968426B526841EA20
:1044F0000211426B926841EA0221426B928941EAC1
:104500000241426B128A41EA0251426B127D41EA3A
:104510000261426B926911430268521C9200A2F13F
:10452000C0421160C16AB1F5804F1BD1816B09682F
:10453000826B526841EA0211826B926841EA022161
:10454000826B128A41EA0251826B127D41EA02615A
:10455000826B9269114302689200A2F1C042C2F8D4
:10456000041107E06FF0704201688900A1F1C041B9
:10457000C1F80421704730B50021002200234468AF
:1045800044F0080485682C43C5682C4305692C4316
:10459000456944EA4524856944EA4531C46924688B
:1045A000C5696D6844EA0524C5692D8944EA054456
:1045B000C5692D7B44EA0562046A2468056A6D6852
:1045C00044EA0524056A2D8944EA0544056A2D7BE1
:1045D00044EA05630468102C05D14FF0204421669D
:1045E000A266E36608E0904C21604FF02044C4F8D6
:1045F00088208D4C0C34236030BD016841F01001DF
:10460000426841EA4221826841EA4231864A2032C8
:104610001160C1680968C268526841EA0221C26833
:10462000128941EA0241C268127B41EA02617E4A74
:1046300028321160016909680269526841EA022161
:104640000269128941EA02410269127B41EA026170
:10465000754A2C321160416909684269526841EA21
:1046600002214269128941EA02414269127B41EA10
:1046700002614FF02042C2F8B01070470021016083
:104680000221416000218160C1600161416181615D
:10469000C16101624FF48051416249008162002191
:1046A000C16201630F21426B1160426B5160FF21B7
:1046B000426B91600F21426BD160426B1161426B82
:1046C00051610021426B91610F21826B1160826BFD
:1046D0005160FF21826B91600F21826BD160826BF0
:1046E0001161826B51610021826B916170471021D1
:1046F0000160002141608160C160016141618161AF
:10470000FC21C2691160C2695160C2699160C269CD
:10471000D160026A1160026A5160026A9160026AA5
:10472000D16070470021016041608160FC21C26856
:104730001160C2685160C2689160C268D16002694C
:10474000116002695160026991600269D160426939
:10475000116042695160426991604269D16070475D
:1047600051B18200A2F1C042126842F001038200FE
:10477000A2F1C042136009E08200A2F1C0421268B7
:104780002A4B1A408300A3F1C0431A60704799B1C5
:10479000102808D14FF02042126E42F004024FF070
:1047A00020431A661DE0204A126842F004024FF0CE
:1047B0002043C3F8802014E0102809D14FF0204294
:1047C000126E1A4BDB1E1A404FF020431A6608E0A7
:1047D000154A1268154BDB1E1A404FF02043C3F8F0
:1047E0008020704748B110492031096841F0040128
:1047F0004FF02042C2F8A01009E00B4920310968AF
:104800000A4AD21E11404FF02042C2F8A010704751
:10481000B9B110280CD14FF02042126E42F0400284
:104820004FF020431A661FE0800000A0FEFF0F003B
:10483000724A126842F040024FF02043C3F88020D1
:1048400012E0102808D14FF02042126E6C4B1A4033
:104850004FF020431A6607E0684A1268684B1A4016
:104860004FF02043C3F880207047014600201029F4
:1048700003D14FF02042506F02E0604A14321068BA
:10488000704710B5F2B1102807D14FF020435B6E8E
:104890000B434FF02044636632E0B0F5807F08D1CF
:1048A000564B1B1D1B680B434FF02044C4F884304B
:1048B00026E0524B24331B680B434FF02044C4F8CE
:1048C000A4301DE0102807D14FF020435B6E8B43CE
:1048D0004FF02044636613E0B0F5807F08D1474B6A
:1048E0001B1D1B688B434FF02044C4F8843007E045
:1048F000424B24331B688B434FF02044C4F8A43050
:1049000010BD10B5024600200023102A03D14FF03D
:104910002044636E09E0B2F5807F03D1374C241D3B
:10492000236802E0354C2434236803EA01040CB107
:10493000012000E0002010BD102807D14FF02042D8
:10494000526E8A434FF020435A6613E0B0F5807FE1
:1049500008D12A4A121D12688A434FF02043C3F837
:10496000842007E0254A243212688A434FF020430E
:10497000C3F8A420704770B502460020002300242D
:104980000025102A03D14FF02046736E09E0B2F5DE
:10499000807F03D1194E361D336802E0174E24364E
:1049A000336803EA010403EAD10514B10DB1012013
:1049B00000E0002070BD102808D14FF02042526E58
:1049C00022EAD1024FF020435A6615E0B0F5807F0D
:1049D00009D10A4A121D126822EAD1024FF020437F
:1049E000C3F8842008E0054A2432126822EAD10282
:1049F0004FF02043C3F8A42070470000800000A0BF
:104A0000BFFF0F0010B5431C02E010F8011B71B18D
:104A10008107FAD14FF0013202C88C1A8C4314EA94
:104A2000C211F9D0C01A0A0603D0C01E10BDC01AA8
:104A300010BD0A0401D0801E10BD0902FCD0401E2A
:104A400010BD70477047704710B500F009F8006856
:104A500010BD10B5044600F003F8046010BD00005E
:104A600000487047C0AA002000487047C0AA002034
:104A70007546FFF7F9FFAE4605006946534620F03C
:104A80000700854618B020B5FEF730FFBDE820408E
:104A90004FF000064FF000074FF000084FF0000BFA
:104AA00021F00701AC46ACE8C009ACE8C009ACE8AD
:104AB000C009ACE8C0098D46704710B50446AFF395
:104AC00000802046BDE81040FBF779BB0149182063
:104AD000ABBEFEE72600020070472DE9F041064616
:104AE0000F4600F033F9041E0D4618BF012028437D
:104AF00020F00040C0F17F6000F1E040C00F0ED018
:104B0000301C18BF0120384320F00040C0F17F6006
:104B100000F1E040C00F04BF0120FFF79AFF2046DC
:104B20002946BDE8F081491058BFC1F140415B10F2
:104B300058BFC3F140438B42EFF300807047000041
:104B40004FEA1153A3F58063D3F11E03A8BFD3F13D
:104B5000200C08DB4FF0004242EAC12252EA5052D8
:104B600032FA03F0704709420BD4102BC4BF002067
:104B7000704703F5787CBCF1FF3F05D04FF0FF3064
:104B800070474FF00000704770B500F055F800BF57
:104B90004992248000207047F0E7B0FA80F310FAC1
:104BA00003F10AD0C3F11D0303F580634FEA4150BE
:104BB0004FEA035202EBD12170474FF000007047DB
:104BC00051EA030C17D41CF5801F58BFBCF5801F99
:104BD00000F10680994218BF704708BF90427047A5
:104BE00007D711F5801F58BF13F5801F19D49942BC
:104BF0007047894270471CF5801F08D5BCF5801F9F
:104C0000F7D58B4218BF704708BF824270474FF4F8
:104C1000001C1CEB410F38BF1CEB430F01D28B4231
:104C2000704770B500F008F8922449004FF0005129
:104C30004FF08053FFF777BF0EF1020E2EF0030EF8
:104C40005EF8046B364205D4012A43EB030515F5E3
:104C5000001F12D8012841EB010C1CF5001F0CD8D5
:104C60000ED14FEAD17C15F5001F0CEB4C0C0CF16A
:104C7000020C08BF4CEBD37C04E04FF0080C01E0C1
:104C80004FEAD37C0CEB4C0526FA05F606F0070636
:104C9000B6F1040C06D20EEB860CBDE870404CF069
:104CA000010C6047DFE80CF0090B02024FF00041F5
:104CB0004FF00000A1F5002170BD194610460128F3
:104CC00051EB010418BFD4F5001484BF002001F09B
:104CD000004170BD0808A0F500114FEA310170478E
:104CE00053EA010C17D41CF5801F58BFBCF5801F78
:104CF00000F106808B4218BF704708BF82427047A0
:104D000007D713F5801F58BF11F5801F19D48B42A8
:104D100070479B4270471CF5801F08D5BCF5801F6B
:104D2000F7D5994218BF704708BF904270474FF4BB
:104D3000001C1CEB430F38BF1CEB410F01D2994202
:104D400070470FB40CBC03BCFFF76BBF2DE9F041FB
:104D500001F5801CBCF5001FC0F2C3804FEA115C56
:104D600021EA0C510CF1FD0C41F480115FEA5C0C5E
:104D70000CF5C07C01D3400049413DA4890241EAC1
:104D8000905187028E0E0A0CA45D04FB04F602FB10
:104D900006F6C6F14046A4FB0662F60D46EA422638
:104DA00006FB06F4A4FB01235242C3F1404338BF83
:104DB0005B1EA6FB02420024E6FB0324D20B42EA60
:104DC0004446A6FB0623A1FB02E2A3FB07E4A418CA
:104DD0004FF0000252F10002E3FB01426442C2F1D3
:104DE000404E38BFAEF1010EA6FB04234FF0000287
:104DF000E6FB0E32A2FB03464FF00004B61954F155
:104E00000004E2FB0264A1FB06E6A4FB07E816EB44
:104E100008064FF0000858F10008E4FB01687642EC
:104E2000C8F1405838BFA8F10108A2FB06E4A3FB73
:104E300008E52D194FF0000454F10004E2FB08547A
:104E4000A1FB05E6A7FB04E818EB06084FF00006F7
:104E500056F10006E1FB048618F1200556F1000624
:104E6000A809A8F11B08B10908F03F08B8F10A0F1A
:104E700040EA86601CD901EB0C51BDE8F08100BF0F
:104E8000FCF5EEE8E2DDD8D3CFCBC7C3C0BDB9B6E1
:104E9000B4B1AEACA9A7A5A3A19F9D9B9A989695E6
:104EA0009392908F8D8C8B8988878685848382816D
:104EB000A0FB006800FB01F208EB4208B8EB872872
:104EC00007D5341858EB0104D5D5401C51F1000129
:104ED000D1E7341A78EB0104CDD4401E71F1000102
:104EE000C9E75FEA4C0C5FEA9C5C0DD105D34FF03B
:104EF000000001F00041BDE8F081BDE8F04170B56F
:104F0000FFF79AFE6DDBFFBEBDE8F0414FF00000F9
:104F1000004970470000F87F43004FEAD30C4FEA86
:104F20003C0C43401FBF40070CF1605113F0FE4F93
:104F300070471CF0006F03D100200CF00041704757
:104F40000CF0004343EA507010B540EACC0000F08A
:104F50001CFA00BF000000924FEA0001FFF7BABE42
:104F60004FF000414FF00000A1F500217047000014
:104F700090EA010F48BF81F0004100F15882421AC7
:104F80003CBF801A89184FEAD0524FF07F4C1CEA80
:104F9000410FA2EBD15318BF9CEA026F00F03B8097
:104FA0004FF0004C4CEA00204CEA012121FA03FCAE
:104FB00010EB0C0C1ED202F1FF325FEA1C2040EB1A
:104FC000C25038BF70471CF07F0F4FEA400C18BF2B
:104FD000BCF17F4F38BF7047C3F12003994008BF31
:104FE00020F00100BCF17F4F38BF7047A0F1C040F6
:104FF00000F011BA4FEA3C00000A40EBC25028BF53
:105000001CF0FF0F4FEA400CE6D018BFBCF17F4FF9
:1050100038BF7047EAE79CEA026F05D010EA5C0FE0
:1050200008BF00F00040704710B500F0AEF900BFB7
:1050300064FBBE3E4FF47F0C1CEAD0121EBF1CEA7C
:10504000D11392EA0C0F93EA0C0F00F0858090EADE
:10505000010F48BF42F4807240F4000C41F400009C
:105060002CF07F4120F07F4000B58142A2EB03028B
:105070000FF2081CACEB504EC0F100009EF800E0AF
:105080004FEA4E0E00FB0EFC38BF49004FEA2C1CC5
:1050900002F5FA020CFB0EF34FEACE1E4FEA112C7A
:1050A0004FEAC1210EEB635E42EB22420EFB0CFC89
:1050B0004FEA1C5300FB03114FEA112C4FEA013158
:1050C0000EFB0CFC4FEADC4C00FB0C11C14228BF6C
:1050D00009184CEB03335DF804EB10EB410143EB93
:1050E000C250B2F57C0F38BF704729D512F0F00FCF
:1050F0001CBF00F1C04000F0004070470081828377
:105100008485868788898B8C8D8E8F9192939596D6
:1051100097999A9C9D9FA0A2A3A5A7A8AAACAEB060
:10512000B2B3B5B7B9BCBEC0C2C5C7C9CCCED1D465
:10513000D7D9DCDFE2E6E9ECF0F3F7FAFE00000095
:105140004FEA400C0CF1807CBCF17E4F28BF7047C9
:10515000B0F1C04000F05FB990EA010F0CEAD11342
:1051600048BF42F48072624538BF634507D213F4EA
:105170007F0F16D080EA010000F00040704710B5A4
:1051800000F003F9097EFC3E00F005B880EA01005A
:1051900000F00040704780EA010000F0004000F09D
:1051A0003AB912F47F0F04BF0248704780EA010049
:1051B00000F031B90000C07F41000B0ED3F19E0218
:1051C00008D950F400034FEA032323FA02F048BF42
:1051D0004042704710B500F0D8F800BF49922480D3
:1051E000002070476FF0004282EA20007047000004
:1051F000C10DD1F19E0206DB4FEA002343F00043CC
:1052000023FA02F07047004207D54FEA4001B1F19E
:10521000FE4F02D24FF00000704710B500F0B5F815
:1052200049922480002070476FEA200070470000F8
:1052300010F0004148BF4042B0FA80F310FA03F288
:10524000C3F19D030BD051EAC35101EB1220530669
:1052500038BF704700F1010008BF20F0010070471F
:10526000B0FA80F310FA03F2C3F19D030AD0D90516
:1052700001EB1220530638BF704700F1010008BF50
:1052800020F00100704700004FF47F0C1CEAD012A0
:105290001EBF1CEAD11392EA0C0F93EA0C0F00F028
:1052A000478090EA010F48BF42F480724FF0004CF3
:1052B0004CEA00204CEA012102EB0302A0FB01139F
:1052C000A2F50002002918BF43F001035B0028BFCC
:1052D0004FEA330342EB22425FEA132C4CEBC250FD
:1052E0002EBFBCEB436FB2F57C0F70474FEA036CE7
:1052F000BCF1004F08BF20F00100B2F57C0F38BFB1
:1053000070470BD582F0FF0212F5803FC8BF70478F
:1053100000F1C040D8BF00F00040704700F5000C1D
:105320005FEA4C0C48BF7047B0F1C04000F073B862
:1053300090EA010F0CEAD11348BF42F48072624533
:1053400038BF634504D280EA010000F00040704796
:1053500010B500F01AF800BF8900013E00F007B850
:1053600000F009B85FEA410C5FEA1C6C08D080EAE3
:10537000010000F050B85FEA400C5FEA1C6CF6D107
:105380004FF00040A0F5800070470EF1020E2EF0A5
:10539000030E5EF8044B244204D44FEA4102B2F1FA
:1053A0007F4F11D84FEA4003B3F17F4F0CD80ED195
:1053B0004FEAD07CB2F17F4F0CEB4C0C0CF1020C9D
:1053C00008BF4CEBD17C04E04FF0080C01E04FEA41
:1053D000D17C0CEB4C0324FA03F404F00704B4F181
:1053E000040C06D20EEB840CBDE810404CF0010C0E
:1053F0006047DFE80CF0070802024FF00040A0F51C
:10540000800010BD0846420018BFD2F1807288BFEC
:1054100000F0004010BDFF2141EAD050C0057047A8
:1054200090EA010F48BF81F000413FF5A8AD421A54
:1054300004D882F00042A0EB020011444FEAD0529F
:105440004FF07F4C1CEA410FA2EBD15318BF9CEAEE
:10545000026F4AD04FF0004C4CEA00204CEA012188
:1054600021FA03FCB0EB0C0C0FD412F0FE0F36D077
:105470005FEA4C001DD5001240EBC25038BF7047A8
:105480001CF03F0F18BF70470BE0A2F101025FEA6A
:105490001C2040EBC25038BF70471CF07F0F18BF74
:1054A0007047C3F12003994014BF401E20F0010053
:1054B000704780084FEA122308BF7047B0FA80FC9B
:1054C000A2EB0C02CCF1280C60FA0CF093EA122F3C
:1054D00004BF00EBC25070474FEAC3707047130A15
:1054E0005FEADC1008BF7047F6E79CEA026F04D061
:1054F00010EA5C0F08BF0020704710B5FFF745FFAA
:1055000040DFF63E81F000407047000000000000E0
:10551000000000000000000004040404040400046F
:10552000000000140A0A0000000000000000000053
:1055300014143F140A3F0A0A000000041E15050651
:105540000C14150F0400000012150D0A142C2A1259
:1055500000000000040A0A1E1515093600000002AA
:1055600002010000000000000000002010080808F0
:1055700008080810200000020408080808080804A9
:10558000020000000004150E0E15040000000000CB
:105590000404041F040404000000000000000000D4
:1055A00000000002020100000000001F00000000D7
:1055B00000000000000000000000000200000010D9
:1055C0000808080404020202010000000E11111173
:1055D0001111110E00000000040604040404040E5E
:1055E000000000000E1111080402011F000000005D
:1055F0000E11100C1010110E00000000080C0A0A09
:10560000091E0818000000001F01010F1010110EE4
:10561000000000000E09010F1111110E0000000022
:105620001F09080404040404000000000E11110EF8
:105630001111110E000000000E1111111E10120E9A
:105640000000000000000400000000040000000052
:105650000000000400000004040000201008040200
:10566000040810200000000000001F00001F0000C0
:1056700000000002040810201008040200000000CE
:105680000E11110804040004000000000E11191589
:10569000151D011E0000000004040C0A0A1E12332E
:1056A000000000000F12120E1212120F0000000074
:1056B0001E1101010101110E000000000F12121253
:1056C0001212120F000000001F120A0E0A02121F0F
:1056D000000000001F120A0E0A020207000000006C
:1056E0001C1201013911120C000000003312121EAD
:1056F00012121233000000001F0404040404041FEB
:10570000000000003E08080808080809070000001B
:1057100037120A060A0A12370000000007020202C6
:105720000202223F000000001B1B1B1B1515151554
:10573000000000003B1216161A1A12170000000093
:105740000E1111111111110E000000000F12120E96
:1057500002020207000000000E1111111117190EAC
:10576000180000000F12120E0A121237000000007B
:105770001E1101060810110F000000001F1504047F
:105780000404040E00000000331212121212120C54
:10579000000000003312120A0A0C0404000000008A
:1057A0001515150E0A0A0A0A000000001B0A0A0451
:1057B000040A0A1B000000001B0A0A040404040E69
:1057C000000000001F0908040402121F0000001C52
:1057D00004040404040404041C000002020204047F
:1057E000080808100000000E080808080808080843
:1057F0000E0000040A00000000000000000000008D
:105800000000000000000000003F00040000000055
:1058100000000000000000000000000C121C123C00
:10582000000000000302020E1212120E000000001F
:105830000000001C1202021C000000001810101CC6
:105840001212123C000000000000000C121E021C8C
:10585000000000003804041E0404041E00000000C0
:105860000000003C120C021E221C00000302020E6B
:105870001212123700000000040000060404040E97
:10588000000000000800000C0808080808070000D5
:105890000302023A0A0E1237000000000704040453
:1058A0000404041F000000000000000F151515156A
:1058B000000000000000000F12121237000000006C
:1058C0000000000C1212120C000000000000000F7B
:1058D0001212120E020700000000001C1212121C0D
:1058E000103800000000001B060202070000000044
:1058F0000000001E020C101E000000000004040E38
:1059000004040418000000000000001B1212123CE6
:105910000000000000000037120A0C040000000024
:1059200000000015150E0A0A000000000000001B10
:105930000A040A1B0000000000000037120A0C04D1
:10594000040300000000001E0804041E00000018EC
:1059500008080804080808081800080808080808C3
:1059600008080808080800060404040804040404DD
:1059700006000225180000000000000000000000E2
:105980000000000000000000000000000000000017
:105990000008080808080808000018180000004857
:1059A0006C24120000000000000000000000000055
:1059B000002424247F1212127F1212120000000011
:1059C000081C2A2A0A0C1828282A2A1C0808000061
:1059D0000022251515152A585454542200000000A1
:1059E000000C1212120A76252911916E0000000691
:1059F000060403000000000000000000000000405A
:105A000020101008080808080810102040000002A4
:105A100004080810101010101008080402000000FC
:105A2000000008086B1C1C6B080800000000000048
:105A30000000080808087F080808080000000000A7
:105A40000000000000000000000006060403000043
:105A5000000000000000FE00000000000000000048
:105A6000000000000000000000000606000000002A
:105A700080404020201010080804040202000000AA
:105A800000182442424242424242241800000000D0
:105A900000080E08080808080808083E0000000072
:105AA000003C4242422020100804427E00000000D8
:105AB000003C4242201820404042221C00000000CE
:105AC00000203028242422227E202078000000009C
:105AD000007E0202021A26404042221C0000000002
