:020000040800F2
:10000000A0020020010100083D080008390800088E
:100010003B080008410100086112000800000000D0
:100020000000000000000000000000009F0C00081D
:10003000BD0500080000000075080008450E000816
:100040001701000817010008170100081701000830
:100050001701000817010008170100081701000820
:100060001701000817010008170100081701000810
:1000700045010008170100081701000817010008D2
:1000800017010008170100081701000817010008F0
:1000900017010008170100081701000817010008E0
:1000A00017010008170100081701000817010008D0
:1000B00017010008170100081701000817010008C0
:1000C00017010008170100081701000817010008B0
:1000D00017010008170100081701000817010008A0
:1000E000170100081701000817010008DFF80CD0FD
:1000F00000F014F80048004783120008A002002016
:1001000005480047FEE7FEE7FEE7FEE7FEE7FEE7FD
:10011000FEE7FEE7FEE7FEE7ED000008064C074DB0
:1001200006E0E06840F0010394E8070098471034C7
:10013000AC42F6D3FFF7DEFF1014000830140008BD
:10014000FEE7000070B54FF08040818921F4807196
:1001500081811A49CA6922F00102CA61184B002242
:100160001C78012C18D017484FF4FA540068B0FBE3
:10017000F4F00124B0F1807F1ED220F07F454FF0D3
:10018000E0206D1E4561104EF02586F8145D8261F9
:10019000072202611C700CE00C4C8C6214240C626F
:1001A000CC6944F00104CC61848944F48074848176
:1001B0001A702020486070BDFEE700000000024079
:1001C00000000020B81200080FE000E02E00002020
:1001D00070B5044622480D4684422FD02048143082
:1001E00084422BD01E482830844227D01C483C3003
:1001F000844223D01A48503084421FD018486430BB
:1002000084421BD016487830844217D01548844267
:1002100014D014481430844210D01248283084423C
:100220000CD010483C30844208D00E4850308442F4
:1002300004D040F21D110C4801F022F855B1012DF7
:1002400004D04FF48F71084801F01AF8206840F08C
:10025000010002E0206820F00100206070BD000075
:100260000800024008040240BC12000870B50446B1
:100270004A4D4A4E49483C35783684422AD0474850
:100280001430844226D045482830844222D0AC42E3
:1002900020D04248503084421CD0404864308442D0
:1002A00018D0B44216D03E48844213D03C48143093
:1002B00084420FD03A48283084420BD038483C3032
:1002C000844207D036485030844203D072213548EA
:1002D00000F0D6FF206820F00100206000202060A0
:1002E0006060A060E0602D48A11B0838B44243D094
:1002F00017DCA4EB0501AC4236D00ADC2A496118B0
:100300002AD014292CD0282925D1416841F47061C4
:1003100035E014292CD028291DD1416841F4700101
:100320002DE01F48001FB1F56C7F2ED009DCB1F520
:10033000627F26D0B1F5677F0DD1016841F0F001F1
:1003400008E0B1F5717F24D0B1F5767F03D1016863
:1003500041F47021016070BD416841F00F010EE071
:10036000416841F0F0010AE0416841F4704106E063
:10037000416841F4702102E0416841F070614160E0
:1003800070BD016841F00F01E4E7016841F470615C
:10039000E0E7016841F47041DCE70000080002403A
:1003A00008040240BC120008F8FFFDBF70B5044607
:1003B000264816460D4684422FD0244814308442E5
:1003C0002BD022482830844227D020483C30844219
:1003D00023D01E48503084421FD01C4864308442D1
:1003E0001BD01A487830844217D01948844214D060
:1003F00017481430844210D01548283084420CD05D
:1004000013483C30844208D011485030844204D014
:1004100040F23D110F4800F033FF35F00E0000D1DF
:1004200025B94FF49F710B4800F02AFF4EB1012E01
:1004300004D040F23F11074800F022FF2068284313
:1004400001E02068A843206070BD00000800024061
:1004500008040240BC12000870B5054654480C461A
:1004600085422ED05248143085422AD05048283038
:10047000854226D04E483C30854222D04C485030F0
:1004800085421ED04A48643085421AD048487830A8
:10049000854216D04748854213D0464814308542DD
:1004A0000FD04448283085420BD042483C3085422A
:1004B00007D040485030854203D0C7213E4800F065
:1004C000DFFEA068102804D018B1C8213A4800F017
:1004D000D7FEE0684FF6FF71401E884203D3C92162
:1004E000354800F0CDFE2069402804D018B1CA215B
:1004F000314800F0C5FE6069802804D018B1CB21D6
:100500002D4800F0BDFEA06948B1B0F5807F06D04F
:10051000B0F5007F03D0CC21274800F0B1FEE069A0
:1005200048B1B0F5806F06D0B0F5006F03D0CD2193
:10053000214800F0A5FE206A202804D018B1CE2161
:100540001D4800F09DFE606AB0F5405F0AD0B0F52E
:10055000005F07D0B0F5805F04D018B1CF211648F6
:1005600000F08EFEA06AB0F5804F04D018B1D02103
:10057000114800F085FE296847F6F0708143226A31
:10058000A0681043D4E904231A431043A26910431E
:10059000E2691043626A1043A26A1043084328606C
:1005A000E06868602068A8606068E86070BD00006E
:1005B0000800024008040240BC1200087047000016
:1005C00010B50446102804D01CB1AC21054800F039
:1005D00057FE0548016821F01001016001682143C0
:1005E000016010BDCC1300080020024010B50400CB
:1005F00007D0012C05D0022C03D08221044800F042
:100600003FFE0449086800F038002043086010BD30
:10061000CC130008002002402DE9F041054648486F
:1006200000270E46854215D04648854212D04648DE
:1006300085420FD0454885420CD04548854209D0B7
:100640004448854206D04448854203D0A821434807
:1006500000F016FEF07888B104280FD028280DD0BD
:1006600048280BD0142809D0102807D01C2805D002
:10067000182803D0A921394800F002FE308818B9A3
:10068000AA21364800F0FCFDF07800F00F04C00607
:100690000CD5B078012807D0022805D0032803D054
:1006A000B1212E4800F0ECFDB078044330784FF0D3
:1006B0000F0E10F0FF0F4FF001001DD0D5F8001005
:1006C000338800FA07F21340934211D14FEA870CA6
:1006D0000EFA0CF321EA030304FA0CF11943F37840
:1006E000282B02D0482B02D002E06A6100E02A6188
:1006F0007F1C082FE4D329603188FF291ED969683F
:100700005FF0000303F10802378800FA02F2174095
:1007100097420FD14FEA830C0EFA0CF7B94304FA53
:100720000CF73943F778282F00D16A61F778482F02
:1007300000D12A615B1C082BE4D36960BDE8F0811D
:1007400000080140000C014000100140001401406D
:1007500000180140001C0140002001400013000867
:1007600070B5044611480D46844216D010488442A4
:1007700013D01048844210D00F4884420DD00F4847
:1007800084420AD00E48844207D00E48844204D0E6
:1007900040F271110C4800F073FD25B94FF4B971A6
:1007A000094800F06DFD656170BD00000008014062
:1007B000000C0140001001400014014000180140ED
:1007C000001C0140002001400013000870B50446E1
:1007D00011480D46844216D01048844213D0104868
:1007E000844210D00F4884420DD00F4884420AD072
:1007F0000E48844207D00E48844204D04FF4B071B2
:100800000C4800F03DFD25B940F26111094800F0A7
:1008100037FD256170BD000000080140000C01405B
:10082000001001400014014000180140001C01406C
:100830000020014000130008FEE7FEE770470000BB
:10084000094908684FF2FF021040084A40F4E0608E
:10085000104308600649102081F800044FF0E021A1
:100860000002C1F8000170470CED00E00000FA053D
:100870000CE000E07047000070B5044640F25750AD
:100880000E4634EA000000D124B94FF43271094811
:1008900000F0F6FC084D4EB1012E04D040F2C92103
:1008A000044800F0EDFC6869204301E06869A0435A
:1008B000686170BD441300080010024070B5044622
:1008C0000C480E46044200D124B940F205310A48D2
:1008D00000F0D6FC094D4EB1012E04D040F2063195
:1008E000054800F0CDFCE869204301E0E869A04339
:1008F000E86170BDC03701C5441300080010024014
:1009000070B504464FF6FD700E4634EA000000D183
:1009100024B940F2E621094800F0B2FC084D4EB17E
:10092000012E04D040F2E721044800F0A9FCA86998
:10093000204301E0A869A043A86170BD44130008EA
:100940000010024010B500F033F84FF48034204618
:1009500000F0B0F800F08EF914490128087023D196
:100960001020FFF72DFE0220FFF740FE002000F0D0
:100970007DF8002000F0E8F8A01100F0C5F84FF471
:10098000E011204600F012F9012000F0FDF83920B6
:1009900000F02CF80028FAD0022000F053F900BF34
:1009A00000F05CF80828FBD110BD00000100002019
:1009B0000B48016841F0010101604168094A11409A
:1009C00041600168084A11400160016821F48021FA
:1009D0000160416821F4FE0141600021816070479F
:1009E000001002400000FFF8FFFFF6FE70B5002582
:1009F0000446212818D0312C16D0392C14D0412C83
:100A000012D0612C10D07A2C0ED07B2C0CD07C2CE8
:100A10000AD07D2C08D07E2C06D07F2C04D04FF439
:100A200064710C4800F02CFC61090B4801290CD0C2
:100A300002290CD0D0F8240004F01F0101228A40C2
:100A4000024200D00125284670BD0068F4E7006A24
:100A5000F2E700004413000800100240024840681A
:100A600000F00C00704700000010024010B50400B8
:100A700014D0802C12D0902C10D0A02C0ED0B02CE2
:100A80000CD0C02C0AD0D02C08D0E02C06D0F02CF2
:100A900004D04FF4C971054800F0F2FB04494868DE
:100AA00020F0F0002043486010BD0000441300080F
:100AB0000010024070B504004FF480354FF48026DA
:100AC00007D0AC4205D0B44203D0D3210C4800F08B
:100AD000D7FB0C49086820F480300860086820F4CF
:100AE00080200860AC4206D0B44203D1086840F4CC
:100AF000A020086070BD086840F48030F9E700006D
:100B0000441300080010024010B5040010D0B4F5E2
:100B1000806F0DD0B4F5A06F0AD0B4F5C06F07D0C8
:100B2000B4F5E06F04D04FF4D671054800F0A8FB8F
:100B30000449486820F4E0602043486010BD00008C
:100B4000441300080010024010B5040010D0B4F5A2
:100B5000806F0DD0B4F5A06F0AD0B4F5C06F07D088
:100B6000B4F5E06F04D04FF4E371054800F088FB62
:100B70000448416821F4605141EAC401416010BD5C
:100B8000441300080010024010B5040006D0012CE8
:100B900004D040F25511034800F072FB024804668D
:100BA00010BD0000441300080000424270B50C461E
:100BB00005000AD0B5F5803F07D0B5F5403F04D019
:100BC0004FF4A0711D4800F05BFB74B3B4F5802FA7
:100BD0002BD0B4F5002F28D0B4F5402F25D0B4F594
:100BE000801F22D0B4F5A01F1FD0B4F5C01F1CD0A9
:100BF000B4F5E01F19D0B4F5001F16D0B4F5101FDE
:100C000013D0B4F5201F10D0B4F5301F0DD0B4F5BB
:100C1000401F0AD0B4F5501F07D0B4F5601F04D0B0
:100C200040F24111054800F02BFB0548416825437F
:100C300021F47C110D43456070BD00004413000891
:100C40000010024010B5040008D0012C06D0022C80
:100C500004D04FF4B371054800F012FB0449486812
:100C600020F003002043486010BD0000441300083A
:100C70000010024038B500204FF4A06400903120ED
:100C8000FFF7B4FE0099491C009108B9A142F6D1C2
:100C90003120FFF7ABFE002800D0012038BD70479F
:100CA00010B5012811D000210120FFF707FE002117
:100CB0000420FFF725FE00211020FFF721FE002170
:100CC000BDE810400120FFF7D7BD01210846FFF71E
:100CD000F5FD01210420FFF713FE01211020FFF78D
:100CE0000FFE0121ECE700002DE9F8430126ADF8E5
:100CF000006018208DF8030003208DF8020069467B
:100D00002848FFF789FC28484EF660210227818099
:100D100000F10A0507800024EC80C480448001466D
:100D20004FF08048404600F043FA302028806E8023
:100D30002F812946404600F09DF90121404600F0F0
:100D4000A1F80121404600F0DFF8184E3046FFF7C9
:100D50008DFA05F1120216481060164850601020F6
:100D600090601420C2E9030480204500C2E9050513
:100D7000C000C2E90704C000C2E9090411463046B8
:100D8000FFF76AFB012202213046FFF70FFB01212A
:100D90003046FFF71DFA01222946404600F0F6F8DA
:100DA000BDE8F88300080140580000201C00024004
:100DB0002C0000402E00002005484FF47C7101807B
:100DC0001021C1700321817001460248FFF724BC45
:100DD0002A0000200010014020210148FFF7F6BC46
:100DE00000100140044A03284FF08001104601D052
:100DF000FFF7ECBCFFF7B4BC00100140044A052823
:100E00004FF48071104601D0FFF7E0BCFFF7A8BC9B
:100E100000100140044A01284FF04001104601D063
:100E2000FFF79EBCFFF7D2BC00100140044A012826
:100E30004FF40071104601D0FFF792BCFFF7C6BC1B
:100E4000001001400D480C49816214210162C16902
:100E500041F00101C1614003818941F480718181C8
:100E60004FF0E020016921F0010101610021816161
:100E70000349012008707047020000200000024072
:100E80000000002070B5044617480D46844219D072
:100E9000B4F1804F16D01548844213D014488442D0
:100EA00010D0144884420DD0134884420AD013480D
:100EB000844207D01248844204D040F28D51114838
:100EC00000F0DEF955B1012D04D040F28E510D48ED
:100ED00000F0D6F9208840F0800003E0208840F23E
:100EE0007F310840208070BD002C0140000400408C
:100EF00000080040000C00400010004000140040BA
:100F0000003401408813000870B5044617480D46A8
:100F1000844219D0B4F1804F16D01548844213D0C2
:100F20001448844210D0144884420DD0134884429F
:100F30000AD01348844207D01248844204D040F2B9
:100F40002A31114800F09CF955B1012D04D040F22E
:100F50002B310D4800F094F9208840F0010003E0A7
:100F6000208840F2FE310840208070BD002C0140F6
:100F70000004004000080040000C00400010004049
:100F80000014004000340140881300082DE9F05F90
:100F9000304FDFF8C480DFF8C490DFF8C4A0DFF87A
:100FA000C4B016460D460446B84215D0B4F1804F81
:100FB00012D0444510D04C450ED054450CD05C4561
:100FC0000AD02948844207D02848844204D040F2FD
:100FD000BD31274800F054F935F4FE4000D125B961
:100FE00040F2BE31224800F04BF9B4F1804F05D0F9
:100FF000444503D04C4501D0544503D135F4BE409F
:1010000000D1B5B9BC4202D01848844203D135F4AE
:10101000FE4000D16DB95C4502D01348844203D133
:1010200035F4807000D125B940F2BF31104800F08E
:1010300027F94EB1012E04D04FF470710C4800F026
:101040001FF9A089284301E0A089A843A081BDE839
:10105000F09F0000002C0140000400400008004008
:10106000000C00400010004000140040003401401B
:10107000881300082DE9F047DFF81C91DFF81CA168
:101080000D460446484512D0B4F1804F0FD0444875
:1010900084420CD04348844209D04348844206D05D
:1010A000544504D04FF49271404800F0E9F8288884
:1010B00070B110280CD020280AD0302808D0602821
:1010C00006D0702804D040F22511384800F0D8F836
:1010D000688830B1012804D04FF49371334800F090
:1010E000CFF8288930B1022804D040F227112F48C8
:1010F00000F0C6F8208C20F001002084208CA78806
:10110000218B6E8821F07002298841EA020820F0C4
:101110000201288908430643E888A0864C4501D08F
:10112000544533D1A88830B1042804D04FF4A371BA
:101130001E4800F0A5F8688930B1082804D040F2B4
:1011400047111A4800F09CF8E889B0F5007F05D0F7
:1011500020B14FF4A471154800F092F8A889B0F5B9
:10116000807F05D020B140F24911104800F088F886
:1011700026F008016889AE88084320F00400064381
:1011800027F40341A889EF8908430743A780A4F8FF
:1011900018802684BDE8F087002C0140003401400F
:1011A0000004004000080040000C004088130008C4
:1011B0002DE9F041244E254F0D460446B04211D092
:1011C000B4F1804F0ED0224884420BD02148844293
:1011D00008D02148844205D0BC4203D0FD211F48DD
:1011E00000F04EF8688858B1102809D0202807D0A0
:1011F000402805D0602803D0FE21184800F040F8B0
:10120000E88848B1B0F5807F06D0B0F5007F03D004
:10121000FF21124800F034F8208800F08F00208071
:10122000E88869880843218808432080A888A08529
:1012300028882085B44201D0BC4201D1287A20867A
:101240000120A082BDE8F081002C01400034014063
:101250000004004000080040000C00408813000813
:10126000FEE702E008C8121F08C1002AFAD1704741
:101270007047002001E001C1121F002AFBD1704716
:10128000FEE7FFF75FFBFFF7DBFA0120FFF708FD42
:10129000FFF792FDFFF7A0FD0120FFF7BBFD042043
:1012A000FFF7A0FD0520FFF7A9FD0120FFF7BEFD18
:1012B000FFF71AFDFEE7000000A24A042E2E5C2E66
:1012C0002E5C2E2E5C4C69627261726965735C5390
:1012D000544D3332463130785F53746450657269CF
:1012E00070685F4472697665725C7372635C737474
:1012F0006D3332663130785F646D612E63000000BB
:101300002E2E5C2E2E5C2E2E5C4C696272617269F0
:1013100065735C53544D3332463130785F53746497
:101320005065726970685F4472697665725C737249
:10133000635C73746D3332663130785F6770696FE8
:101340002E6300002E2E5C2E2E5C2E2E5C4C6962CD
:101350007261726965735C53544D33324631307833
:101360005F5374645065726970685F447269766532
:10137000725C7372635C73746D3332663130785FA4
:101380007263632E630000002E2E5C2E2E5C2E2EC8
:101390005C4C69627261726965735C53544D33329F
:1013A000463130785F5374645065726970685F4489
:1013B00072697665725C7372635C73746D333266E6
:1013C0003130785F74696D2E630000002E2E5C2E24
:1013D0002E5C2E2E5C4C69627261726965735C537F
:1013E000544D3332463130785F53746450657269BE
:1013F00070685F4472697665725C7372635C737463
:101400006D3332663130785F666C6173682E6300CD
:10141000301400080000002058000000621200088C
:1014200088140008580000204802000072120008CA
:101430000000983A983A204E204EA861A861307575
:101440003075B888B888409C409CC8AFC8AF50C3BE
:1014500050C3D8D6D8D660EA60EA0000000060EA3F
:1014600060EAD8D6D8D650C350C3C8AFC8AF409CE6
:10147000409CB888B88830753075A861A861204E46
:08148000204E983A983A000052
:04000005080000ED02
:00000001FF
