:020000040800F2
:1000000078070020A5010008091000080B1000085F
:100010000F1000081310000817100008000000005F
:100020000000000000000000000000001D1000089B
:100030001B100008000000001F100008211000081D
:10004000BF010008BF010008BF010008BF01000890
:10005000BF010008BF010008BF010008BF01000880
:10006000BF010008BF010008BF010008BF01000870
:10007000BF010008BF010008BF010008BF01000860
:10008000BF010008BF010008BF010008BF01000850
:10009000BF010008BF010008BF010008BF01000840
:1000A000BF010008BF010008BF010008BF01000830
:1000B000BF010008BF01000800000000BF010008E8
:1000C000BF0100080000000000000000BF010008A0
:1000D00000000000BF010008BF0100080000000090
:1000E000BF010008BF010008BF01000800F002F8CE
:1000F00000F048F80AA090E8000C82448344AAF17A
:100100000107DA4501D100F03DF8AFF2090EBAE877
:100110000F0013F0010F18BFFB1A43F0010318473B
:10012000983E0000B83E0000103A24BF78C878C15D
:10013000FAD8520724BF30C830C144BF04680C60ED
:10014000704700000023002400250026103A28BF35
:1001500078C1FBD8520728BF30C148BF0B60704739
:100160001FB501F0C7FD04000020002102F0EEFFE2
:10017000401C60600020002102F0FEFFE0601FBD17
:1001800010B510BD01F0F1FD1146FFF7E9FF00F0D9
:10019000AAFE02F061F803B4FFF7F2FF03BC02F01D
:1001A0003FFB00000948804709480047FEE7FEE79B
:1001B000FEE7FEE7FEE7FEE7FEE7FEE7FEE7FEE717
:1001C00004480549054A064B70470000C302000871
:1001D000ED00000878010020780700207803002057
:1001E000780300200CB50020019000906C48006856
:1001F00040F480306A49086000BF6948006800F434
:10020000003000900198401C0190009818B90198A6
:10021000B0F5A06FF1D16248006800F4003010B171
:100220000120009001E0002000900098012843D1B7
:100230005C48006840F010005A49086008460068B1
:1002400020F0030008600846006840F002000860E3
:10025000534840685249486008464068486008462C
:10026000406840F4806048600846406820F47C1094
:1002700048600846406840F4E81048600846006856
:1002800040F08070086000BF4548006800F00070D2
:100290000028F9D04248406820F0030040494860F7
:1002A0000846406840F00200486000BF3C48406893
:1002B00000F00C000828F9D10CBD10B5FFF792FF33
:1002C00010BD10B53648006840F0010034490860A0
:1002D000084640683449084031494860084600688B
:1002E000324908402E4908600846006820F4802002
:1002F00008600846406820F4FE0048604FF41F0084
:100300008860FFF7DAFF4FF000602949086010BDF0
:1003100010B5002100200022214B5B6803F00C0186
:1003200021B1042906D0082928D107E0214B224C0D
:10033000236027E01F4B204C236023E0184B5B68B1
:1003400003F47010164B5B6803F48032022303EB56
:10035000904022B9194B4343174C23600DE0104BDA
:100360005B6803F4003323B1144B4343124C236006
:1003700003E0104B4343104C236003E00D4B0E4C45
:10038000236000BF00BF064B5B68C3F303130C4C34
:10039000E15C094B1B68CB40074C236010BD00009B
:1003A00000100240002002400000FFF8FFFFF6FEB0
:1003B00008ED00E000127A000000002000093D0076
:1003C0000400002010B50446CC48844208D1012125
:1003D000042000F02DFB0021042000F029FB46E062
:1003E000C748844208D10121082000F021FB0021E8
:1003F000082000F01DFB3AE0C248844208D10121E8
:10040000102000F015FB0021102000F011FB2EE061
:10041000BD48844208D10121202000F009FB0021C1
:10042000202000F005FB22E0B848844208D10121D9
:10043000402000F0FDFA0021402000F0F9FA16E01B
:10044000B348844208D10121802000F0F1FA002154
:10045000802000F0EDFA0AE0AE48844207D1012185
:10046000801500F0E5FA0021A01500F0E1FA10BDBA
:1004700010B50121084600F0DBFA0021012000F050
:10048000D7FA10BD2DE9F0410246002500260020D4
:1004900000230024002791F803C00CF00F0591F809
:1004A00003C00CF0100CBCF1000F03D091F802C097
:1004B0004CEA050591F800C0BCF1000F31D014687A
:1004C00000202BE04FF0010C0CFA00F3B1F800C053
:1004D0000CEA03069E4220D183004FF00F0C0CFA69
:1004E00003F7BC4305FA03FC4CEA040491F803C08B
:1004F000BCF1280F06D14FF0010C0CFA00FCC2F839
:1005000014C00AE091F803C0BCF1480F05D14FF0C8
:10051000010C0CFA00FCC2F810C0401C0828D1D312
:100520001460B1F800C0BCF1FF0F34DD5468002046
:100530002EE000F1080C4FF0010808FA0CF3B1F8B6
:1005400000C00CEA03069E4221D183004FF00F0C3D
:100550000CFA03F7BC4305FA03FC4CEA040491F8D7
:1005600003C0BCF1280F05D100F1080C08FA0CF803
:10057000C2F8148091F803C0BCF1480F07D100F114
:10058000080C4FF0010808FA0CF8C2F81080401C63
:100590000828CED35460BDE8F0814FF6FF7101808A
:1005A000022181700421C1707047024600209368C7
:1005B0000B400BB1012000E0002070470146886825
:1005C00080B2704702460020D3680B400BB1012077
:1005D00000E0002070470146C86880B270470161A2
:1005E0007047416170470AB1016100E041617047A5
:1005F000C16070474FF480320A4382618161826139
:1006000082698269704702460020434B18684FF6A2
:100610008073184040EA021008433F4B186070474F
:100620003E49C8617047F0B50A4600230024002106
:10063000002500F00046B6F1004F02D1364EF169B8
:1006400001E0354E7168C0F3034583B200F44016F3
:10065000B6F5401F08D121F070612F4E766826F064
:1006600070662D4F7E6012E000F48016B6F5801F94
:1006700006D1032606FA05F4A14341F0706106E0B5
:10068000460D360103FA06F6B14341F0706122B11E
:10069000460D360103FA06F6314300F00046B6F186
:1006A000004F02D11C4EF16101E01B4E7160F0BDA4
:1006B00030B500228B071C0F0F2303FA04F2164BF0
:1006C00008338C1053F824309343134C08348D10A6
:1006D00044F8253023468C1053F824308C07240F1F
:1006E00000FA04F423430C4C08348D1044F82530F0
:1006F00030BD0A49DC310860704700000008014045
:10070000000C01400010014000140140001801409D
:10071000001C014000200140000001400000204278
:10072000DF48006840F00100DD4908600846406885
:10073000DC490840DA49486008460068DA49084060
:10074000D74908600846006820F480200860084601
:10075000406820F4FE0048604FF41F008860704736
:10076000CF49096821F48031CD4A116011460968EA
:1007700021F480211160B0F5803F03D0B0F5802FC7
:100780000ED106E0C649096841F48031C44A1160BF
:1007900007E0C349096841F4A021C14A116000E0A3
:1007A00000BF00BF704710B50146002200230020A3
:1007B0004A11012A02D1BA4C236806E0022A02D16A
:1007C000B74C236A01E0B64C636A01F01F020124B2
:1007D00094401C400CB1012000E0002010BD38B551
:1007E000002000900024002500BF3120FFF7DBFF30
:1007F00005460098401C00900098B0F5A06F01D00D
:10080000002DF2D03120FFF7CEFF08B1012400E027
:100810000024204638BD01460020A14A106820F07F
:10082000F80040EAC10010607047A04908607047B6
:10083000024600209A4B586820F47C1042EA0103DB
:100840001843974B586070479849086670470146AF
:100850000020934A506820F003000843506070471E
:100860008F48406800F00C007047014600208C4A19
:10087000506820F0F00008435060704701460020A7
:10088000874A506820F4E060084350607047014692
:100890000020834A506820F4605040EAC100506054
:1008A000704729B17E4A527A02437D4B5A7204E066
:1008B0007B4A527A82437A4B5A7270477B49D831CD
:1008C0000860704701460020754A506820F4404097
:1008D0000843506070470021714A20321170704AFD
:1008E00082F82010012802D004280AD104E0012156
:1008F0006B4A2032117005E00521694A20321170DF
:1009000000E000BF00BF7047694908607047644954
:10091000096A0143624A11627047654944390860B7
:10092000704730B500210022002400235C4D6D6823
:1009300005F00C0121B1042905D0082923D105E0D7
:100940005C4D056022E05B4D05601FE0544D6D6815
:1009500005F47012524D6D6805F48034022505EBE4
:1009600092421CB9544D554305600BE04C4D6D68E7
:1009700005F400351DB1504D5543056002E04D4D65
:100980005543056002E04B4D056000BF00BF444D7C
:100990006D6805F0F0010909484D6B5C0568DD40A4
:1009A00045603F4D6D6805F4E061090A434D6B5C9D
:1009B0004568DD4085603A4D6D6805F46051C90AAF
:1009C0003E4D6B5C4568DD40C560354D6D6805F496
:1009D0004041890B3A4D6B5CC568B5FBF3F5056189
:1009E00030BD29B12E4A526902432D4B5A6104E0B1
:1009F0002B4A526982432A4B5A61704729B1284ACF
:100A000092690243264B9A6104E0254A9269824327
:100A1000234B9A61704729B1214AD2690243204B86
:100A2000DA6104E01E4AD26982431D4BDA617047E5
:100A300029B11B4AD2680243194BDA6004E0184A14
:100A4000D2688243164BDA60704729B1144A1269A2
:100A50000243134B1A6104E0114A12698243104B9E
:100A60001A61704712494039086070470F49C864DD
:100A700070470B49C87170470948406A40F0807060
:100A800007494862704701460020054A92680A40BB
:100A90000AB1012000E000207047014988727047C8
:100AA000001002400000FFF8FFFFF6FE0000424287
:100AB0008004424200127A0000093D001400002028
:100AC0002400002010B50446FB48844209D10121CE
:100AD0008803FFF7ADFF00214FF48040FFF7A8FF28
:100AE00032E0F648844209D101214804FFF7ADFF06
:100AF00000214FF40030FFF7A8FF25E0F0488442C2
:100B000009D101218804FFF7A0FF00214FF48020C4
:100B1000FFF79BFF18E0EB48844209D10121C8048C
:100B2000FFF793FF00214FF40020FFF78EFF0BE04B
:100B3000E548844208D101210805FFF786FF00211E
:100B40004FF48010FFF781FF10BD2DE9F04786B00C
:100B500005460E460024A24600BFA1460027B089E4
:100B600000B100BF2F462C8A4CF6FF700440F0887D
:100B700004432C82AC894EF6F3100440B0883189CE
:100B80000843718908430443AC81AC8A4FF6FF40A7
:100B90000440B0890443AC8201A8FFF7C2FEC648F6
:100BA000874202D1DDF810A001E0DDF80CA0A88991
:100BB00000F4004040B10AEBCA0000EB0A103168B3
:100BC0004900B0FBF1F807E00AEBCA0000EB0A109D
:100BD00031688900B0FBF1F86420B8FBF0F0040143
:100BE0002009642101FB1089A88900F4004040B16C
:100BF000322000EBC900B0FBF1F000F00700044325
:100C000008E0322000EB09106421B0FBF1F000F0A5
:100C10000F0004432C8106B0BDE8F0874FF4165155
:100C2000016000218180C18001810C21418100216E
:100C30008181704710B502460020108A4FF2FF03F1
:100C400018400B884C8823438C882343CC8823434B
:100C50001843108210BD0021018041808180C18035
:100C6000704721B1828942F40052828104E0828976
:100C70004DF6FF731A4082817047F0B50346002499
:100C800000260025002040F66A17B94200D100BFB7
:100C90001846C1F3421401F01F06012707FA06F5B2
:100CA000012C01D10C3004E0022C01D1103000E005
:100CB00014301AB107682F43076002E00768AF439A
:100CC0000760F0BD1AB1838A0B43838202E0838AF6
:100CD0008B4383827047028A4FF6F0731A40028278
:100CE000028A0A430282704782894FF2FF731A40D8
:100CF000828182890A438281704721B1828942F0D0
:100D00000202828104E082894FF6FD731A408281DB
:100D10007047028A4FF6DF731A400282028A0A4342
:100D20000282704721B1028A42F48042028204E0CA
:100D3000028A4BF6FF731A4002827047C1F3080221
:100D40008280704701468888C0F308007047818917
:100D500041F0010181817047028BD2B20283028B84
:100D600042EA012202837047028B02F47F4202832F
:100D7000028B0A430283704721B1828A42F020022B
:100D8000828204E0828A4FF6DF731A4082827047C3
:100D900021B1828A42F01002828204E0828A4FF6F8
:100DA000EF731A408282704721B1828A42F00802B2
:100DB000828204E0828A4FF6F7731A40828270477B
:100DC00021B1828942F40042828103E08289C2F328
:100DD0000E028281704721B1828A42F400628282CF
:100DE00004E0828A4FF2FF731A4082827047828A3F
:100DF0004FF6FB731A408282828A0A4382827047CE
:100E000021B1828A42F00202828204E0828A4FF695
:100E1000FD731A408282704702460020B1F5007FC0
:100E200000D100BF13880B400BB1012000E000206F
:100E3000704701F40072B2F5007F00D100BFCA43D1
:100E40000280704770B50246002400230025002070
:100E500040F66A16B14200D100BFC1F3421501F05D
:100E60001F03012606FA03F3012D02D196893340B0
:100E700006E0022D02D1168A334001E0968A334003
:100E80000C12012606FA04F41688344013B10CB192
:100E9000012000E0002070BD10B50022002340F6C4
:100EA0006A14A14200D100BF0A1201249440A3B2E7
:100EB000DC43048010BD00000038014000440040C5
:100EC00000480040004C004000500040002004E07A
:100ED0000021454A1154411CC8B28028F8DB00218A
:100EE000424A11607047012501260424012144F281
:100EF0000C00FFF783FD00F095F83DA000F0C6F868
:100F000000F0E6FCE02000F04BFD3CA000F0BEF855
:100F10005AE0022C16D0042C55D110E02146394855
:100F2000FFF70CFF20213748FFF776FF012806D195
:100F30003448FFF707FF052801D100250224002DC2
:100F4000ECD140E014E021462E48FFF7F7FE2021C7
:100F50002C48FFF761FF01280AD12A48FFF7F2FE6B
:100F6000012805D10026012421462648FFF7E6FE88
:100F7000002EE8D1012611E020212248FFF74CFF86
:100F800001280BD11F48FFF7DDFE1749174A1268E9
:100F9000885416480068401C1449086013480068CB
:100FA000401E1149085C0328E6D121461548FFF789
:100FB000C5FE0E480068811E0B4800F02EFAFFF7B0
:100FC00085FF022400BF00BFA3E7002106E00A213D
:100FD00000BF0A00A1F1010399B2FAD10200A0F109
:100FE000010398B2F3D17047700000202800002060
:100FF0007573617274206F6B000000006C63642075
:101000006F6B000000380140704700BFFEE700BF73
:10101000FEE700BFFEE700BFFEE77047704770477E
:101020007047000000B585B04FF40070ADF81000B7
:1010300018208DF8130003208DF8120004A91F4812
:10104000FFF720FA4FF48060ADF8100004208DF80F
:10105000130004A91948FFF715FA4FF41650009031
:101060000020ADF80400ADF80600ADF80800ADF8BA
:101070000C000C20ADF80A0069461148FFF765FD29
:1010800001210F48FFF7EDFD05B000BD70B5044626
:10109000204600F05DFD064600250CE014F8011B1B
:1010A0000748FFF74BFE00BF80210548FFF7B4FE5D
:1010B0000028F9D06D1CB542F0DB70BD000801407E
:1010C0000038014038B54FF4C050ADF8000004209E
:1010D0008DF8030003208DF802006946FE48FFF7F3
:1010E000D1F96946FD48FFF7CDF948F20600ADF8A1
:1010F000000010208DF803006946F748FFF7C2F999
:101100006946F648FFF7BEF9002408E00020F449DC
:1011100041F82400F34941F82400601CC4B2032CB8
:10112000F4DB38BD2DE9F84F06460C4615469946C6
:101130006946304601F0FBFF074602F033F883466C
:101140000098A0EB060ABAF1000F06DDC4F800B063
:10115000286840EA0900286001E00020206050462D
:10116000BDE8F88F2DE9F84306460C4615461F46A4
:101170000A226946304600F0B3FC81460098A0EB95
:101180000608B8F1000F05DDC4F800902868384360
:10119000286001E0002020604046BDE8F8832DE98A
:1011A000F04104460E461746002020608046002588
:1011B00091E04FF00008705D4638152814D2DFE842
:1011C00000F0650B86515B8686148686297B701E2F
:1011D00086868686333D4700691C701801232246A7
:1011E000211DFFF7BFFF804671E0691C70180223C4
:1011F000224604F10801FFF7B5FF804667E0691C4D
:1012000070184FF48063224604F12801FFF78AFF2B
:1012100080465CE0691C70180423224604F10C012E
:10122000FFF780FF804652E0691C701808232246B1
:1012300004F11001FFF776FF804648E0691C701842
:101240001023224604F11401FFF76CFF80463EE0B4
:10125000691C70182023224604F11801FFF762FF71
:10126000804634E0691C70184023224604F11C01BA
:10127000FFF758FF80462AE0691C70188023224639
:1012800004F12001FFF74EFF804620E0691C701832
:101290004FF40073224604F12401FFF743FF804618
:1012A00015E0691C70184FF48053224604F12C019C
:1012B000FFF738FF80460AE0691C70184FF400639E
:1012C000224604F13001FFF72DFF804600BF00BF2A
:1012D00008F101000544BD42FFF66BAF0020BDE8F8
:1012E000F08170B505460C46B5B924B104217A48A1
:1012F000FFF775F903E004217748FFF772F902213F
:101300007548FFF76EF94FF4FA70FFF75EFE0221A1
:101310007148FFF764F917E0012D15D124B10421BC
:101320006E48FFF75CF903E004216C48FFF759F9B8
:1013300002216A48FFF755F94FF4FA70FFF745FEAE
:1013400002216648FFF74BF970BD0FB42DE9FF414C
:101350000A990D9802F0F2FC0746634902F0F0FB8F
:10136000064602F085FB01900B990E9802F0E6FC10
:1013700007465D4902F0E4FB064602F079FB029065
:101380000025019800280FDD0298002805DD0120C6
:101390008DF800008DF8010015E001208DF80000A7
:1013A00000208DF801000EE00298002806DD0020E4
:1013B0008DF8000001208DF8010004E000208DF878
:1013C00000008DF801000198002801DB014600E0D3
:1013D000414201910298002801DB014600E04142B0
:1013E0000291DDE90101441811E0002D07DB9DF8B1
:1013F00000100020FFF775FF02982D1A06E09DF8F7
:1014000001100120FFF76DFF01980544641E002CB8
:10141000EBD1BDE8FF015DF814FBF0B58FB00446D9
:101420000D4620782F2807D130A0FFF72FFE204649
:10143000FFF72CFE0FB0F0BD2A46214602A8FFF7A9
:10144000AEFE029800F00100002870D02948007814
:10145000A8B1029800F0080010B12249069808606F
:10146000029800F0100010B11E49079848600298D9
:1014700000F0200020B31B490898886020E0029803
:1014800000F0080030B1164A0699106802F0C0F961
:1014900014490860029800F0100030B1104A079912
:1014A000506802F0B5F90F494860029800F020003A
:1014B00030B10B4A0899906802F0AAF9094988608E
:1014C000029800F4007010B10B490B980860039863
:1014D0001E284CD01EDC11E000080140000C014029
:1014E000FC000020080100200000C8426E6F7465F7
:1014F0003A000000680000206C000020042828D07A
:1015000003DCA8B101283ED113E014282DD0152802
:1015100039D12BE05A282DD004DC512828D052286C
:1015200031D126E05B2829D05C282CD12AE033E099
:1015300000BFD649D1E90101CDE90001D3480368D4
:10154000D34807C8FFF701FFD148D04B0ECB0EC0E0
:101550001DE0D049059802F0F3FA074602F088FA38
:1015600086B23046FFF731FD11E010E000BF0EE01B
:1015700000BF0CE00120C849087008E00020C649FF
:10158000087004E003E0C5A0FFF780FD00BF00BFC6
:10159000C7A0FFF77BFD4DE7029800F0020060B1A5
:1015A000049810B1652802D100E004E003E0C1A076
:1015B000FFF76CFD00BF00BF3CE700BF3AE70FB488
:1015C0002DE9FF5FDDE914894146119802F0B6FB71
:1015D0008246BD4902F0B4FA074602F049FA051EF8
:1015E00001DB284600E0684201904946129802F06B
:1015F000A5FB8246B44902F0A3FA074602F038FA86
:10160000051E01DB284600E0684202900021119887
:1016100002F062FB11D80021129802F05DFB06D89F
:1016200001208DF8000000208DF8010016E0002058
:101630008DF800008DF8010010E00021129802F0F2
:101640004BFB05D201208DF800008DF8010005E06C
:1016500000208DF8000001208DF8010011990E98EE
:1016600002F06CFB824602F003FA071E01DBBB4668
:1016700001E0C7F1000B64200BFB00FB12990F98EF
:1016800002F05CFB824602F0F3F9051E01DB2846FE
:1016900000E0684200EBC00101EB00100BEB80069C
:1016A00000241DE0002C0DDB9DF800100020FFF74A
:1016B00018FE0221019801FB1040441C0198401EB5
:1016C00001900CE09DF801100120FFF70AFE0221B5
:1016D000029801FB1040441C0298401E0290761EA6
:1016E000002EDFD1BDE8FF1F5DF814FB0FB42DE91C
:1016F000FF5FDDE9148941460E9802F01FFB824628
:10170000714902F01DFA074602F0B2F9051E01DB2D
:10171000284600E06842019049460F9802F00EFB0F
:101720008246694902F00CFA074602F0A1F9051E4B
:1017300001DB284600E06842029000210E9802F08A
:10174000CBFA11D800210F9802F0C6FA06D8002073
:101750008DF8000001208DF8010017E001208DF8C0
:1017600000008DF8010011E000210F9802F0B4FA9A
:1017700006D201208DF8000000208DF8010005E060
:1017800001208DF8000000208DF801000E991198BD
:1017900002F0D4FA824602F06BF9071E01DBBB4669
:1017A00001E0C7F1000B64200BFB00FB0F991298BE
:1017B00002F0C4FA824602F05BF9051E01DB2846FE
:1017C00000E0684200EBC00101EB00100BEB80066B
:1017D00000241DE0002C0DDB9DF800100020FFF719
:1017E00080FD0221019801FB1040441C0198401E1D
:1017F00001900CE09DF801100120FFF772FD02211D
:10180000029801FB1040441C0298401E0290761E74
:10181000002EDFD1BDE8FF1F5DF814FB70B5044654
:101820000D46C4B95DB129480068401C27490860CD
:101830000A4651681068FF2200F0E8F825E02348C6
:101840000068401E214908600A4651681068FF225E
:1018500000F0DCF819E0012C17D15DB11B4840689D
:10186000401C1A4948600A4651681068FF2200F07F
:10187000CDF80AE015484068401E144948600A4601
:1018800051681068FF2200F0C1F870BD0801002007
:10189000FC00002000007A4468000020556E73753B
:1018A00070706F7274656420472D436F646500002B
:1018B0006F6B0000556E737570706F727465642085
:1018C0004D2D436F646500000000C842F000002009
:1018D00008B5FF20ADF8000010208DF803000320AC
:1018E0008DF8020069467B48FEF7CCFDFF21794860
:1018F000FEF775FE4FF47040ADF80000694676487B
:10190000FEF7C0FD4FF470417348FEF768FE08BD56
:1019100010B504464FF480416F48FEF762FE4FF465
:1019200000416D48FEF75DFE6B480C30006800F426
:101930007F40204367490C31086089146648FEF7F0
:1019400050FE4FF480516448FEF749FE4FF4804149
:101950006148FEF744FE10BD10B504464FF48041C7
:101960005D48FEF73EFE4FF400415B48FEF737FE50
:1019700059480C30006800F47F40204355490C3131
:10198000086089145448FEF72CFE4FF480515248E9
:10199000FEF725FE4FF480414F48FEF720FE10BDB4
:1019A00070B506460020FFF7B3FF0020FFF7D4FF15
:1019B0000120FFF7ADFF0020FFF7CEFF0220FFF769
:1019C000A7FF00241EE0002519E03046FFF7C4FF02
:1019D0003046FFF7C1FF3046FFF7BEFF3046FFF746
:1019E000BBFF3046FFF7B8FF3046FFF7B5FF304684
:1019F000FFF7B2FF3046FFF7AFFF681CC5B2642D9A
:101A0000E3DB641CB4F5167FDDD370BD2DE9F04136
:101A100006460F46904607EBC70000EB071006EBA3
:101A200040152C0CA006040E2046FFF771FFE8B20B
:101A3000FFF792FF44F00100FFF76AFFC5F30720AC
:101A4000FFF78AFF44F00200FFF762FF4046FFF70E
:101A500083FFBDE8F0812DE9F04F87B004460D46C5
:101A600016469A46DDF840B0301B02F01DF806908D
:101A7000AAEB050002F018F80590DDE9050101F078
:101A800035FF0390284602F00FF80490A1461CE0B1
:101A9000049801F091FE0022104BCDE9000101F005
:101AA000B3FB074601F0A8FC00F596700BF0FF02AF
:101AB0000146029009F5C870FFF7A8FFDDE90310A1
:101AC00001F0A6FE049009F10109B145E0DB07B081
:101AD000BDE8F08F00080140000C01400000E03F2D
:101AE0002DE9F04791460F4680460446002614F83B
:101AF000015B2DB100F04EF80068405DC007F6D1E3
:101B00002B2D02D02D2D18D0641E4A463946204672
:101B100000F04CF827B13968A14201D1C7F8008024
:101B20004FF0020471050BD54042002803DD00F0A0
:101B300039F80460A007BDE8F08746F48066E4E762
:101B40000028F8DA00F02EF804606FF00040F2E7A9
:101B500010B5431C02E010F8011B71B18107FAD1E6
:101B60004FF0013202C88C1A8C4314EAC211F9D02A
:101B7000C01A0A0603D0C01E10BDC01A10BD0A0448
:101B800001D0801E10BD0902FCD0401E10BD704760
:101B90007047704710B500F0ADF8001D10BD00BFD4
:101BA000AD15000000487047140100202DE9F05FDA
:101BB000824615468B4600270AF10104B946007893
:101BC000302801D09DB113E014F8010B01277828CB
:101BD00003D0582801D045B10AE00DB1102D07D12E
:101BE000002714F8010B102502E0082500E00A2563
:101BF0000026B0460EE005FB080005FB06F10127B4
:101C00001FFA80F801EB1046B6F5803F00D3B946C5
:101C100014F8010B294600F07AF80028EBDABBF142
:101C2000000F05D00FB1641E00E05446CBF8004011
:101C3000B9F1000F06D0FFF7B5FF02210160C81E01
:101C4000BDE8F09F48EA0640FAE700000FB4002321
:101C500000B589B00CA900910B99CB60204B7B4457
:101C60000693204B7B44079304236FF00042CDE999
:101C700001321D4A7A446B4608920246002002F067
:101C800032F909B05DF814FB70B506464FF0FF302D
:101C900015460C46324686B00091CDE901016946F1
:101CA0000020049004A8FFF7D1FF034604982118F0
:101CB00025B108B10A4600E022462A6000280DD06E
:101CC000002B02DD0098884208D03246081B694686
:101CD0000094CDE9010404A8FFF7B8FF06B070BD79
:101CE000C9000000E10000008500000000487047C6
:101CF00014010020004870473401002010B504464C
:101D0000FFF748FF0068005D00F0010010BD3A28B1
:101D100000D2303820F02002412A01D3A2F137004E
:101D2000884201D34FF0FF307047426842B10168EA
:101D300011F8013B23B1521EC0E90012184670474A
:101D40000121C160881E704742685AB1C3680168AA
:101D500043B983688B4205D0491E521CC0E900126A
:101D6000002070474FF0FF3070477546FFF7BEFF09
:101D7000AE4605006946534620F00700854618B078
:101D800020B5FEF71DFABDE820404FF000064FF0E9
:101D900000074FF000084FF0000B21F00701AC46A0
:101DA000ACE8C009ACE8C009ACE8C009ACE8C009BF
:101DB0008D4670472DE9FF4F064689B00878FF2809
:101DC00006D0491C2D2805D000244FF0000908E05A
:101DD00000200CE00124F8E709EB8903491C00EB23
:101DE00043090878FF28F7D114B1C9F100008146F2
:101DF000107800252C46AA4629462D2801D02B28EC
:101E000004D1521C2D2813D0002082468B46107816
:101E1000FF280FD04FF0000C0A21521CA5FB0178BF
:101E200004FB018105FB0C11C5194BEB0104EEE726
:101E30000120EAE7002108464FF00000BAF1000F48
:101E400002D000EB80004008C0F38158B8F1010FC8
:101E500001DD4FF0FF380C9809EB000755EA04004C
:101E600009D04FF0020917F5FA7F0BDA4FEACA7072
:101E7000C6E900B012E04FEACA70C6E900B00DB082
:101E8000BDE8F08FB7F5FA7F0DDDF0487844D0E972
:101E90000010C6E9001040EACA707060FFF782FEC9
:101EA000C0F80090EBE7391E02DAC8F1000200E04A
:101EB000424600DA794206A800F014FA06AB93E82D
:101EC000070003AB83E8070044F23E005BEA04012D
:101ED0000090584604D144F21E012C465D46009104
:101EE000210C0904014306D10099240444EA154455
:101EF0002D041039009104F07F41014306D100996F
:101F0000240244EA15642D020839009104F070415E
:101F1000014306D10099240144EA15742D01091FDB
:101F2000009104F04041014306D10099A40044EA25
:101F30009574AD00891E009104F00041084304D15E
:101F400000986D196441401E009042466846002F7B
:101F5000CDE9014503A902DD00F0E1FE01E000F05A
:101F6000B6FEBAF1000F04460D4601D084F00044DD
:101F700040F2FF7724F00040284303D0C4F30A5016
:101F8000B84212D1FFF70EFEC0F80090C4F30A5019
:101F9000B8420AD1AE487844D0E90010C6E9001032
:101FA00004F000410843706069E7C6E9005466E741
:101FB0002DE9FF4F1F464FF0000A4FF0FF3845460E
:101FC00091B0D7E90146CDF83CA0FFF793FEC06879
:101FD0000168405C1090B96912986D1C8847396A95
:101FE000814688470028F6D1B9F1FF3F0AD0002E7C
:101FF00024F4D06411DDB9F12B0F08D0B9F12D0F05
:102000000BD102E0404615B03AE744F48064B96968
:1020100012986D1C8847761E8146600504A901D57B
:102020002D2000E02B20002E01F1010B0DF13008D6
:102030008DF810003FDDB9F1690F08D0B9F1490FF3
:1020400005D0B9F16E0F02D0B9F14E0F1CD13B464D
:1020500001A8009580E85002DDE912126FF002003D
:1020600001F045FFC11CCED10EE0B96912986D1C7C
:10207000884781461398761E44F4007405600F98D3
:10208000401C002E0F9016DDB9F1300FEDD0B9F1E4
:10209000780F02D0B9F1580F0DD10F9801280AD14D
:1020A0003B46CDE90054DDE91212001F029601F013
:1020B0001CFFC11CA7D1109989453ED144F0800472
:1020C00006E01399681CAAF1010A44F40074086040
:1020D000B9696D1C1298761E884730288146F0D069
:1020E0002BE01099894505D1200603D4761E44F0D3
:1020F000800418E0484600F0A8FF08B3761E0DF1F2
:1021000023018B4544F4007408D2A9F130000BF888
:10211000010B200607D5AAF1010003E0200602D436
:102120000AF101008246A00502D51399681C0860D7
:10213000B96912986D1C88478146002ED1DC53E0A6
:10214000002E51DDB9F1650F02D0B9F1450F4BD129
:10215000A00549D5B9696D1C1298761E24F4407407
:102160008847002E81460CDD2B2804D0B9F12D0FB5
:1021700007D144F48074B96912986D1C8847761EA3
:102180008146E00501D52D2100E02B2108F8011B37
:10219000CDF8008021E0761E0DF13901884544F428
:1021A00000740CD2A9F1300010F0FF0088F8000094
:1021B00002D10099884509D908F1010806E0E00537
:1021C00001D5244801E042F20F708246B9691298A5
:1021D0006D1C8847814613980560002E04DD484633
:1021E00000F033FF0028D6D1F96912988847FF2004
:1021F00053468BF8000088F8000000200A900B90EE
:1022000004AA0CA90AA8FFF7D5FDA00502D46FF017
:102210000100F8E614F0240F0AD0E00714D1386862
:10222000DDE90A12031D3B600068C0E900120BE003
:102230000AA9684600F0B2FEE00705D13868009AA6
:10224000011D3960006802602846DCE64821000074
:102250003E200000F1D8FFFF0446AFF30080204687
:10226000FDF799FF4FF0013C50F8042B51F8043B67
:102270009A4221D1A2EB0C03934313EACC1317D15A
:1022800050F8042B51F8043B9A4215D1A2EB0C03F1
:10229000934313EACC130BD150F8042B51F8043BB1
:1022A0009A4209D1A2EB0C03934313EACC13DBD07F
:1022B0004FF00000704700BFD01A01BAB1FA81F1A7
:1022C00001F0180122FA01F0CB40C1F12001DBB28C
:1022D000C0B2C01A2CFA01F3D11A914311EAC3110A
:1022E000E6D170472DE9F047814616468AB032485C
:1022F00078440DC88DE80D002F487844801C03AC4D
:102300000DC884E80D0041F69B303722014491FB53
:10231000F2F0A0F1800502FB10141B3C02D56442D0
:10232000012000E00020DFF890A080460027FA445A
:10233000AAF1BA0A0DE0E00709D03246684607EB79
:1023400047010AEB810100F0D6FC8DE8070064101C
:102350007F1C002CEFD1184F7F44A83F18E0E807FE
:1023600014D007EB04100DF1180A90E80E008AE86B
:102370000E00C068F04201D198190890324606A9B3
:1023800003A800F0B8FC03AB83E807006D10641CE1
:10239000002DE4D132466946B8F1000F03A802D0FF
:1023A00000F081FC01E000F0A6FCC9E90001C9F8D9
:1023B00008200AB0BDE8F087AC1C000010B5FFF79C
:1023C000F1FB006810BD10B50446FFF7EBFB04609D
:1023D00010BD00002DE9FF4F1F464FF03C0987B0AC
:1023E0004FF00042DDE9141001F10108DDF858A0BA
:1023F00002EA4050039000200490834605460446BC
:102400000590B969461E08988847AAF1010A02900A
:10241000BAF1000F37DD02982E2815D01021FFF7F2
:1024200076FC00282ADB4FF0010B0499014316D0FB
:10243000B9F1000F0BDB4A46C11700F0F7F905436D
:102440000C43A9F1040905E00120059007E008B15B
:1024500045F0010501200490059800B9361DB969C1
:10246000089808F101088847BBF1000FAAF1010A9A
:102470000290CDD00999C1F80080C9E70298702870
:1024800008D0502806D0F96908988847BBF1000F9A
:1024900014D04FE0002002900120BBF1000F049007
:1024A00009D0B969089808F101088847AAF101091B
:1024B000B9F1000F07DCF969089888476FF001004F
:1024C0000BB0BDE8F08F2B2804D02D280CD14FF095
:1024D000FF300490B969089808F101088847A9F10C
:1024E0000109B9F1000FE6DD411CE4D00A21FFF734
:1024F0000EFC0028DFDB029908F1010801EB8101E5
:1025000000EB41000290B969089888470A21FFF75B
:10251000FEFB099AA9F10109B9F1000FC2F8008088
:1025200001DD0028E7DAF9690898884704990298DC
:1025300000FB016655EA040004D004F040410900A4
:1025400002D006E0039898E0A40044EA9574AD0038
:10255000B61E04F00041080002D16D196441761ED8
:10256000159810F0240F03D04FF00B095C4803E0DE
:102570004FF028096FF07D008246564507DAAAEB36
:1025800006018944B9F1410F01DD4FF041090120F5
:102590000021A9F1010200F049F9024628400B464A
:1025A0002140084301D0012100E00021501E02918A
:1025B00043F1FF3128402140084301D0012000E0D1
:1025C00000200299834651EA0B014FD000210846B2
:1025D0004FF00000039900F4400039B100EB800097
:1025E0004FF4400100EBD07001EA60008015012833
:1025F00002DD4FF0FF3000E013D0401C36D00298CF
:1026000060B3BBF1000F0CD14A460120002100F05D
:102610000DF928402140084301D0012000E00020AE
:10262000E0B101204A46002100F000F903464019BC
:102630000A4661412D1A8C4111D3B9F1400F09DDD1
:10264000159810F0240F02D0AAF1340603E0AAF185
:10265000170600E0761C00254FF0004406E05B1EE4
:1026600042F1FF3220EA030521EA0204CAF1010027
:10267000B04206DA1B4903980843019000200090FD
:102680000EE0039AC4F3D321E80A0A43164940EA4C
:1026900044500A433146CDE90002684600F0CAFCC6
:1026A000159810F0240F0BD01598C00715D1386875
:1026B000DDE90012031D3B600068C0E900120CE078
:1026C00002A8694600F06AFC1598C00705D1386871
:1026D000029A011D3960006802604046F0E6000081
:1026E00002FCFFFF0000F07F0000F03F2DE9FF4FEC
:1026F00092461D4685B04FF00041DDE9124BDDE901
:1027000014727F1E01EA4B50414940F0FF4940EAF4
:102710000108002122F020004928049102D04E280F
:1027200028D04CE03BA0012607C88DE80700A96926
:102730000698641C88477F1E014606D41DF80600D3
:1027400018B121F0200181420BD0E9690698884731
:10275000032E34D0082E32D06FF0010009B0BDE84E
:10276000F08F761C032E01D0082EE0D1601CCAF831
:102770000000DCE7A9690698641C88477F1E2AD4FC
:1027800020F02000412826D1A9690698641C8847BA
:102790007F1E20D420F020004E281CD1A969069865
:1027A000641C88477F1E48F4002849F48009CAF851
:1027B000004001D4282806D0E969069888475FEAD6
:1027C000CB7012D022E0A9690698641C88477F1E4E
:1027D00001D4002803DAE96906988847BCE729286C
:1027E000F1D1641CCAF80040E9E71BF0240F07D0C0
:1027F00028680499031D2B600068C0E9001805E0F3
:102800002868021D2A600068C0F800902046A5E7ED
:102810000000F07F494E46494E49545900000000DF
:1028200001491820ABBEFEE726000200B2F12003EA
:102830000AD5C2F1200301FA02F120FA03F300FAEB
:1028400002F041EA0301704700FA03F14FF0000083
:102850007047704720F07F4C80EA030023F07F47E9
:10286000ACEB070303F57C5300F0004003F1FF03DA
:102870002DE980494FEA154B09B44FEA144325EA84
:102880000B4E24EA03480FF2042606EB13274908EF
:102890003E785FEA320203FB0667C7F5000707FBD5
:1028A00006F64FEA54374FEAD64606F1020607FB12
:1028B000066CCCF1005C4FEA1C472CEA074C07FB86
:1028C00006F40CFB06F504EB15464FEA961634BFEA
:1028D00000204FF000404FEAD13706FB07FC4FEADB
:1028E0001C4C0CFB0BF7D21B03FB0CF761EB070135
:1028F0000CFB0EF7B0EB074072EB17420CFB08F72E
:1029000034BFA2EB0742B2EB074261EB17414FEA3B
:102910000C444FEA910706FB07FC4FEA1C4C0CFBEA
:102920000BF7B0EBC74072EB573203FB0CF734BF29
:10293000A2EBC742B2EBC74261EB57310CFB0EF77B
:10294000B0EBC70072EB57720CFB08F734BFA2EB79
:10295000C702B2EBC70261EB5771039F4FEA816177
:1029600041EA921104EBCC044FEAD1374FEA82627C
:1029700006FB07FC42EA90124FEA80604FEA1C4CCB
:102980000CFB0BF7D21B03FB0CF761EB07010CFBF5
:102990000EF7B0EB074072EB17420CFB08F734BFA1
:1029A000A2EB0742B2EB074261EB17414FEA8C55AD
:1029B0004FEA910704EB9C2406FB07FC4FEA1C4CF2
:1029C0000CFB0BF7B0EBC74072EB573203FB0CF775
:1029D00034BFA2EBC742B2EBC74261EB57310CFBED
:1029E0000EF7B0EBC70072EB57720CFB08F734BF61
:1029F000A2EBC702B2EBC70261EB577115EB4C2596
:102A00004FEA816141EA92114FEA82624FEAD1377F
:102A100042EA901206FB07FC44F100044FEA806092
:102A20004FEA1C4C0CFB0BF7D21B03FB0CF761EBC2
:102A300007010CFB0EF7B0EB074072EB17420CFBE3
:102A400008F734BFA2EB0742B2EB074261EB174134
:102A500015EB1C154FEA813141EA92414FEA82326F
:102A600042EA90424FEA80304FEA0C7644F100048B
:102A700048EA03434EEA0B484FF0000EB2EB080C55
:102A800071EB030724BF624639464EEB0E0E4FF042
:102A9000000B0018524149414BEB0B0BB2EB080CF9
:102AA00071EB03077BF1000B24BF624639464EEB06
:102AB0000E0E4FF0000B0018524149414BEB0B0B2F
:102AC000B2EB080C71EB03077BF1000B24BF6246ED
:102AD00039464EEB0E0E51EA020718BF46F00106CA
:102AE00016EB0E7655F1000254F1000103D5BDE856
:102AF0008901BDE80088BDE88901B619BDE8004834
:102B0000524141EB0101A3F10103704780807F7EB8
:102B10007D7C7B7A79787776767574737271717053
:102B20006F6E6E6D6C6C6B6A6A6968686766666505
:102B30006464636362616160605F5F5E5E5D5D5C93
:102B40005C5B5B5A5A595958585757565655555504
:102B50005454535352525251515050504F4F4F4E64
:102B60004E4D4D4D4C4C4C4B4B4B4A4A4A494949B2
:102B700048484847474747464646454545444444F4
:102B800044434343434242424241414146EA0646AE
:102B9000A3F570534FEA164646EA42564FEAD22250
:102BA00042EA415210B54FEAD121A3F1010300F0EE
:102BB00017F820F0004000F1010C00F0004701EB95
:102BC00000501146BCF5006F40EA070000D210BD6E
:102BD00002484FF0000140EA070010BD0000F07FFE
:102BE000002B26D4770021D01CB54FEA370703B459
:102BF0004FF010004FF010014FF000000FBC0BF130
:102C0000010BBDE81040BBF1010F08BF5FEA1707D9
:102C100022BF12F1010211F101014FF0004143F115
:102C2000000300F0004043EA00007047F9D3570862
:102C3000DAE746EA064613F1400F4FEA16461FDD73
:102C400013F1200FDFBF16430A46002120335B42F9
:102C5000C8D0C3F1200746EA064602FA07F74FEA52
:102C6000164646EA0706C3F1200722FA03F201FAE4
:102C700007F721FA03F14FF0000342EA0702B1E738
:102C800046EA020646EA06464FEA164646EA0106C4
:102C9000BCBF46EA0646360C4FF000034FF0000278
:102CA0004FF000019EE72DE9C048934630B491E80B
:102CB000380007C831EA400C48BF34EA430C03D55A
:102CC000FFF7C8FDFFF78CFFF0BCBDE800882DE9D9
:102CD000C048934630B491E8380007C831EA400C48
:102CE00048BF34EA430C03D5FFF7B4FDFFF74EFFAE
:102CF000F0BCBDE800882DE9C048934630B491E8A7
:102D0000380007C810F0804F08BF13F0804F03D180
:102D100000F019F8FFF764FFF0BCBDE800882DE96A
:102D2000C048934630B491E8380007C810F0804F8F
:102D300008BF13F0804F03D100F005F8FFF726FF1E
:102D4000F0BCBDE8008820F07F4780EA030023F054
:102D50007F4C07EB0C03A3F57C5300F00040A3F17C
:102D6000FE0392F0000F00F0B38095F0000F00F02A
:102D700077802DE901494FEA11404FEA144621EAD4
:102D8000004800FB06FC24EA064708FB06F607FBA2
:102D900008F800FB07F718EB06484CEB164C4FEA17
:102DA000124B18EB07484FEA15464CEB174022EA46
:102DB0000B4E0BFB06FC25EA06470EFB06F607FB4F
:102DC0000EFE0BFB07F71EEB064E4CEB164C4FF0BE
:102DD00000061EEB074E4CEB174B18EB0B0840F1AF
:102DE000000018EB0E0B58EB000840F100008F1AA2
:102DF0004FF000013CBFC943661B14BFB5EB040C88
:102E000000213CBFC943F61B4FEA17444EEA8E0E21
:102E100027EA04454FEA1C4704FB07622CEA074CEB
:102E200005FB07F70CFB05F604FB0CFC16EB07464D
:102E300042EB174216EB0C4642EB1C421BEB06061C
:102E400058EB0202414146EA9E0601D5BDE80189E0
:102E5000B619524141EB0101A3F10103BDE801891B
:102E60004FEA14454FEA114724EA054621EA074C88
:102E700005FB07F406FB07F70CFB06F105FB0CFC52
:102E800011EB074144EB17444FEA124711EB0C4199
:102E900044EB1C4422EA074C05FB07F206FB07F74C
:102EA0000CFB06F605FB0CFC16EB074642EB174243
:102EB00016EB0C4642EB1C456A1854F1000148BF62
:102EC0007047B619524141EB0101A3F1010370476C
:102ED00095F0000F37D04FEA11424FEA144721EA2C
:102EE000024624EA074C02FB07F106FB07F70CFB3E
:102EF00006F402FB0CFC14EB074441EB17414FEACC
:102F0000154714EB0C4441EB1C4125EA074C02FB2E
:102F100007F506FB07F70CFB06F602FB0CFC16EBAD
:102F2000074645EB174516EB0C4645EB1C421219BC
:102F300051F1000148BF7047B619524141EB010100
:102F4000A3F1010370474FEA14454FEA114724EA01
:102F5000054621EA074C05FB07F106FB07F70CFBCA
:102F600006F24FF0000605FB0CFC12EB074241EBAA
:102F7000174112EB0C4251EB1C4148BF70479218AD
:102F800041EB0101A3F1010370470000024A002058
:102F9000110700F07ABF000001FDFFFF10B50446E5
:102FA000D1E9000100F002F8206010BD38B50446F8
:102FB0000D466A4600F050F800987E3000900028D8
:102FC0001FDC002213462046294600F0D9F918D00C
:102FD0002046294600F0E6F80446002140F60800A5
:102FE0004FF0000040F60801014040F608004FF0A5
:102FF000000034F0004004BF0220FFF7E4F920464F
:1030000038BD0098FF280DDB0220FFF7DCF9002215
:1030100013462046294600F0AFFA8CBF04484FF013
:10302000FF4038BD20462946BDE8384000F0BAB818
:10303000000080FF10B504460A46D4E90003194693
:1030400000F036F8C4E9000110BD30380A2801D27A
:10305000012070470020704710B5144600222260FE
:10306000114A21F000439342A8BF10BD53EA000269
:1030700008BF10BDB3F5801FA8BF226807DA36224B
:1030800000F003FF6FF0350221F000432260DFF80B
:103090001CC06FF31E510CEB23531A4441F0FF5137
:1030A00041F00051226010BD0000F07F02FCFFFFE4
:1030B0002DE9F04106460C4640F2FF75174635EA09
:1030C000145030D000221346304600F059F92AD06F
:1030D0003A463046214600F0D8FE06460C4635EA10
:1030E000145010D000221346304600F049F91AD18E
:1030F0000220FFF768F9FFF749FF0A46214662F30D
:103100001E01BDE8F0810220FFF75DF940F20132B7
:1031100000204FF0E04100F0B8FE0A46214662F37D
:103120001E01BDE8F08130462146BDE8F08100B5C2
:1031300083B00A460021CDE9001101466846FEF73A
:10314000A3FDDDE9000103B000BD000010B50029BA
:103150000AD00878002807D005487844FFF782F89D
:10316000002801D0002010BD0248784410BD0000A6
:10317000860E00007E0E000010B500290AD00878E7
:10318000002807D005487844FFF76CF8002801D0E4
:10319000002010BD0248784410BD00006A0F0000F6
:1031A000620F000021F00042A2F16052B2F5801FD0
:1031B00001F0004328BFD2F17F6C0BD95FEA001CFD
:1031C00043EAC20242EB507018BF704728BF20F09C
:1031D00001007047B2F5801FBCBF184670474FEA28
:1031E000410C1CF5001F02D2084600F070BD70B5FE
:1031F00000F06EF900000089FFF7F6BF4FF00040C5
:10320000A0F580007047000010B591EA030F48BF99
:1032100083F0004300F1EE81841A71EB030C05D2B8
:10322000121943EB0C03001B61EB0C01DFF824E1E6
:103230004FEA1154A4EB135C1EEA430F18BF9EEA39
:10324000445F73D023EA0E03DCF1200E21EA04511F
:1032500043F4801332D322FA0CFE10EB0E0023FA53
:103260000CFE41EB0E01CCF1200E03FA0EFE10EB2A
:103270000E0051F10001B1F5801FCCF1200E32D2C9
:1032800001EB045112FA0EF2BDE8104058BF70472E
:10329000401C38BF5FEA420218BF7047002814BFC5
:1032A00020F0010041F100014FEA410313F5001F36
:1032B00038BF7047A1F1C04100F058B9012A43EB73
:1032C0000302ACF1200CDCF11F0E32BF4FF0000EF8
:1032D00023FA0CF310EB030041EB0451B4EB115F44
:1032E000D0D0A1EB045101F5801149085FEA30000C
:1032F00001EB04510ED350F1000038BF12FA0EFE5C
:1033000008D1BDE81040C9E7401C38BF5FEA42025F
:10331000CAD1C3E7BDE810404FEA410313F5001FCF
:1033200038BF7047A1F1C04100F020B99EEA445F68
:1033300008D011EA5E0FBDE8104004BF01F0004163
:1033400000207047BDE8104070B500F0C1F800BF24
:1033500064FBBE3E0000E0FF02494FF0000000F0B9
:1033600062BD00BF0000F87F491058BFC1F1404165
:103370005B1058BFC3F140438B42EFF300807047AE
:1033800051EA030C17D41CF5801F58BFBCF5801FF1
:1033900000F10680994218BF704708BF90427047FD
:1033A00007D711F5801F58BF13F5801F19D4994214
:1033B0007047894270471CF5801F08D5BCF5801FF7
:1033C000F7D58B4218BF704708BF824270474FF451
:1033D000001C1CEB410F38BF1CEB430F01D28B428A
:1033E000704770B500F074F8922449004FF0005116
:1033F0004FF08053FFF7B8BF4FEA41034FEA5353F2
:10340000A3F58063D3F11E03C8BFD3F1210C0CDDFB
:103410004FF0004242EAC12242EA505232FA03FC23
:103420008CEAE17CACEBE1707047102BC4BF00204C
:10343000704703F5787CBCF1FF3F04D06FF0004289
:1034400082EA2100704770B500F042F8499224806A
:1034500000207047F2E7000051EA030C17D41CF576
:10346000801F58BFBCF5801F00F10680994218BF2D
:10347000704708BF9042704707D711F5801F58BFAB
:1034800013F5801F19D499427047894270471CF583
:10349000801F08D5BCF5801FF7D58B4218BF704739
:1034A00008BF824270474FF4001C1CEB410F38BF2D
:1034B0001CEB430F01D28B42704770B500F008F847
:1034C000922449004FF000514FF08053FFF74CBF5A
:1034D0000EF1020E2EF0030E5EF8046B364205D498
:1034E000012A43EB030515F5001F12D8012841EB13
:1034F000010C1CF5001F0CD80ED14FEAD17C15F53C
:10350000001F0CEB4C0C0CF1020C08BF4CEBD37CF5
:1035100004E04FF0080C01E04FEAD37C0CEB4C05C3
:1035200026FA05F606F00706B6F1040C06D20EEBF5
:10353000860CBDE870404CF0010C6047DFE80CF0F1
:10354000090B02024FF000414FF00000A1F50021ED
:1035500070BD19461046012851EB010418BFD4F57F
:10356000001484BF002001F0004170BD0808A0F5E0
:1035700000114FEA3101704753EA010C17D41CF5D2
:10358000801F58BFBCF5801F00F106808B4218BF1A
:10359000704708BF8242704707D713F5801F58BF96
:1035A00011F5801F19D48B4270479B4270471CF560
:1035B000801F08D5BCF5801FF7D5994218BF70470A
:1035C00008BF904270474FF4001C1CEB430F38BFFC
:1035D0001CEB410F01D2994270470FB40CBC03BCE5
:1035E000FFF76BBF10B591EA030F48BF83F00043AC
:1035F0003FF512AE841A71EB030C07D212198CF04E
:10360000004C43EB0C03001B61EB0C01DFF8A4E161
:103610004FEA1154A4EB135C1EEA430F18BF9EEA55
:10362000445F00F0B08023EA6E03524221EA045165
:10363000C3EB6E0338BF5B1EDCF1200E25D322FAEC
:103640000CFE10EB0E0043FA0CFE41EB0E01CCF128
:10365000200E03FA0EFE10EB0E0051F10001CCF12A
:10366000200E29D412FA0EF201EB0451BDE81040ED
:1036700058BF7047401C1CBFB2F1004F7047002874
:103680000CBF491C20F00100704712EB020E43EB07
:10369000030218BF4FF0010E4EEA4202ACF1200CBB
:1036A000DCF11E0E54D943FA0CFE10EB0E0051F162
:1036B000FF31CCF11E0ED5D50EF1010E12FA0EFE21
:1036C000404141EB010101EB445C5FEA5C5C10D9D5
:1036D00010EBDE7001EB045138BFBEF1004FBDE8C6
:1036E000104018BF704700280CBF491C20F0010093
:1036F000704730D24FEAD42C11F5001124F4006445
:103700001BD0B1FA81F20B3AA41AA41ED2F1200305
:10371000914030FA03F31943904001EBCC71002C37
:1037200001EB0451BDE81040A8BF704701F1C04152
:103730004FF0000001F000417047B0FA80F310FA3A
:1037400003F100D110BDE41A173C4805C90AE4E7AB
:1037500001EB045110BD491001EB0451BDE81040CC
:103760004FEA300002E04FF0000170474A0008BF06
:103770000042F8D0B2F5001F28BF704701F00041A9
:103780004FF0000070479EEA445F07D011EA5E0FD9
:10379000BDE8104004BF002100207047BDE8104084
:1037A00070B5FFF795FE00BF40DFF63E83F00041A5
:1037B000104670470000E0FF43004FEAD30C4FEA89
:1037C0003C0C43401FBF40070CF1605113F0FE4F0B
:1037D00070471CF0006F03D100200CF000417047CF
:1037E0000CF0004343EA507010B540EACC0000F002
:1037F00028FA00BF000000924FEA0001FFF7B6BEB2
:103800004FF000414FF00000A1F50021704700008B
:1038100090EA010F48BF81F0004100F19682421A00
:103820003CBF801A89184FEAD0524FF07F4C1CEAF7
:10383000410FA2EBD15318BF9CEA026F00F03B800E
:103840004FF0004C4CEA00204CEA012121FA03FC25
:1038500010EB0C0C1ED202F1FF325FEA1C2040EB91
:10386000C25038BF70471CF07F0F4FEA400C18BFA2
:10387000BCF17F4F38BF7047C3F12003994008BFA8
:1038800020F00100BCF17F4F38BF7047A0F1C0406D
:1038900000F01DBA4FEA3C00000A40EBC25028BFBE
:1038A0001CF0FF0F4FEA400CE6D018BFBCF17F4F71
:1038B00038BF7047EAE79CEA026F05D010EA5C0F58
:1038C00008BF00F00040704710B500F0BAF900BF23
:1038D00064FBBE3E401058BFC0F14040491058BF85
:1038E000C1F140418142EFF3008070474FF47F0CFB
:1038F0001CEAD0121EBF1CEAD11392EA0C0F93EA05
:103900000C0F00F0858090EA010F48BF42F48072EE
:1039100040F4000C41F400002CF07F4120F07F4087
:1039200000B58142A2EB03020FF2081CACEB504E33
:10393000C0F100009EF800E04FEA4E0E00FB0EFCC6
:1039400038BF49004FEA2C1C02F5FA020CFB0EF3BB
:103950004FEACE1E4FEA112C4FEAC1210EEB635EF7
:1039600042EB22420EFB0CFC4FEA1C5300FB0311FE
:103970004FEA112C4FEA01310EFB0CFC4FEADC4CF4
:1039800000FB0C11C14228BF09184CEB03335DF852
:1039900004EB10EB410143EBC250B2F57C0F38BF92
:1039A000704729D512F0F00F1CBF00F1C04000F0A5
:1039B00000407047008182838485868788898B8C4C
:1039C0008D8E8F919293959697999A9C9D9FA0A288
:1039D000A3A5A7A8AAACAEB0B2B3B5B7B9BCBEC0D8
:1039E000C2C5C7C9CCCED1D4D7D9DCDFE2E6E9EC79
:1039F000F0F3F7FAFE0000004FEA400C0CF1807C77
:103A0000BCF17E4F28BF7047B0F1C04000F05FB9F5
:103A100090EA010F0CEAD11348BF42F4807262456C
:103A200038BF634507D213F47F0F16D080EA010038
:103A300000F00040704710B500F003F9097EFC3E2D
:103A400000F005B880EA010000F00040704780EA0D
:103A5000010000F0004000F03AB912F47F0F04BFFB
:103A60000248704780EA010000F031B90000C07FD1
:103A700041000B0ED3F19E0208D950F400034FEA27
:103A8000032323FA02F048BF4042704710B500F00C
:103A9000D8F800BF49922480002070476FF00042A0
:103AA00082EA20007047000010F0004148BF404209
:103AB000B0FA80F310FA03F2C3F19D030BD051EA80
:103AC000C35101EB1220530638BF704700F10100CB
:103AD00008BF20F00100704750EA010C00F113808C
:103AE0001CF5000F58BFBCF5000F01D48842704789
:103AF00007D710F5000F58BF11F5000F15D48842F5
:103B00007047894270471CF5000F04D5BCF5000FC3
:103B1000F7D5814270474FF0807C1CEB400F38BFD7
:103B20001CEB410F01D28142704710B500F089F8BB
:103B3000922449004FF000504FF08051FFF7CABE69
:103B40004FF47F0C1CEAD0121EBF1CEAD11392EA7C
:103B50000C0F93EA0C0F00F0478090EA010F48BF6A
:103B600042F480724FF0004C4CEA00204CEA0121F4
:103B700002EB0302A0FB0113A2F50002002918BF0B
:103B800043F001035B0028BF4FEA330342EB2242BC
:103B90005FEA132C4CEBC2502EBFBCEB436FB2F567
:103BA0007C0F70474FEA036CBCF1004F08BF20F058
:103BB0000100B2F57C0F38BF70470BD582F0FF02D1
:103BC00012F5803FC8BF704700F1C040D8BF00F079
:103BD0000040704700F5000C5FEA4C0C48BF70478E
:103BE000B0F1C04000F073B890EA010F0CEAD113B5
:103BF00048BF42F48072624538BF634504D280EA10
:103C0000010000F00040704710B500F01AF800BF46
:103C10008900013E00F007B800F009B85FEA410CE6
:103C20005FEA1C6C08D080EA010000F050B85FEA3F
:103C3000400C5FEA1C6CF6D14FF00040A0F580000C
:103C400070470EF1020E2EF0030E5EF8044B244274
:103C500004D44FEA4102B2F17F4F11D84FEA40033A
:103C6000B3F17F4F0CD80ED14FEAD07CB2F17F4F29
:103C70000CEB4C0C0CF1020C08BF4CEBD17C04E0BB
:103C80004FF0080C01E04FEAD17C0CEB4C0324FA16
:103C900003F404F00704B4F1040C06D20EEB840C18
:103CA000BDE810404CF0010C6047DFE80CF007085D
:103CB00002024FF00040A0F5800010BD084642000F
:103CC00018BFD2F1807288BF00F0004010BDFF2104
:103CD00041EAD050C005704751EA000C00F1138052
:103CE0001CF5000F58BFBCF5000F01D4814270478E
:103CF00007D711F5000F58BF10F5000F15D48142FA
:103D00007047894270471CF5000F04D5BCF5000FC1
:103D1000F7D5884270474FF0807C1CEB410F38BFCD
:103D20001CEB400F01D28842704780EA010081EA13
:103D3000000180EA0100FFF7F8BE000090EA010FE1
:103D400048BF81F000413FF56AAD421A04D882F0C5
:103D50000042A0EB020011444FEAD0524FF07F4CDA
:103D60001CEA410FA2EBD15318BF9CEA026F4AD064
:103D70004FF0004C4CEA00204CEA012121FA03FCF0
:103D8000B0EB0C0C0FD412F0FE0F36D05FEA4C00F3
:103D90001DD5001240EBC25038BF70471CF03F0FDA
:103DA00018BF70470BE0A2F101025FEA1C2040EB54
:103DB000C25038BF70471CF07F0F18BF7047C3F167
:103DC0002003994014BF401E20F001007047800876
:103DD0004FEA122308BF7047B0FA80FCA2EB0C0236
:103DE000CCF1280C60FA0CF093EA122F04BF00EB20
:103DF000C25070474FEAC3707047130A5FEADC1085
:103E000008BF7047F6E79CEA026F04D010EA5C0F27
:103E100008BF0020704710B5FFF713FF40DFF63EE4
:103E200081F0004070470CF00F03092B08BF0820F9
:103E300000F05F800A2B0BD0082B18BF704708BF1B
:103E40001CF0400F0AD04FF000004FF00001704707
:103E50001CF0400F18BF4FF0004070471CF0100FCF
:103E600008D020F0704300F07F4242EAD3014FEACD
:103E70004370704700F0604021F07F4242EA000248
:103E800001F07F4040EA727070474FF0FF0C4CF435
:103E9000E06C1CEA11531CBF9CEA030C9445C2BFA2
:103EA000DA4201EB02517047002B0DD0BCF1000F3C
:103EB0000FD0002A01F00041A4BF41F0E04141F0E1
:103EC0007F614FF00000704701F000414FF00000AB
:103ED000704750EA01334FF09B0C18BF4CF0806CD8
:103EE0007FF43AAA7047FEF763B8FEF773BAFEF79D
:103EF000FDBB1CF4801F11D01CF4E02F03D06FEA2F
:103F0000CC31490070474FF04050EFF3008222F06F
:103F1000704242EA000282F3008870474FF00000CE
:103F20007047000002400000000000A000000000F8
:103F300005400000000000C8000000000C40000028
:103F40000000409C00000000194000000020BCBEA2
:103F50000000000034400000BFC91B8E00000004B8
:103F6000B5400000504BCFD06607E2CF0100000003
:103F70006C4100003E8251AADFEEA7340100000030
:103F8000D9420000DCB5A0E23A301F97FFFFFFFFE7
:103F9000B4450000FD25A0C8E9A3C14FFFFFFFFF06
:103FA000FF3F00000000008000000000FF3F000015
:103FB00000000080000000000C410008000000200C
:103FC00070000000280100087C41000870000020FB
:103FD0000807000044010008000000000000F07F16
:103FE0001001000043000000F8FFFFFF00404040C8
:103FF00040404040404041414141414040404040BC
:104000004040404040404040404040404005020267
:104010000202020202020202020202020220202026
:104020002020202020202002020202020202909082
:104030009090909010101010101010101010101080
:1040400010101010101010100202020202028888D4
:1040500088888888080808080808080808080808E0
:1040600008080808080808080202020240000000C8
:104070000000000000000000000000000000000040
:104080000000000000000000000000000000000030
:104090000000000000000000000000000000000020
:1040A0000000000000000000000000000000000010
:1040B0000000000000000000000000000000000000
:1040C00000000000000000000000000000000000F0
:1040D00000000000000000000000000000000000E0
:1040E00000000000000000000000000000000000D0
:1040F0001C00000043000000F8FFFFFF0C00000060
:104100000E0000000F0000002E00000000A24A0474
:104110000000000000000000010203040607080977
:10412000000000000102030401020304060708095D
:10413000020406080000000002000400000800104D
:10414000008000000100D8136400C80002000400D1
:1041500000080010008001000100D8136400C800AE
:10416000000000000000000000000000000000004F
:0C41700000000000000000000000000043
:04000005080000ED02
:00000001FF
